{
	"data": {
		"bytecode": {
			"linkReferences": {},
			"object": "670de0b6b3a7640000600e5560e0604052602c608081815290620060b160a0398051620000359160109160209091019062000197565b5060408051808201909152600580825264173539b7b760d91b6020909201918252620000649160119162000197565b50604080516020810191829052600090819052620000859160129162000197565b503480156200009357600080fd5b50604051620060dd380380620060dd833981016040819052620000b691620002e8565b815182908290620000cf90600090602085019062000197565b508051620000e590600190602084019062000197565b50505062000102620000fc6200014160201b60201c565b62000145565b81516200011790600c90602085019062000197565b5080516200012d90600d90602084019062000197565b5050600f805461ffff1916905550620003a2565b3390565b600b80546001600160a01b038381166001600160a01b0319831681179093556040519116919082907f8be0079c531659141344cd1fd0a4f28419497f9722a3daafe3b4186f6b6457e090600090a35050565b828054620001a5906200034f565b90600052602060002090601f016020900481019282620001c9576000855562000214565b82601f10620001e457805160ff191683800117855562000214565b8280016001018555821562000214579182015b8281111562000214578251825591602001919060010190620001f7565b506200022292915062000226565b5090565b5b8082111562000222576000815560010162000227565b600082601f8301126200024e578081fd5b81516001600160401b03808211156200026b576200026b6200038c565b6040516020601f8401601f19168201810183811183821017156200029357620002936200038c565b6040528382528584018101871015620002aa578485fd5b8492505b83831015620002cd5785830181015182840182015291820191620002ae565b83831115620002de57848185840101525b5095945050505050565b60008060408385031215620002fb578182fd5b82516001600160401b038082111562000312578384fd5b62000320868387016200023d565b9350602085015191508082111562000336578283fd5b5062000345858286016200023d565b9150509250929050565b6002810460018216806200036457607f821691505b602082108114156200038657634e487b7160e01b600052602260045260246000fd5b50919050565b634e487b7160e01b600052604160045260246000fd5b615cff80620003b26000396000f3fe6080604052600436106102675760003560e01c806366be290f11610144578063afa00bba116100b6578063c87b56dd1161007a578063c87b56dd146106e9578063cc0d254614610709578063cd85cdb51461071c578063ce2762d314610731578063e985e9c514610751578063f2fde38b1461077157610267565b8063afa00bba14610654578063b88d4fde14610669578063c1a12ce714610689578063c3c5a547146106a9578063c610e7a6146106c957610267565b806387014f571161010857806387014f57146105c05780638da5cb5b146105d557806395d89b41146105ea578063a22cb465146105ff578063a7fdeeb51461061f578063ad64e9451461063457610267565b806366be290f1461051e5780636790a9de1461053e5780636e4d12671461055e57806370a082311461058b578063715018a6146105ab57610267565b806337679e34116101dd5780634ceae247116101a15780634ceae2471461047f5780634f6ccce71461049457806360225e79146104b4578063615d21a1146104d45780636352211e146104e957806365c20a961461050957610267565b806337679e34146103ea5780633b1a4fe21461040a57806342842e0e1461042a5780634987b3bc1461044a5780634a7bd4041461046a57610267565b80631648f8341161022f5780631648f8341461033357806318160ddd1461035357806323b872dd146103755780632be09561146103955780632f745c59146103aa578063359539b0146103ca57610267565b806301ffc9a71461026c57806306fdde03146102a2578063081812fc146102c4578063095ea7b3146102f15780631365e5d114610313575b600080fd5b34801561027857600080fd5b5061028c6102873660046133da565b610791565b6040516102999190613bd8565b60405180910390f35b3480156102ae57600080fd5b506102b76107e5565b6040516102999190613be3565b3480156102d057600080fd5b506102e46102df366004613532565b610877565b6040516102999190613b2a565b3480156102fd57600080fd5b5061031161030c3660046133b1565b6108c3565b005b34801561031f57600080fd5b5061031161032e366004613412565b61095b565b34801561033f57600080fd5b5061031161034e366004613532565b610b4c565b34801561035f57600080fd5b50610368610be0565b6040516102999190614a35565b34801561038157600080fd5b50610311610390366004613277565b610be6565b3480156103a157600080fd5b50610311610c1e565b3480156103b657600080fd5b506103686103c53660046133b1565b610c6c565b3480156103d657600080fd5b506103116103e5366004613365565b610cbe565b3480156103f657600080fd5b5061031161040536600461332b565b610eaa565b34801561041657600080fd5b506102b761042536600461322b565b610f57565b34801561043657600080fd5b50610311610445366004613277565b611044565b34801561045657600080fd5b50610311610465366004613412565b61105f565b34801561047657600080fd5b5061028c6110b5565b34801561048b57600080fd5b506103686110be565b3480156104a057600080fd5b506103686104af366004613532565b6110f5565b3480156104c057600080fd5b506102b76104cf366004613532565b611150565b3480156104e057600080fd5b506103686113c8565b3480156104f557600080fd5b506102e4610504366004613532565b6113ce565b34801561051557600080fd5b50610311611403565b34801561052a57600080fd5b506102b7610539366004613532565b61144f565b34801561054a57600080fd5b50610311610559366004613445565b61147f565b34801561056a57600080fd5b5061057e61057936600461322b565b611537565b6040516102999190613b94565b34801561059757600080fd5b506103686105a636600461322b565b6115f5565b3480156105b757600080fd5b50610311611639565b3480156105cc57600080fd5b5061028c611684565b3480156105e157600080fd5b506102e4611692565b3480156105f657600080fd5b506102b76116a1565b34801561060b57600080fd5b5061031161061a36600461332b565b6116b0565b34801561062b57600080fd5b5061036861177e565b34801561064057600080fd5b5061031161064f3660046133b1565b611784565b34801561066057600080fd5b5061031161188d565b34801561067557600080fd5b506103116106843660046132b2565b6118dd565b34801561069557600080fd5b506103116106a4366004613532565b61191c565b3480156106b557600080fd5b5061028c6106c436600461322b565b6119d9565b3480156106d557600080fd5b506102e46106e4366004613412565b6119fa565b3480156106f557600080fd5b506102b7610704366004613532565b611a90565b61031161071736600461349c565b611c25565b34801561072857600080fd5b5061031161223a565b34801561073d57600080fd5b506102b761074c366004613532565b612285565b34801561075d57600080fd5b5061028c61076c366004613245565b6123ae565b34801561077d57600080fd5b5061031161078c36600461322b565b6123dc565b60006001600160e01b031982166380ac58cd60e01b14806107c257506001600160e01b03198216635b5e139f60e01b145b806107dd57506001600160e01b0319821663780e9d6360e01b145b90505b919050565b6060600080546107f490614b6b565b80601f016020809104026020016040519081016040528092919081815260200182805461082090614b6b565b801561086d5780601f106108425761010080835404028352916020019161086d565b820191906000526020600020905b81548152906001019060200180831161085057829003601f168201915b5050505050905090565b60006108828261244d565b6108a75760405162461bcd60e51b815260040161089e906142d4565b60405180910390fd5b506000908152600460205260409020546001600160a01b031690565b60006108ce826113ce565b9050806001600160a01b0316836001600160a01b031614156109025760405162461bcd60e51b815260040161089e906145e4565b806001600160a01b031661091461246a565b6001600160a01b0316148061093057506109308161076c61246a565b61094c5760405162461bcd60e51b815260040161089e90613f51565b610956838361246e565b505050565b610963611684565b15156001146109845760405162461bcd60e51b815260040161089e90614320565b6000816040516020016109979190613662565b60408051601f1981840301815291815281516020928301206000818152601490935291205490915060ff1680156109e05760405162461bcd60e51b815260040161089e90614715565b601960006109ec61246a565b6001600160a01b0316815260208101919091526040016000206001015460ff1615610a295760405162461bcd60e51b815260040161089e906147e9565b601483511115610a4b5760405162461bcd60e51b815260040161089e906143d8565b600283511015610a6d5760405162461bcd60e51b815260040161089e90613d99565b604080516080810182528481526001602082018190526000928201839052606082015290601990610a9c61246a565b6001600160a01b03168152602080820192909252604001600020825180519192610acb928492909101906130ec565b506020828101516001808401805492151560ff19938416179055604080860151600286015560609095015160039094018054941515948316949094179093556000868152601490925292902080549092168117909155601380549091610b319190614a4a565b81546001810183556000928352602090922090910155505050565b610b5461246a565b6001600160a01b0316610b65611692565b6001600160a01b031614610b8b5760405162461bcd60e51b815260040161089e906143a3565b801580610b96575060005b15610ba1576000600e555b600080610bb283633b9aca006124dc565b9092509050600182151514610bd95760405162461bcd60e51b815260040161089e90614985565b600e555050565b60095490565b610bf7610bf161246a565b82612532565b610c135760405162461bcd60e51b815260040161089e90614798565b6109568383836125b7565b610c2661246a565b6001600160a01b0316610c37611692565b6001600160a01b031614610c5d5760405162461bcd60e51b815260040161089e906143a3565b600f805460ff19166001179055565b6000610c77836115f5565b8210610c955760405162461bcd60e51b815260040161089e90613c2e565b506001600160a01b03919091166000908152600760209081526040808320938352929052205490565b610cc661246a565b6001600160a01b0316610cd7611692565b6001600160a01b031614610cfd5760405162461bcd60e51b815260040161089e906143a3565b600081604051602001610d109190613662565b60408051601f1981840301815291815281516020928301206000818152601490935291205490915060ff168015610d595760405162461bcd60e51b815260040161089e90614715565b6001600160a01b03841660009081526019602052604090206001015460ff1615610d955760405162461bcd60e51b815260040161089e906149ce565b601483511115610db75760405162461bcd60e51b815260040161089e90613ff8565b600283511015610dd95760405162461bcd60e51b815260040161089e90614892565b6040805160808101825284815260016020808301829052600083850181905260608401929092526001600160a01b0388168252601981529290208151805192939192610e2892849201906130ec565b506020828101516001808401805492151560ff19938416179055604080860151600286015560609095015160039094018054941515948316949094179093556000868152601490925292902080549092168117909155601380549091610e8e9190614a4a565b8154600181018355600092835260209092209091015550505050565b610eb261246a565b6001600160a01b0316610ec3611692565b6001600160a01b031614610ee95760405162461bcd60e51b815260040161089e906143a3565b6001600160a01b038216600090815260196020526040902060019081015460ff16151514610f295760405162461bcd60e51b815260040161089e90614625565b6001600160a01b03919091166000908152601960205260409020600301805460ff1916911515919091179055565b6001600160a01b038116600090815260196020526040902060019081015460609160ff909116151514610f9c5760405162461bcd60e51b815260040161089e90614625565b6001600160a01b03821660009081526019602052604090208054610fbf90614b6b565b80601f0160208091040260200160405190810160405280929190818152602001828054610feb90614b6b565b80156110385780601f1061100d57610100808354040283529160200191611038565b820191906000526020600020905b81548152906001019060200180831161101b57829003601f168201915b50505050509050919050565b610956838383604051806020016040528060008152506118dd565b61106761246a565b6001600160a01b0316611078611692565b6001600160a01b03161461109e5760405162461bcd60e51b815260040161089e906143a3565b80516110b19060119060208401906130ec565b5050565b600f5460ff1690565b6000601960006110cc61246a565b6001600160a01b03166001600160a01b0316815260200190815260200160002060020154905090565b60006110ff610be0565b821061111d5760405162461bcd60e51b815260040161089e90614846565b6009828154811061113e57634e487b7160e01b600052603260045260246000fd5b90600052602060002001549050919050565b606061115b8261244d565b6111775760405162461bcd60e51b815260040161089e90614283565b60606016600084815260200190815260200160002060405160200161119c91906138de565b6040516020818303038152906040528051906020012060106111d360186000878152602001908152602001600020600501546126e4565b6040516020016111e4929190613923565b6040516020818303038152906040528051906020012014156112415760008381526018602052604090206005015461121b906126e4565b60405160200161122b9190613ac3565b60405160208183030381529060405290506112cf565b6012805461124e90614b6b565b80601f016020809104026020016040519081016040528092919081815260200182805461127a90614b6b565b80156112c75780601f1061129c576101008083540402835291602001916112c7565b820191906000526020600020905b8154815290600101906020018083116112aa57829003601f168201915b505050505090505b600083815260186020526040812060018101836112eb87612854565b6000888152601860205260409020600201546113119061130c906064614abd565b612854565b6000898152601860205260409020600201546113329061130c906064614abd565b60405160200161134796959493929190613954565b604051602081830303815290604052905060008161137a6018600088815260200190815260200160002060030154612854565b6000878152601860205260409020600681015460049091019061139c90612854565b6040516020016113af94939291906137aa565b60408051808303601f1901815291905295945050505050565b60135490565b6000818152600260205260408120546001600160a01b0316806107dd5760405162461bcd60e51b815260040161089e9061406b565b61140b61246a565b6001600160a01b031661141c611692565b6001600160a01b0316146114425760405162461bcd60e51b815260040161089e906143a3565b600f805461ff0019169055565b606061145a8261244d565b6114765760405162461bcd60e51b815260040161089e90614283565b6107dd8261296f565b61148761246a565b6001600160a01b0316611498611692565b6001600160a01b0316146114be5760405162461bcd60e51b815260040161089e906143a3565b60015b6114c9610be0565b811161152357826040516020016114e09190613662565b60408051601f198184030181529181526000838152601660209081529190208251611510939192909101906130ec565b508061151b81614ba6565b9150506114c1565b5080516109569060129060208401906130ec565b60606000611544836115f5565b905060008167ffffffffffffffff81111561156f57634e487b7160e01b600052604160045260246000fd5b604051908082528060200260200182016040528015611598578160200160208202803683370190505b50905060005b828110156115ed576115b08582610c6c565b8282815181106115d057634e487b7160e01b600052603260045260246000fd5b6020908102919091010152806115e581614ba6565b91505061159e565b509392505050565b60006001600160a01b03821661161d5760405162461bcd60e51b815260040161089e90613fae565b506001600160a01b031660009081526003602052604090205490565b61164161246a565b6001600160a01b0316611652611692565b6001600160a01b0316146116785760405162461bcd60e51b815260040161089e906143a3565b6116826000612a88565b565b600f54610100900460ff1690565b600b546001600160a01b031690565b6060600180546107f490614b6b565b6116b861246a565b6001600160a01b0316826001600160a01b031614156116e95760405162461bcd60e51b815260040161089e90613e52565b80600560006116f661246a565b6001600160a01b03908116825260208083019390935260409182016000908120918716808252919093529120805460ff19169215159290921790915561173a61246a565b6001600160a01b03167f17307eab39ab6107e8899845ad3d59bd9653f200f220920489ca2b5937696c31836040516117729190613bd8565b60405180910390a35050565b600e5490565b61178c61246a565b6001600160a01b031661179d611692565b6001600160a01b0316146117c35760405162461bcd60e51b815260040161089e906143a3565b6001600160a01b038216600090815260196020526040902060019081015460ff161515146118035760405162461bcd60e51b815260040161089e90614625565b6001600160a01b03821660009081526019602052604090206003015460ff1615156001146118435760405162461bcd60e51b815260040161089e90614102565b6001600160a01b03821660009081526019602052604090206002015461186a908290614a4a565b6001600160a01b0390921660009081526019602052604090206002019190915550565b61189561246a565b6001600160a01b03166118a6611692565b6001600160a01b0316146118cc5760405162461bcd60e51b815260040161089e906143a3565b600f805461ff001916610100179055565b6118ee6118e861246a565b83612532565b61190a5760405162461bcd60e51b815260040161089e90614798565b61191684848484612ada565b50505050565b80611926816113ce565b6001600160a01b031661193761246a565b6001600160a01b03161461195d5760405162461bcd60e51b815260040161089e90614541565b600061196883610877565b90506001600160a01b0381166119905760405162461bcd60e51b815260040161089e90613d48565b61199b6000846108c3565b7fb3c808f34460fc50f1b39b64cab5fa4805e255497b8e5a36dc1338cc836c7b7481846040516119cc929190613b7b565b60405180910390a1505050565b6001600160a01b031660009081526019602052604090206001015460ff1690565b600060196000601784604051611a109190613662565b9081526040805160209281900383019020546001600160a01b03168352908201929092520160002060019081015460ff16151514611a605760405162461bcd60e51b815260040161089e90614625565b601782604051611a709190613662565b908152604051908190036020019020546001600160a01b03169050919050565b6060611a9b8261244d565b611ab75760405162461bcd60e51b815260040161089e90614283565b606060166000848152602001908152602001600020604051602001611adc91906138de565b604051602081830303815290604052805190602001206010611b1360186000878152602001908152602001600020600501546126e4565b604051602001611b24929190613923565b604051602081830303815290604052805190602001201415611b555750604080516020810190915260008152611be3565b60118054611b6290614b6b565b80601f0160208091040260200160405190810160405280929190818152602001828054611b8e90614b6b565b8015611bdb5780601f10611bb057610100808354040283529160200191611bdb565b820191906000526020600020905b815481529060010190602001808311611bbe57829003601f168201915b505050505090505b6000838152601660205260408120611bfa85612854565b83604051602001611c0d939291906138ea565b60408051808303601f19018152919052949350505050565b60196000611c3161246a565b6001600160a01b0316815260208101919091526040016000206003015460ff161515600114611c725760405162461bcd60e51b815260040161089e90614139565b611c7a6110b5565b1515600114611c9b5760405162461bcd60e51b815260040161089e90613e89565b600085604051602001611cae9190613662565b60408051601f1981840301815291815281516020928301206000818152601590935290822054885191935060ff1691429080611cf588611cef816002614abd565b906124dc565b9150915060468a511115611d1b5760405162461bcd60e51b815260040161089e906141f1565b60a089511115611d3d5760405162461bcd60e51b815260040161089e9061465c565b60c88711158015611d4f575060028710155b611d6b5760405162461bcd60e51b815260040161089e90614906565b8760181480611d7a5750876023145b611d965760405162461bcd60e51b815260040161089e90614578565b8084148015611da757506001821515145b604051602001611db690613a9a565b60405160208183030381529060405290611de35760405162461bcd60e51b815260040161089e9190613be3565b508415611e025760405162461bcd60e51b815260040161089e906144e4565b6000611e0c610be0565b611e17906001614a4a565b90506001611e236110be565b1015611e9057600e543414611e4a5760405162461bcd60e51b815260040161089e9061493d565b611e52611692565b6001600160a01b03166108fc349081150290604051600060405180830381858888f19350505050158015611e8a573d6000803e3d6000fd5b50611f3f565b6001611e9a6110be565b10611f27573415611ebd5760405162461bcd60e51b815260040161089e9061493d565b600160196000611ecb61246a565b6001600160a01b03166001600160a01b0316815260200190815260200160002060020154611ef99190614b05565b60196000611f0561246a565b6001600160a01b03168152602081019190915260400160002060020155611f3f565b60405162461bcd60e51b815260040161089e906146c4565b611f50611f4a61246a565b82612b0d565b60008b8b611f5d8c612854565b611f668c612854565b611f6f89612854565b604051602001611f839594939291906136ad565b6040516020818303038152906040528051906020012090506010611fa6826126e4565b604051602001611fb7929190613923565b60408051601f198184030181529181526000848152601660209081529190208251611fe7939192909101906130ec565b506040518060e001604052808d81526020018c81526020018b81526020018a81526020016019600061201761246a565b6001600160a01b031681526020810191909152604001600020805461203b90614b6b565b80601f016020809104026020016040519081016040528092919081815260200182805461206790614b6b565b80156120b45780601f10612089576101008083540402835291602001916120b4565b820191906000526020600020905b81548152906001019060200180831161209757829003601f168201915b505050918352505060208082018490526040918201889052600085815260188252919091208251805191926120ee928492909101906130ec565b50602082810151805161210792600185019201906130ec565b506040820151600282015560608201516003820155608082015180516121379160048401916020909101906130ec565b5060a0820151600582015560c0909101516006909101556000888152601560205260409020805460ff1916600117905561216f61246a565b60176019600061217d61246a565b6001600160a01b03166001600160a01b031681526020019081526020016000206000016040516121ad91906138de565b90815260405190819003602001902080546001600160a01b03929092166001600160a01b03199092169190911790556121e6828e612b27565b7fdba27cc41959328cc6fe5221b4029ba4d7da3224919feab0fed994b1b5b5601e612210826126e4565b8387306040516122239493929190613bf6565b60405180910390a150505050505050505050505050565b61224261246a565b6001600160a01b0316612253611692565b6001600160a01b0316146122795760405162461bcd60e51b815260040161089e906143a3565b600f805460ff19169055565b60606122908261244d565b6122ac5760405162461bcd60e51b815260040161089e90614283565b60006040518060400160405280601781526020017f3c63616e7661732069643d224356222077696474683d22000000000000000000815250905060006040518060400160405280600c81526020016b181811103432b4b3b43a1e9160a11b815250905060006040518060e0016040528060bf8152602001614c2e60bf913990506000604051806110000160405280610fdd8152602001614ced610fdd91396000878152601860205260408120600201549192509061236990612854565b90506000858286848761237b8d61296f565b886040516020016123929796959493929190613718565b60408051808303601f1901815291905298975050505050505050565b6001600160a01b03918216600090815260056020908152604080832093909416825291909152205460ff1690565b6123e461246a565b6001600160a01b03166123f5611692565b6001600160a01b03161461241b5760405162461bcd60e51b815260040161089e906143a3565b6001600160a01b0381166124415760405162461bcd60e51b815260040161089e90613ccb565b61244a81612a88565b50565b6000908152600260205260409020546001600160a01b0316151590565b3390565b600081815260046020526040902080546001600160a01b0319166001600160a01b03841690811790915581906124a3826113ce565b6001600160a01b03167f8c5be1e5ebec7d5bd14f71427d1e84f3dd0314c0f7b2291e5b200ac8c7c3b92560405160405180910390a45050565b600080836124f0575060019050600061252b565b8383028385828161251157634e487b7160e01b600052601260045260246000fd5b041461252457600080925092505061252b565b6001925090505b9250929050565b600061253d8261244d565b6125595760405162461bcd60e51b815260040161089e90613f05565b6000612564836113ce565b9050806001600160a01b0316846001600160a01b0316148061259f5750836001600160a01b031661259484610877565b6001600160a01b0316145b806125af57506125af81856123ae565b949350505050565b826001600160a01b03166125ca826113ce565b6001600160a01b0316146125f05760405162461bcd60e51b815260040161089e9061444c565b6001600160a01b0382166126165760405162461bcd60e51b815260040161089e90613e0e565b612621838383612b6b565b61262c60008261246e565b6001600160a01b0383166000908152600360205260408120805460019290612655908490614b05565b90915550506001600160a01b0382166000908152600360205260408120805460019290612683908490614a4a565b909155505060008181526002602052604080822080546001600160a01b0319166001600160a01b0386811691821790925591518493918716917fddf252ad1be2c89b69c2b068fc378daa952ba7f163c4a11628f55a4df523b3ef91a4505050565b6040805181815260608181018352916000919060208201818036833701905050905060005b602081101561282b57600084826020811061273457634e487b7160e01b600052603260045260246000fd5b1a60f81b9050600060108260f81c61274c9190614a9b565b60f81b905060008160f81c60106127639190614adc565b8360f81c6127719190614b1c565b60f81b905061277f82612b76565b8561278b866002614abd565b815181106127a957634e487b7160e01b600052603260045260246000fd5b60200101906001600160f81b031916908160001a9053506127c981612b76565b856127d5866002614abd565b6127e0906001614a4a565b815181106127fe57634e487b7160e01b600052603260045260246000fd5b60200101906001600160f81b031916908160001a905350505050808061282390614ba6565b915050612709565b508060405160200161283d9190613a70565b604051602081830303815290604052915050919050565b60608161287957506040805180820190915260018152600360fc1b60208201526107e0565b8160005b81156128a3578061288d81614ba6565b915061289c9050600a83614a87565b915061287d565b60008167ffffffffffffffff8111156128cc57634e487b7160e01b600052604160045260246000fd5b6040519080825280601f01601f1916602001820160405280156128f6576020820181803683370190505b5090505b84156125af5761290b600183614b05565b9150612918600a86614bc1565b612923906030614a4a565b60f81b81838151811061294657634e487b7160e01b600052603260045260246000fd5b60200101906001600160f81b031916908160001a905350612968600a86614a87565b94506128fa565b606061297a8261244d565b6129965760405162461bcd60e51b815260040161089e90614283565b600082815260066020526040812080546129af90614b6b565b80601f01602080910402602001604051908101604052809291908181526020018280546129db90614b6b565b8015612a285780601f106129fd57610100808354040283529160200191612a28565b820191906000526020600020905b815481529060010190602001808311612a0b57829003601f168201915b505050505090506000612a39612bad565b9050805160001415612a4d575090506107e0565b815115612a7f578082604051602001612a6792919061367e565b604051602081830303815290604052925050506107e0565b6125af84612bbf565b600b80546001600160a01b038381166001600160a01b0319831681179093556040519116919082907f8be0079c531659141344cd1fd0a4f28419497f9722a3daafe3b4186f6b6457e090600090a35050565b612ae58484846125b7565b612af184848484612c32565b6119165760405162461bcd60e51b815260040161089e90613c79565b6110b1828260405180602001604052806000815250612d4d565b612b308261244d565b612b4c5760405162461bcd60e51b815260040161089e906140b4565b60008281526006602090815260409091208251610956928401906130ec565b610956838383612d80565b6000600a60f883901c1015612b9e57612b9460f883901c6030614a62565b60f81b90506107e0565b612b9460f883901c6057614a62565b60408051602081019091526000815290565b6060612bca8261244d565b612be65760405162461bcd60e51b815260040161089e90614495565b6000612bf0612bad565b90506000815111612c105760405180602001604052806000815250612c2b565b80612c1a84612854565b60405160200161283d92919061367e565b9392505050565b6000612c46846001600160a01b0316612e09565b15612d4257836001600160a01b031663150b7a02612c6261246a565b8786866040518563ffffffff1660e01b8152600401612c849493929190613b3e565b602060405180830381600087803b158015612c9e57600080fd5b505af1925050508015612cce575060408051601f3d908101601f19168201909252612ccb918101906133f6565b60015b612d28573d808015612cfc576040519150601f19603f3d011682016040523d82523d6000602084013e612d01565b606091505b508051612d205760405162461bcd60e51b815260040161089e90613c79565b805181602001fd5b6001600160e01b031916630a85bd0160e11b1490506125af565b506001949350505050565b612d578383612e0f565b612d646000848484612c32565b6109565760405162461bcd60e51b815260040161089e90613c79565b612d8b838383610956565b6001600160a01b038316612da757612da281612eee565b612dca565b816001600160a01b0316836001600160a01b031614612dca57612dca8382612f32565b6001600160a01b038216612de657612de181612fcf565b610956565b826001600160a01b0316826001600160a01b0316146109565761095682826130a8565b3b151590565b6001600160a01b038216612e355760405162461bcd60e51b815260040161089e9061424e565b612e3e8161244d565b15612e5b5760405162461bcd60e51b815260040161089e90613d11565b612e6760008383612b6b565b6001600160a01b0382166000908152600360205260408120805460019290612e90908490614a4a565b909155505060008181526002602052604080822080546001600160a01b0319166001600160a01b03861690811790915590518392907fddf252ad1be2c89b69c2b068fc378daa952ba7f163c4a11628f55a4df523b3ef908290a45050565b600980546000838152600a60205260408120829055600182018355919091527f6e1540171b6c0c960b71a7020d9f60077f6af931a8bbf590da0223dacf75c7af0155565b60006001612f3f846115f5565b612f499190614b05565b600083815260086020526040902054909150808214612f9c576001600160a01b03841660009081526007602090815260408083208584528252808320548484528184208190558352600890915290208190555b5060009182526008602090815260408084208490556001600160a01b039094168352600781528383209183525290812055565b600954600090612fe190600190614b05565b6000838152600a60205260408120546009805493945090928490811061301757634e487b7160e01b600052603260045260246000fd5b90600052602060002001549050806009838154811061304657634e487b7160e01b600052603260045260246000fd5b6000918252602080832090910192909255828152600a9091526040808220849055858252812055600980548061308c57634e487b7160e01b600052603160045260246000fd5b6001900381819060005260206000200160009055905550505050565b60006130b3836115f5565b6001600160a01b039093166000908152600760209081526040808320868452825280832085905593825260089052919091209190915550565b8280546130f890614b6b565b90600052602060002090601f01602090048101928261311a5760008555613160565b82601f1061313357805160ff1916838001178555613160565b82800160010185558215613160579182015b82811115613160578251825591602001919060010190613145565b5061316c929150613170565b5090565b5b8082111561316c5760008155600101613171565b600067ffffffffffffffff808411156131a0576131a0614c01565b604051601f8501601f1916810160200182811182821017156131c4576131c4614c01565b6040528481529150818385018610156131dc57600080fd5b8484602083013760006020868301015250509392505050565b80356001600160a01b03811681146107e057600080fd5b600082601f83011261321c578081fd5b612c2b83833560208501613185565b60006020828403121561323c578081fd5b612c2b826131f5565b60008060408385031215613257578081fd5b613260836131f5565b915061326e602084016131f5565b90509250929050565b60008060006060848603121561328b578081fd5b613294846131f5565b92506132a2602085016131f5565b9150604084013590509250925092565b600080600080608085870312156132c7578081fd5b6132d0856131f5565b93506132de602086016131f5565b925060408501359150606085013567ffffffffffffffff811115613300578182fd5b8501601f81018713613310578182fd5b61331f87823560208401613185565b91505092959194509250565b6000806040838503121561333d578182fd5b613346836131f5565b91506020830135801515811461335a578182fd5b809150509250929050565b60008060408385031215613377578182fd5b613380836131f5565b9150602083013567ffffffffffffffff81111561339b578182fd5b6133a78582860161320c565b9150509250929050565b600080604083850312156133c3578182fd5b6133cc836131f5565b946020939093013593505050565b6000602082840312156133eb578081fd5b8135612c2b81614c17565b600060208284031215613407578081fd5b8151612c2b81614c17565b600060208284031215613423578081fd5b813567ffffffffffffffff811115613439578182fd5b6125af8482850161320c565b60008060408385031215613457578182fd5b823567ffffffffffffffff8082111561346e578384fd5b61347a8683870161320c565b9350602085013591508082111561348f578283fd5b506133a78582860161320c565b600080600080600060a086880312156134b3578081fd5b853567ffffffffffffffff808211156134ca578283fd5b6134d689838a0161320c565b965060208801359150808211156134eb578283fd5b6134f789838a0161320c565b9550604088013591508082111561350c578283fd5b506135198882890161320c565b9598949750949560608101359550608001359392505050565b600060208284031215613543578081fd5b5035919050565b60008151808452613562816020860160208601614b3f565b601f01601f19169290920160200192915050565b60008151613588818560208601614b3f565b9290920192915050565b8054600090600281046001808316806135ac57607f831692505b60208084108214156135cc57634e487b7160e01b86526022600452602486fd5b8180156135e057600181146135f15761361e565b60ff1986168952848901965061361e565b6135fa88614a3e565b60005b868110156136165781548b8201529085019083016135fd565b505084890196505b50505050505092915050565b62089f4b60ea1b815260030190565b62227d5d60e81b815260030190565b600f60fb1b815260010190565b607d60f81b815260010190565b60008251613674818460208701614b3f565b9190910192915050565b60008351613690818460208801614b3f565b8351908301906136a4818360208801614b3f565b01949350505050565b600086516136bf818460208b01614b3f565b8651908301906136d3818360208b01614b3f565b86519101906136e6818360208a01614b3f565b85519101906136f9818360208901614b3f565b845191019061370c818360208801614b3f565b01979650505050505050565b60008851602061372b8285838e01614b3f565b89519184019161373e8184848e01614b3f565b89519201916137508184848d01614b3f565b88519201916137628184848c01614b3f565b87519201916137748184848b01614b3f565b86519201916137868184848a01614b3f565b85519201916137988184848901614b3f565b919091019a9950505050505050505050565b600085516137bc818460208a01614b3f565b80830190507f7b2274726169745f74797065223a2022436f6c6f727320416d6f756e74222c20815269113b30b63ab2911d101160b11b806020830152865161380b81602a850160208b01614b3f565b62089f4b60ea1b9201602a81018390527f7b2274726169745f74797065223a202243727970746f20417274697374222c20602d820152604d8101829052916138566057840188613592565b925080835250507f7b22646973706c61795f74797065223a202264617465222c202274726169745f60038201527f74797065223a20226269727468646179222c202276616c7565223a2200000000602382015283516138bc81603f840160208801614b3f565b6138d26138cd603f83850101613639565b613655565b98975050505050505050565b6000612c2b8284613592565b60006138f68286613592565b8451613906818360208901614b3f565b8451910190613919818360208801614b3f565b0195945050505050565b600061392f8285613592565b835161393f818360208801614b3f565b602f60f81b9101908152600101949350505050565b683d913730b6b2911d1160b91b815260006139726009830189613592565b61088b60f21b8082526e113232b9b1b934b83a34b7b7111d1160891b60028301526139a0601183018a613592565b818152681134b6b0b3b2911d1160b91b600282015288519092506139cb81600b850160208c01614b3f565b87519201916139e181600b850160208b01614b3f565b632e706e6760e01b600b9390910192830152600f8201527f2261747472696275746573223a205b7b2274726169745f74797065223a20225260118201527532b9b7b63aba34b7b7111610113b30b63ab2911d101160511b6031820152613a63613a5e613a58613a536047850189613576565b613648565b86613576565b61362a565b9998505050505050505050565b600061060f60f31b82528251613a8d816002850160208701614b3f565b9190910160020192915050565b7f54686520706978656c7320617265206e6f7420636f72726563740000000000008152601a0190565b60007f68747470733a2f2f6e66746c6174696e6f616d65726963612e636f6d2f6d657482526d612d646174612f696d616765732f60901b60208301528251613b1281602e850160208701614b3f565b602f60f81b602e939091019283015250602f01919050565b6001600160a01b0391909116815260200190565b6001600160a01b0385811682528416602082015260408101839052608060608201819052600090613b719083018461354a565b9695505050505050565b6001600160a01b03929092168252602082015260400190565b6020808252825182820181905260009190848201906040850190845b81811015613bcc57835183529284019291840191600101613bb0565b50909695505050505050565b901515815260200190565b600060208252612c2b602083018461354a565b600060808252613c09608083018761354a565b60208301959095525060408101929092526001600160a01b0316606090910152919050565b6020808252602b908201527f455243373231456e756d657261626c653a206f776e657220696e646578206f7560408201526a74206f6620626f756e647360a81b606082015260800190565b60208082526032908201527f4552433732313a207472616e7366657220746f206e6f6e20455243373231526560408201527131b2b4bb32b91034b6b83632b6b2b73a32b960711b606082015260800190565b60208082526026908201527f4f776e61626c653a206e6577206f776e657220697320746865207a65726f206160408201526564647265737360d01b606082015260800190565b6020808252601c908201527f4552433732313a20746f6b656e20616c7265616479206d696e74656400000000604082015260600190565b60208082526031908201527f596f7572204e465420686164206e6f74206265656e20617070726f76656420626040820152701e48185b9bdd1a195c881858d8dbdd5b9d607a1b606082015260800190565b6020808252604f908201527f596f7572204172746973746963206e616d6520697320746f6f2073686f72742c60408201527f20757020746f20323020616e64206d6f7265207468616e20312063686172616360608201526e1d195c9cc81a5cc8185b1b1bddd959608a1b608082015260a00190565b60208082526024908201527f4552433732313a207472616e7366657220746f20746865207a65726f206164646040820152637265737360e01b606082015260800190565b60208082526019908201527f4552433732313a20617070726f766520746f2063616c6c657200000000000000604082015260600190565b60208082526056908201527f546865206d696e74696e67206973207061757365642c207374617920616c657260408201527f7420696e206f757220736f6369616c206d6564696120746f206b6e6f77207768606082015275195b881dd9481dda5b1b081858dd1a5d985d19481a5d60521b608082015260a00190565b6020808252602c908201527f4552433732313a206f70657261746f7220717565727920666f72206e6f6e657860408201526b34b9ba32b73a103a37b5b2b760a11b606082015260800190565b60208082526038908201527f4552433732313a20617070726f76652063616c6c6572206973206e6f74206f7760408201527f6e6572206e6f7220617070726f76656420666f7220616c6c0000000000000000606082015260800190565b6020808252602a908201527f4552433732313a2062616c616e636520717565727920666f7220746865207a65604082015269726f206164647265737360b01b606082015260800190565b6020808252604d908201527f546865204172746973746963206e616d6520697320746f6f206c6f6e672c207560408201527f7020746f20323020616e64206d6f7265207468616e203120636861726163746560608201526c1c9cc81a5cc8185b1b1bddd959609a1b608082015260a00190565b60208082526029908201527f4552433732313a206f776e657220717565727920666f72206e6f6e657869737460408201526832b73a103a37b5b2b760b91b606082015260800190565b6020808252602e908201527f45524337323155524953746f726167653a2055524920736574206f66206e6f6e60408201526d32bc34b9ba32b73a103a37b5b2b760911b606082015260800190565b60208082526019908201527f5468697320417274697374206973206e6f742041637469766500000000000000604082015260600190565b60208082526086908201527f4f6e6c79205265676973746572656420616e642041637469766174656420757360408201527f6572732063616e206d696e7420696e204e46544c6174696e6f416d657269636160608201527f20436f6c6c656374696f6e2c20696620796f7520617265206e6f74207265676960808201527f73746572656420476f20746f203c7374726f6e673e52656769737465723c2f7360a0820152653a3937b7339f60d11b60c082015260e00190565b6020808252603a908201527f546865206368617261637465727320616d6f756e7420696e20746865206e616d60408201527f65206e6565647320746f206265206c657373207468616e203730000000000000606082015260800190565b6020808252818101527f4552433732313a206d696e7420746f20746865207a65726f2061646472657373604082015260600190565b60208082526031908201527f45524337323155524953746f726167653a2055524920717565727920666f72206040820152703737b732bc34b9ba32b73a103a37b5b2b760791b606082015260800190565b6020808252602c908201527f4552433732313a20617070726f76656420717565727920666f72206e6f6e657860408201526b34b9ba32b73a103a37b5b2b760a11b606082015260800190565b6020808252605f908201527f5468652052656769737465722070726f63657373206973207061757365642c2060408201527f7374617920616c65727420696e206f757220736f6369616c206d65646961207460608201527f6f206b6e6f77207768656e2077652077696c6c20616374697661746520697400608082015260a00190565b6020808252818101527f4f776e61626c653a2063616c6c6572206973206e6f7420746865206f776e6572604082015260600190565b6020808252604e908201527f596f7572204172746973746963206e616d6520697320746f6f206c6f6e672c2060408201527f757020746f20323020616e64206d6f7265207468616e2031206368617261637460608201526d195c9cc81a5cc8185b1b1bddd95960921b608082015260a00190565b60208082526029908201527f4552433732313a207472616e73666572206f6620746f6b656e2074686174206960408201526839903737ba1037bbb760b91b606082015260800190565b6020808252602f908201527f4552433732314d657461646174613a2055524920717565727920666f72206e6f60408201526e3732bc34b9ba32b73a103a37b5b2b760891b606082015260800190565b60208082526037908201527f546865204e465420796f752061726520747279696e6720746f206d696e65206860408201527f617320616c7265616479206265656e2063726561746564000000000000000000606082015260800190565b6020808252601b908201527f43616c6c6572206973206e6f7420746865204e4654206f776e65720000000000604082015260600190565b60208082526046908201527f496e636f7272656374205265736f6c7574696f6e2c20796f75206d757374206360408201527f726561746520796f7572204e465420696e204e46544c6174696e6f416d65726960608201526563612e636f6d60d01b608082015260a00190565b60208082526021908201527f4552433732313a20617070726f76616c20746f2063757272656e74206f776e656040820152603960f91b606082015260800190565b6020808252601d908201527f5468697320417274697374206973206e6f742052656769737465726564000000604082015260600190565b60208082526042908201527f546865206368617261637465727320616d6f756e7420696e207468652064657360408201527f6372697074696f6e206e6565647320746f206265206c657373207468616e2031606082015261036360f41b608082015260a00190565b60208082526031908201527f4572726f7220747279696e6720746f2072656164207468652066726565206d696040820152706e74206e66747320696e76656e746f727960781b606082015260800190565b6020808252605e908201527f5468652061727469737469634e616d65207468617420796f752061726520747260408201527f79696e6720746f207265676973746572206973206e6f7420617661696c61626c60608201527f652c20506c6561736520747279207769746820616e6f74686572206f6e650000608082015260a00190565b60208082526031908201527f4552433732313a207472616e736665722063616c6c6572206973206e6f74206f6040820152701ddb995c881b9bdc88185c1c1c9bdd9959607a1b606082015260800190565b60208082526039908201527f596f752068616420616c7265616479207265676973746572656420696e204e4660408201527f544c6174696e6f416d657269636120436f6c6c656374696f6e00000000000000606082015260800190565b6020808252602c908201527f455243373231456e756d657261626c653a20676c6f62616c20696e646578206f60408201526b7574206f6620626f756e647360a01b606082015260800190565b6020808252604e908201527f546865204172746973746963206e616d6520697320746f6f2073686f72742c2060408201527f757020746f20323020616e64206d6f7265207468616e2031206368617261637460608201526d195c9cc81a5cc8185b1b1bddd95960921b608082015260a00190565b60208082526017908201527f496e636f727265637420436f6c6f727320416d6f756e74000000000000000000604082015260600190565b60208082526028908201527f506c656173652073656e642074686520636f727265637420616d6f756e74206f60408201526766204d415449437360c01b606082015260800190565b60208082526029908201527f496e76616c69642041726974686d657469632c20656e746572206120636f727260408201526865637420707269636560b81b606082015260800190565b60208082526041908201527f54686973206164647265737320697320616c726561647920726567697374657260408201527f656420696e204e46544c6174696e6f416d657269636120436f6c6c656374696f6060820152603760f91b608082015260a00190565b90815260200190565b60009081526020902090565b60008219821115614a5d57614a5d614bd5565b500190565b600060ff821660ff84168060ff03821115614a7f57614a7f614bd5565b019392505050565b600082614a9657614a96614beb565b500490565b600060ff831680614aae57614aae614beb565b8060ff84160491505092915050565b6000816000190483118215151615614ad757614ad7614bd5565b500290565b600060ff821660ff84168160ff0481118215151615614afd57614afd614bd5565b029392505050565b600082821015614b1757614b17614bd5565b500390565b600060ff821660ff841680821015614b3657614b36614bd5565b90039392505050565b60005b83811015614b5a578181015183820152602001614b42565b838111156119165750506000910152565b600281046001821680614b7f57607f821691505b60208210811415614ba057634e487b7160e01b600052602260045260246000fd5b50919050565b6000600019821415614bba57614bba614bd5565b5060010190565b600082614bd057614bd0614beb565b500690565b634e487b7160e01b600052601160045260246000fd5b634e487b7160e01b600052601260045260246000fd5b634e487b7160e01b600052604160045260246000fd5b6001600160e01b03198116811461244a57600080fdfe303022207374796c653d2277696474683a2035303070783b6d617267696e3a2030206175746f3b646973706c61793a20666c65783b223e3c2f63616e7661733e3c7363726970743e7661722063763d646f63756d656e742e676574456c656d656e74427949642822435622292c7265733d7061727365496e742863762e617474726962757465735b315d2e76616c7565292f3130302c6374783d63762e676574436f6e746578742822326422292c63773d63762e77696474682c4e46543d22222c6d74783d2265794a4251534936496d59355a574a6c59534973496b4643496a6f695a6a4a6b4e3251314969776951554d694f694a6c4e6d4977595745694c434a4252434936496d51354f4467344d434973496b4646496a6f69593251324d54553149697769515559694f694a6a4d444d354d6d49694c434a4252794936496d45354d7a49794e694973496b4649496a6f694f544979596a49784969776951556b694f694933596a49304d574d694c434a4253694936496a59304d5755784e694973496b4a42496a6f695a6d526c5a47566a49697769516b49694f694a6d595752695a4467694c434a4351794936496d5931596a64694d534973496b4a45496a6f695a6a45354e44686849697769516b55694f694a6c597a63774e6a4d694c434a4352694936496d55334e474d7a59794973496b4a48496a6f69593249304d7a4d3149697769516b67694f694a694d444e684d6d55694c434a4353534936496a6b304d7a45794e694973496b4a4b496a6f694e7a67794f44466d49697769513045694f694a6d4e57566c5a6a67694c434a4451694936496d56695a47566d4d434973496b4e44496a6f695a4464695a47557949697769513051694f694a6a4d7a6c695a444d694c434a4452534936496d466d4e32466a4e534973496b4e47496a6f694f5749314f57493249697769513063694f6949344f44526c595441694c434a4453434936496a63324e44513459534973496b4e4a496a6f694e6a4d7a4f5463304969776951306f694f6949314d544a6c4e5759694c434a4551534936496d59305a574e6d4e794973496b5243496a6f695a54686b5957566d4969776952454d694f694a6b4d6d49305a4755694c434a4552434936496d4a694f475a6a5a534973496b5246496a6f69595455324f574a6b49697769524559694f6949345a545130595751694c434a4552794936496a646b4d324d354f434973496b5249496a6f694e6d4d7a4e44677a4969776952456b694f694931596a4a6a4e6d59694c434a4553694936496a52684d6a4d3159534973496b5642496a6f695a57466d4d6d593449697769525549694f694a6b4e4755325a6a45694c434a4651794936496d453559324e6c4d794973496b5645496a6f694e325a694d32513149697769525555694f6949314e446b35597a63694c434a4652694936496a49354f4442694f534973496b5648496a6f694d6a51334d57457a49697769525567694f6949785a6a59784f4751694c434a4653534936496a46684e5449334e694973496b564b496a6f694d5455304d7a597749697769526b45694f694a6c596d59315a6d49694c434a4751694936496d51325a57466d4f434973496b5a44496a6f695957566b4e6d597849697769526b51694f6949344e574d785a546b694c434a4752534936496a566b5957526c4d694973496b5a47496a6f694d7a51354f47526949697769526b63694f6949795a546732597a45694c434a4753434936496a49344e7a52684e694973496b5a4a496a6f694d6a45324d54686a49697769526b6f694f694978596a526d4e7a49694c434a4851534936496d55345a6a686d4e534973496b6443496a6f695a44466d4d6d56694969776952304d694f694a684d3255305a4463694c434a4852434936496a63325a44646a4e434973496b6446496a6f694e44686a4f57497749697769523059694f69497859574a6a4f574d694c434a4852794936496a4533595455344f534973496b6449496a6f694d5451345a6a63334969776952306b694f6949784d5463344e6a51694c434a4853694936496a426c4e6a49314d534973496b6842496a6f695a54686d4e6d597a49697769534549694f694a6b4d47566a5a5463694c434a4951794936496d45795a446c6a5a534973496b6845496a6f694e7a4e6a4e6d493249697769534555694f6949304e57497a4f5751694c434a4952694936496a4532595441344e534973496b6848496a6f694d544d345a44633149697769534567694f6949784d5464684e6a55694c434a4953534936496a426c4e6a59314e534973496b684b496a6f694d4749314d7a513149697769535545694f694a6c4f5759335a5759694c434a4a51694936496d51305a575a6b5a694973496b6c44496a6f6959546c6b5a6d4a6d49697769535551694f6949335a474e6c595441694c434a4a52534936496a5579596d55344d434973496b6c47496a6f694d6a64685a54597749697769535563694f6949794d6a6b354e5451694c434a4a53434936496a466c4f4451304f534973496b6c4a496a6f694d546b325a6a4e6b4969776953556f694f6949784e4456684d7a49694c434a4b51534936496d56685a6d466d4d534973496b7043496a6f695a44566d4e57557a49697769536b4d694f694a68596d5669597a59694c434a4b52434936496a67795a54426859534973496b7046496a6f694e54686b4e6a686b49697769536b59694f6949795a574e6a4e7a45694c434a4b52794936496a4934596a51324d794973496b7049496a6f694d6a4d35596a553249697769536b6b694f6949785a44677a4e4467694c434a4b53694936496a45344e6d457a59694973496b7442496a6f695a6d566d4f57553349697769533049694f694a6d5932597a593259694c434a4c51794936496d59355a5463355a694973496b7445496a6f695a6a646b597a5a6d49697769533055694f694a6d4e4751774d3259694c434a4c52694936496d5978597a51775a694973496b7448496a6f695a445268597a426b49697769533067694f694a694e7a6b314d4749694c434a4c53534936496a6c684e32517759534973496b744b496a6f694e3251324e6a413449697769544545694f694a6d5a5759315a5463694c434a4d51694936496d5a6b5a574a6b4d434973496b7844496a6f695a6d466b4e32457749697769544551694f694a6d4f474d304e7a45694c434a4d52534936496d5931596a41304d534973496b7847496a6f695a6a4d35597a457949697769544563694f694a6b4e6a67354d5441694c434a4d53434936496d49354e7a63775a534973496b784a496a6f694f574d324e44426a4969776954456f694f6949335a5455784d446b694c434a4e51534936496d5a6b5a6a4a6c4f534973496b3143496a6f695a6d466c4e57517a4969776954554d694f694a6d4e574e69595463694c434a4e52434936496d5977596a493359534973496b3146496a6f695a5749354f44526c49697769545559694f694a6c4e6a646c4d6a49694c434a4e52794936496d4e684e6d59785a534973496b3149496a6f69595759324d4446684969776954556b694f6949354d7a55784d5459694c434a4e53694936496a63344e4449784d694973496b3542496a6f695a6d4a6c5a57553249697769546b49694f694a6d4e6d526b59324d694c434a4f51794936496d566b596d49354f534973496b3545496a6f695a5455354f44593249697769546b55694f694a6b597a63324d7a4d694c434a4f52694936496d517a4e5451774d434973496b3548496a6f69596d45305954417749697769546b67694f694a684d4451774d4441694c434a4f53534936496a67334d7a59774d434973496b354b496a6f694e6d5579597a417749697769543045694f694a6d5a475a6c5a6d55694c434a5051694936496d5a695a6d4e6d59794973496b3944496a6f695a6a646d4f57593549697769543051694f694a6d4e4759325a6a63694c434a5052534936496d59775a6a4e6d4e434973496b3947496a6f695a574e6d4d47597849697769543063694f694a6b4d47517a5a4451694c434a5053434936496d497a596a5a694e794973496b394a496a6f694f54633559546c684969776954306f694f694933596a646b4e3251694c434a5151534936496d59345a6a6c6d4f534973496c4243496a6f695a6a4a6d4d3259304969776955454d694f694a6c4e5755335a546b694c434a5152434936496d51335a474a6b5a434973496c4246496a6f695932466a5a6d517949697769554559694f694a695a474d7a597a63694c434a5152794936496d453259574e685a694973496c4249496a6f694f5441354e446b334969776955456b694f6949334f54646b4e3259694c434a5153694936496a59794e6a55324e794973496c4642496a6f695a6a526d4e6d593249697769555549694f694a6c5957566b5a5751694c434a5251794936496d51315a474a6b59694973496c4645496a6f69596d5a6a4f574e6849697769555555694f694a6859574933596a67694c434a5252694936496a6b31595456684e694973496c4648496a6f694f444d354d546b7949697769555567694f6949334d54646b4e3255694c434a5253534936496a566d4e6d453259534973496c464b496a6f694e4751314e6a553249697769556b45694f694a6d4d6d59305a6a51694c434a5351694936496d55315a54686c4f434973496c4a44496a6f6959324e6b4d57517849697769556b51694f694a694d6d4a68596d49694c434a5352534936496a6b3559544e684e434973496c4a47496a6f694e325934597a686b49697769556b63694f6949334d4464694e324d694c434a5353434936496a59784e6d453259694973496c4a4a496a6f694e5445315954566849697769556b6f694f6949304d6a51354e446b694c434a5451534936496d56695a57526c5a694973496c4e43496a6f695a445a6b596d526d4969776955304d694f694a685a574932596d59694c434a5452434936496a67314f5449355a534973496c4e46496a6f694e5751325a44646c49697769553059694f69497a4e4451354e5755694c434a5452794936496a4a6c4e4441314d794973496c4e49496a6f694d6a677a4e7a51334969776955306b694f6949794d544a6d4d324d694c434a5453694936496a46694d6a597a4d534973496c5242496a6f695a57466c5932566c49697769564549694f694a6b4e5751345a474d694c434a5551794936496d4669596a4a694f534973496c5245496a6f694f444134596a6b3249697769564555694f6949314e6a59314e7a4d694c434a5552694936496a4a6a4d3255314d434973496c5248496a6f694d6a637a4e7a513249697769564567694f6949794d544a6d4d3251694c434a5553534936496a466a4d6a677a4d794973496c524b496a6f694d5463794d444a68496e30222c6d78643d4a534f4e2e70617273652861746f6228756e65736361706528656e636f6465555249436f6d706f6e656e74286d7478292929292c63683d63762e6865696768742c6770783d6374782e676574496d6167654461746128302c302c7265732c726573292c636e743d302c636c733d22222c633d302c793d302c783d303b666f72286c657420493d303b493c4e46542e6c656e6774683b492b2b297b636f6e737420693d4e46545b495d3b636e743c32262628636c732b3d692c636e742b2b292c323d3d3d636e742626286374782e66696c6c5374796c653d2223222b6d78645b636c735d2c6374782e66696c6c5265637428782c792c3130302c313030292c783d3d3d3130302a7265732d3130303f28783d302c792b3d313030293a782b3d3130302c636c733d22222c636e743d30297d3c2f7363726970743ea26469706673582212202e44ccdef2d11a9e34a337f41014de9362eeb2645425d0c2c70df4155eaf4efd64736f6c6343000800003368747470733a2f2f6e66746c6174696e6f616d65726963612e636f6d2f6d6574612d646174612f646174612f",
			"opcodes": "PUSH8 0xDE0B6B3A7640000 PUSH1 0xE SSTORE PUSH1 0xE0 PUSH1 0x40 MSTORE PUSH1 0x2C PUSH1 0x80 DUP2 DUP2 MSTORE SWAP1 PUSH3 0x60B1 PUSH1 0xA0 CODECOPY DUP1 MLOAD PUSH3 0x35 SWAP2 PUSH1 0x10 SWAP2 PUSH1 0x20 SWAP1 SWAP2 ADD SWAP1 PUSH3 0x197 JUMP JUMPDEST POP PUSH1 0x40 DUP1 MLOAD DUP1 DUP3 ADD SWAP1 SWAP2 MSTORE PUSH1 0x5 DUP1 DUP3 MSTORE PUSH5 0x173539B7B7 PUSH1 0xD9 SHL PUSH1 0x20 SWAP1 SWAP3 ADD SWAP2 DUP3 MSTORE PUSH3 0x64 SWAP2 PUSH1 0x11 SWAP2 PUSH3 0x197 JUMP JUMPDEST POP PUSH1 0x40 DUP1 MLOAD PUSH1 0x20 DUP2 ADD SWAP2 DUP3 SWAP1 MSTORE PUSH1 0x0 SWAP1 DUP2 SWAP1 MSTORE PUSH3 0x85 SWAP2 PUSH1 0x12 SWAP2 PUSH3 0x197 JUMP JUMPDEST POP CALLVALUE DUP1 ISZERO PUSH3 0x93 JUMPI PUSH1 0x0 DUP1 REVERT JUMPDEST POP PUSH1 0x40 MLOAD PUSH3 0x60DD CODESIZE SUB DUP1 PUSH3 0x60DD DUP4 CODECOPY DUP2 ADD PUSH1 0x40 DUP2 SWAP1 MSTORE PUSH3 0xB6 SWAP2 PUSH3 0x2E8 JUMP JUMPDEST DUP2 MLOAD DUP3 SWAP1 DUP3 SWAP1 PUSH3 0xCF SWAP1 PUSH1 0x0 SWAP1 PUSH1 0x20 DUP6 ADD SWAP1 PUSH3 0x197 JUMP JUMPDEST POP DUP1 MLOAD PUSH3 0xE5 SWAP1 PUSH1 0x1 SWAP1 PUSH1 0x20 DUP5 ADD SWAP1 PUSH3 0x197 JUMP JUMPDEST POP POP POP PUSH3 0x102 PUSH3 0xFC PUSH3 0x141 PUSH1 0x20 SHL PUSH1 0x20 SHR JUMP JUMPDEST PUSH3 0x145 JUMP JUMPDEST DUP2 MLOAD PUSH3 0x117 SWAP1 PUSH1 0xC SWAP1 PUSH1 0x20 DUP6 ADD SWAP1 PUSH3 0x197 JUMP JUMPDEST POP DUP1 MLOAD PUSH3 0x12D SWAP1 PUSH1 0xD SWAP1 PUSH1 0x20 DUP5 ADD SWAP1 PUSH3 0x197 JUMP JUMPDEST POP POP PUSH1 0xF DUP1 SLOAD PUSH2 0xFFFF NOT AND SWAP1 SSTORE POP PUSH3 0x3A2 JUMP JUMPDEST CALLER SWAP1 JUMP JUMPDEST PUSH1 0xB DUP1 SLOAD PUSH1 0x1 PUSH1 0x1 PUSH1 0xA0 SHL SUB DUP4 DUP2 AND PUSH1 0x1 PUSH1 0x1 PUSH1 0xA0 SHL SUB NOT DUP4 AND DUP2 OR SWAP1 SWAP4 SSTORE PUSH1 0x40 MLOAD SWAP2 AND SWAP2 SWAP1 DUP3 SWAP1 PUSH32 0x8BE0079C531659141344CD1FD0A4F28419497F9722A3DAAFE3B4186F6B6457E0 SWAP1 PUSH1 0x0 SWAP1 LOG3 POP POP JUMP JUMPDEST DUP3 DUP1 SLOAD PUSH3 0x1A5 SWAP1 PUSH3 0x34F JUMP JUMPDEST SWAP1 PUSH1 0x0 MSTORE PUSH1 0x20 PUSH1 0x0 KECCAK256 SWAP1 PUSH1 0x1F ADD PUSH1 0x20 SWAP1 DIV DUP2 ADD SWAP3 DUP3 PUSH3 0x1C9 JUMPI PUSH1 0x0 DUP6 SSTORE PUSH3 0x214 JUMP JUMPDEST DUP3 PUSH1 0x1F LT PUSH3 0x1E4 JUMPI DUP1 MLOAD PUSH1 0xFF NOT AND DUP4 DUP1 ADD OR DUP6 SSTORE PUSH3 0x214 JUMP JUMPDEST DUP3 DUP1 ADD PUSH1 0x1 ADD DUP6 SSTORE DUP3 ISZERO PUSH3 0x214 JUMPI SWAP2 DUP3 ADD JUMPDEST DUP3 DUP2 GT ISZERO PUSH3 0x214 JUMPI DUP3 MLOAD DUP3 SSTORE SWAP2 PUSH1 0x20 ADD SWAP2 SWAP1 PUSH1 0x1 ADD SWAP1 PUSH3 0x1F7 JUMP JUMPDEST POP PUSH3 0x222 SWAP3 SWAP2 POP PUSH3 0x226 JUMP JUMPDEST POP SWAP1 JUMP JUMPDEST JUMPDEST DUP1 DUP3 GT ISZERO PUSH3 0x222 JUMPI PUSH1 0x0 DUP2 SSTORE PUSH1 0x1 ADD PUSH3 0x227 JUMP JUMPDEST PUSH1 0x0 DUP3 PUSH1 0x1F DUP4 ADD SLT PUSH3 0x24E JUMPI DUP1 DUP2 REVERT JUMPDEST DUP2 MLOAD PUSH1 0x1 PUSH1 0x1 PUSH1 0x40 SHL SUB DUP1 DUP3 GT ISZERO PUSH3 0x26B JUMPI PUSH3 0x26B PUSH3 0x38C JUMP JUMPDEST PUSH1 0x40 MLOAD PUSH1 0x20 PUSH1 0x1F DUP5 ADD PUSH1 0x1F NOT AND DUP3 ADD DUP2 ADD DUP4 DUP2 GT DUP4 DUP3 LT OR ISZERO PUSH3 0x293 JUMPI PUSH3 0x293 PUSH3 0x38C JUMP JUMPDEST PUSH1 0x40 MSTORE DUP4 DUP3 MSTORE DUP6 DUP5 ADD DUP2 ADD DUP8 LT ISZERO PUSH3 0x2AA JUMPI DUP5 DUP6 REVERT JUMPDEST DUP5 SWAP3 POP JUMPDEST DUP4 DUP4 LT ISZERO PUSH3 0x2CD JUMPI DUP6 DUP4 ADD DUP2 ADD MLOAD DUP3 DUP5 ADD DUP3 ADD MSTORE SWAP2 DUP3 ADD SWAP2 PUSH3 0x2AE JUMP JUMPDEST DUP4 DUP4 GT ISZERO PUSH3 0x2DE JUMPI DUP5 DUP2 DUP6 DUP5 ADD ADD MSTORE JUMPDEST POP SWAP6 SWAP5 POP POP POP POP POP JUMP JUMPDEST PUSH1 0x0 DUP1 PUSH1 0x40 DUP4 DUP6 SUB SLT ISZERO PUSH3 0x2FB JUMPI DUP2 DUP3 REVERT JUMPDEST DUP3 MLOAD PUSH1 0x1 PUSH1 0x1 PUSH1 0x40 SHL SUB DUP1 DUP3 GT ISZERO PUSH3 0x312 JUMPI DUP4 DUP5 REVERT JUMPDEST PUSH3 0x320 DUP7 DUP4 DUP8 ADD PUSH3 0x23D JUMP JUMPDEST SWAP4 POP PUSH1 0x20 DUP6 ADD MLOAD SWAP2 POP DUP1 DUP3 GT ISZERO PUSH3 0x336 JUMPI DUP3 DUP4 REVERT JUMPDEST POP PUSH3 0x345 DUP6 DUP3 DUP7 ADD PUSH3 0x23D JUMP JUMPDEST SWAP2 POP POP SWAP3 POP SWAP3 SWAP1 POP JUMP JUMPDEST PUSH1 0x2 DUP2 DIV PUSH1 0x1 DUP3 AND DUP1 PUSH3 0x364 JUMPI PUSH1 0x7F DUP3 AND SWAP2 POP JUMPDEST PUSH1 0x20 DUP3 LT DUP2 EQ ISZERO PUSH3 0x386 JUMPI PUSH4 0x4E487B71 PUSH1 0xE0 SHL PUSH1 0x0 MSTORE PUSH1 0x22 PUSH1 0x4 MSTORE PUSH1 0x24 PUSH1 0x0 REVERT JUMPDEST POP SWAP2 SWAP1 POP JUMP JUMPDEST PUSH4 0x4E487B71 PUSH1 0xE0 SHL PUSH1 0x0 MSTORE PUSH1 0x41 PUSH1 0x4 MSTORE PUSH1 0x24 PUSH1 0x0 REVERT JUMPDEST PUSH2 0x5CFF DUP1 PUSH3 0x3B2 PUSH1 0x0 CODECOPY PUSH1 0x0 RETURN INVALID PUSH1 0x80 PUSH1 0x40 MSTORE PUSH1 0x4 CALLDATASIZE LT PUSH2 0x267 JUMPI PUSH1 0x0 CALLDATALOAD PUSH1 0xE0 SHR DUP1 PUSH4 0x66BE290F GT PUSH2 0x144 JUMPI DUP1 PUSH4 0xAFA00BBA GT PUSH2 0xB6 JUMPI DUP1 PUSH4 0xC87B56DD GT PUSH2 0x7A JUMPI DUP1 PUSH4 0xC87B56DD EQ PUSH2 0x6E9 JUMPI DUP1 PUSH4 0xCC0D2546 EQ PUSH2 0x709 JUMPI DUP1 PUSH4 0xCD85CDB5 EQ PUSH2 0x71C JUMPI DUP1 PUSH4 0xCE2762D3 EQ PUSH2 0x731 JUMPI DUP1 PUSH4 0xE985E9C5 EQ PUSH2 0x751 JUMPI DUP1 PUSH4 0xF2FDE38B EQ PUSH2 0x771 JUMPI PUSH2 0x267 JUMP JUMPDEST DUP1 PUSH4 0xAFA00BBA EQ PUSH2 0x654 JUMPI DUP1 PUSH4 0xB88D4FDE EQ PUSH2 0x669 JUMPI DUP1 PUSH4 0xC1A12CE7 EQ PUSH2 0x689 JUMPI DUP1 PUSH4 0xC3C5A547 EQ PUSH2 0x6A9 JUMPI DUP1 PUSH4 0xC610E7A6 EQ PUSH2 0x6C9 JUMPI PUSH2 0x267 JUMP JUMPDEST DUP1 PUSH4 0x87014F57 GT PUSH2 0x108 JUMPI DUP1 PUSH4 0x87014F57 EQ PUSH2 0x5C0 JUMPI DUP1 PUSH4 0x8DA5CB5B EQ PUSH2 0x5D5 JUMPI DUP1 PUSH4 0x95D89B41 EQ PUSH2 0x5EA JUMPI DUP1 PUSH4 0xA22CB465 EQ PUSH2 0x5FF JUMPI DUP1 PUSH4 0xA7FDEEB5 EQ PUSH2 0x61F JUMPI DUP1 PUSH4 0xAD64E945 EQ PUSH2 0x634 JUMPI PUSH2 0x267 JUMP JUMPDEST DUP1 PUSH4 0x66BE290F EQ PUSH2 0x51E JUMPI DUP1 PUSH4 0x6790A9DE EQ PUSH2 0x53E JUMPI DUP1 PUSH4 0x6E4D1267 EQ PUSH2 0x55E JUMPI DUP1 PUSH4 0x70A08231 EQ PUSH2 0x58B JUMPI DUP1 PUSH4 0x715018A6 EQ PUSH2 0x5AB JUMPI PUSH2 0x267 JUMP JUMPDEST DUP1 PUSH4 0x37679E34 GT PUSH2 0x1DD JUMPI DUP1 PUSH4 0x4CEAE247 GT PUSH2 0x1A1 JUMPI DUP1 PUSH4 0x4CEAE247 EQ PUSH2 0x47F JUMPI DUP1 PUSH4 0x4F6CCCE7 EQ PUSH2 0x494 JUMPI DUP1 PUSH4 0x60225E79 EQ PUSH2 0x4B4 JUMPI DUP1 PUSH4 0x615D21A1 EQ PUSH2 0x4D4 JUMPI DUP1 PUSH4 0x6352211E EQ PUSH2 0x4E9 JUMPI DUP1 PUSH4 0x65C20A96 EQ PUSH2 0x509 JUMPI PUSH2 0x267 JUMP JUMPDEST DUP1 PUSH4 0x37679E34 EQ PUSH2 0x3EA JUMPI DUP1 PUSH4 0x3B1A4FE2 EQ PUSH2 0x40A JUMPI DUP1 PUSH4 0x42842E0E EQ PUSH2 0x42A JUMPI DUP1 PUSH4 0x4987B3BC EQ PUSH2 0x44A JUMPI DUP1 PUSH4 0x4A7BD404 EQ PUSH2 0x46A JUMPI PUSH2 0x267 JUMP JUMPDEST DUP1 PUSH4 0x1648F834 GT PUSH2 0x22F JUMPI DUP1 PUSH4 0x1648F834 EQ PUSH2 0x333 JUMPI DUP1 PUSH4 0x18160DDD EQ PUSH2 0x353 JUMPI DUP1 PUSH4 0x23B872DD EQ PUSH2 0x375 JUMPI DUP1 PUSH4 0x2BE09561 EQ PUSH2 0x395 JUMPI DUP1 PUSH4 0x2F745C59 EQ PUSH2 0x3AA JUMPI DUP1 PUSH4 0x359539B0 EQ PUSH2 0x3CA JUMPI PUSH2 0x267 JUMP JUMPDEST DUP1 PUSH4 0x1FFC9A7 EQ PUSH2 0x26C JUMPI DUP1 PUSH4 0x6FDDE03 EQ PUSH2 0x2A2 JUMPI DUP1 PUSH4 0x81812FC EQ PUSH2 0x2C4 JUMPI DUP1 PUSH4 0x95EA7B3 EQ PUSH2 0x2F1 JUMPI DUP1 PUSH4 0x1365E5D1 EQ PUSH2 0x313 JUMPI JUMPDEST PUSH1 0x0 DUP1 REVERT JUMPDEST CALLVALUE DUP1 ISZERO PUSH2 0x278 JUMPI PUSH1 0x0 DUP1 REVERT JUMPDEST POP PUSH2 0x28C PUSH2 0x287 CALLDATASIZE PUSH1 0x4 PUSH2 0x33DA JUMP JUMPDEST PUSH2 0x791 JUMP JUMPDEST PUSH1 0x40 MLOAD PUSH2 0x299 SWAP2 SWAP1 PUSH2 0x3BD8 JUMP JUMPDEST PUSH1 0x40 MLOAD DUP1 SWAP2 SUB SWAP1 RETURN JUMPDEST CALLVALUE DUP1 ISZERO PUSH2 0x2AE JUMPI PUSH1 0x0 DUP1 REVERT JUMPDEST POP PUSH2 0x2B7 PUSH2 0x7E5 JUMP JUMPDEST PUSH1 0x40 MLOAD PUSH2 0x299 SWAP2 SWAP1 PUSH2 0x3BE3 JUMP JUMPDEST CALLVALUE DUP1 ISZERO PUSH2 0x2D0 JUMPI PUSH1 0x0 DUP1 REVERT JUMPDEST POP PUSH2 0x2E4 PUSH2 0x2DF CALLDATASIZE PUSH1 0x4 PUSH2 0x3532 JUMP JUMPDEST PUSH2 0x877 JUMP JUMPDEST PUSH1 0x40 MLOAD PUSH2 0x299 SWAP2 SWAP1 PUSH2 0x3B2A JUMP JUMPDEST CALLVALUE DUP1 ISZERO PUSH2 0x2FD JUMPI PUSH1 0x0 DUP1 REVERT JUMPDEST POP PUSH2 0x311 PUSH2 0x30C CALLDATASIZE PUSH1 0x4 PUSH2 0x33B1 JUMP JUMPDEST PUSH2 0x8C3 JUMP JUMPDEST STOP JUMPDEST CALLVALUE DUP1 ISZERO PUSH2 0x31F JUMPI PUSH1 0x0 DUP1 REVERT JUMPDEST POP PUSH2 0x311 PUSH2 0x32E CALLDATASIZE PUSH1 0x4 PUSH2 0x3412 JUMP JUMPDEST PUSH2 0x95B JUMP JUMPDEST CALLVALUE DUP1 ISZERO PUSH2 0x33F JUMPI PUSH1 0x0 DUP1 REVERT JUMPDEST POP PUSH2 0x311 PUSH2 0x34E CALLDATASIZE PUSH1 0x4 PUSH2 0x3532 JUMP JUMPDEST PUSH2 0xB4C JUMP JUMPDEST CALLVALUE DUP1 ISZERO PUSH2 0x35F JUMPI PUSH1 0x0 DUP1 REVERT JUMPDEST POP PUSH2 0x368 PUSH2 0xBE0 JUMP JUMPDEST PUSH1 0x40 MLOAD PUSH2 0x299 SWAP2 SWAP1 PUSH2 0x4A35 JUMP JUMPDEST CALLVALUE DUP1 ISZERO PUSH2 0x381 JUMPI PUSH1 0x0 DUP1 REVERT JUMPDEST POP PUSH2 0x311 PUSH2 0x390 CALLDATASIZE PUSH1 0x4 PUSH2 0x3277 JUMP JUMPDEST PUSH2 0xBE6 JUMP JUMPDEST CALLVALUE DUP1 ISZERO PUSH2 0x3A1 JUMPI PUSH1 0x0 DUP1 REVERT JUMPDEST POP PUSH2 0x311 PUSH2 0xC1E JUMP JUMPDEST CALLVALUE DUP1 ISZERO PUSH2 0x3B6 JUMPI PUSH1 0x0 DUP1 REVERT JUMPDEST POP PUSH2 0x368 PUSH2 0x3C5 CALLDATASIZE PUSH1 0x4 PUSH2 0x33B1 JUMP JUMPDEST PUSH2 0xC6C JUMP JUMPDEST CALLVALUE DUP1 ISZERO PUSH2 0x3D6 JUMPI PUSH1 0x0 DUP1 REVERT JUMPDEST POP PUSH2 0x311 PUSH2 0x3E5 CALLDATASIZE PUSH1 0x4 PUSH2 0x3365 JUMP JUMPDEST PUSH2 0xCBE JUMP JUMPDEST CALLVALUE DUP1 ISZERO PUSH2 0x3F6 JUMPI PUSH1 0x0 DUP1 REVERT JUMPDEST POP PUSH2 0x311 PUSH2 0x405 CALLDATASIZE PUSH1 0x4 PUSH2 0x332B JUMP JUMPDEST PUSH2 0xEAA JUMP JUMPDEST CALLVALUE DUP1 ISZERO PUSH2 0x416 JUMPI PUSH1 0x0 DUP1 REVERT JUMPDEST POP PUSH2 0x2B7 PUSH2 0x425 CALLDATASIZE PUSH1 0x4 PUSH2 0x322B JUMP JUMPDEST PUSH2 0xF57 JUMP JUMPDEST CALLVALUE DUP1 ISZERO PUSH2 0x436 JUMPI PUSH1 0x0 DUP1 REVERT JUMPDEST POP PUSH2 0x311 PUSH2 0x445 CALLDATASIZE PUSH1 0x4 PUSH2 0x3277 JUMP JUMPDEST PUSH2 0x1044 JUMP JUMPDEST CALLVALUE DUP1 ISZERO PUSH2 0x456 JUMPI PUSH1 0x0 DUP1 REVERT JUMPDEST POP PUSH2 0x311 PUSH2 0x465 CALLDATASIZE PUSH1 0x4 PUSH2 0x3412 JUMP JUMPDEST PUSH2 0x105F JUMP JUMPDEST CALLVALUE DUP1 ISZERO PUSH2 0x476 JUMPI PUSH1 0x0 DUP1 REVERT JUMPDEST POP PUSH2 0x28C PUSH2 0x10B5 JUMP JUMPDEST CALLVALUE DUP1 ISZERO PUSH2 0x48B JUMPI PUSH1 0x0 DUP1 REVERT JUMPDEST POP PUSH2 0x368 PUSH2 0x10BE JUMP JUMPDEST CALLVALUE DUP1 ISZERO PUSH2 0x4A0 JUMPI PUSH1 0x0 DUP1 REVERT JUMPDEST POP PUSH2 0x368 PUSH2 0x4AF CALLDATASIZE PUSH1 0x4 PUSH2 0x3532 JUMP JUMPDEST PUSH2 0x10F5 JUMP JUMPDEST CALLVALUE DUP1 ISZERO PUSH2 0x4C0 JUMPI PUSH1 0x0 DUP1 REVERT JUMPDEST POP PUSH2 0x2B7 PUSH2 0x4CF CALLDATASIZE PUSH1 0x4 PUSH2 0x3532 JUMP JUMPDEST PUSH2 0x1150 JUMP JUMPDEST CALLVALUE DUP1 ISZERO PUSH2 0x4E0 JUMPI PUSH1 0x0 DUP1 REVERT JUMPDEST POP PUSH2 0x368 PUSH2 0x13C8 JUMP JUMPDEST CALLVALUE DUP1 ISZERO PUSH2 0x4F5 JUMPI PUSH1 0x0 DUP1 REVERT JUMPDEST POP PUSH2 0x2E4 PUSH2 0x504 CALLDATASIZE PUSH1 0x4 PUSH2 0x3532 JUMP JUMPDEST PUSH2 0x13CE JUMP JUMPDEST CALLVALUE DUP1 ISZERO PUSH2 0x515 JUMPI PUSH1 0x0 DUP1 REVERT JUMPDEST POP PUSH2 0x311 PUSH2 0x1403 JUMP JUMPDEST CALLVALUE DUP1 ISZERO PUSH2 0x52A JUMPI PUSH1 0x0 DUP1 REVERT JUMPDEST POP PUSH2 0x2B7 PUSH2 0x539 CALLDATASIZE PUSH1 0x4 PUSH2 0x3532 JUMP JUMPDEST PUSH2 0x144F JUMP JUMPDEST CALLVALUE DUP1 ISZERO PUSH2 0x54A JUMPI PUSH1 0x0 DUP1 REVERT JUMPDEST POP PUSH2 0x311 PUSH2 0x559 CALLDATASIZE PUSH1 0x4 PUSH2 0x3445 JUMP JUMPDEST PUSH2 0x147F JUMP JUMPDEST CALLVALUE DUP1 ISZERO PUSH2 0x56A JUMPI PUSH1 0x0 DUP1 REVERT JUMPDEST POP PUSH2 0x57E PUSH2 0x579 CALLDATASIZE PUSH1 0x4 PUSH2 0x322B JUMP JUMPDEST PUSH2 0x1537 JUMP JUMPDEST PUSH1 0x40 MLOAD PUSH2 0x299 SWAP2 SWAP1 PUSH2 0x3B94 JUMP JUMPDEST CALLVALUE DUP1 ISZERO PUSH2 0x597 JUMPI PUSH1 0x0 DUP1 REVERT JUMPDEST POP PUSH2 0x368 PUSH2 0x5A6 CALLDATASIZE PUSH1 0x4 PUSH2 0x322B JUMP JUMPDEST PUSH2 0x15F5 JUMP JUMPDEST CALLVALUE DUP1 ISZERO PUSH2 0x5B7 JUMPI PUSH1 0x0 DUP1 REVERT JUMPDEST POP PUSH2 0x311 PUSH2 0x1639 JUMP JUMPDEST CALLVALUE DUP1 ISZERO PUSH2 0x5CC JUMPI PUSH1 0x0 DUP1 REVERT JUMPDEST POP PUSH2 0x28C PUSH2 0x1684 JUMP JUMPDEST CALLVALUE DUP1 ISZERO PUSH2 0x5E1 JUMPI PUSH1 0x0 DUP1 REVERT JUMPDEST POP PUSH2 0x2E4 PUSH2 0x1692 JUMP JUMPDEST CALLVALUE DUP1 ISZERO PUSH2 0x5F6 JUMPI PUSH1 0x0 DUP1 REVERT JUMPDEST POP PUSH2 0x2B7 PUSH2 0x16A1 JUMP JUMPDEST CALLVALUE DUP1 ISZERO PUSH2 0x60B JUMPI PUSH1 0x0 DUP1 REVERT JUMPDEST POP PUSH2 0x311 PUSH2 0x61A CALLDATASIZE PUSH1 0x4 PUSH2 0x332B JUMP JUMPDEST PUSH2 0x16B0 JUMP JUMPDEST CALLVALUE DUP1 ISZERO PUSH2 0x62B JUMPI PUSH1 0x0 DUP1 REVERT JUMPDEST POP PUSH2 0x368 PUSH2 0x177E JUMP JUMPDEST CALLVALUE DUP1 ISZERO PUSH2 0x640 JUMPI PUSH1 0x0 DUP1 REVERT JUMPDEST POP PUSH2 0x311 PUSH2 0x64F CALLDATASIZE PUSH1 0x4 PUSH2 0x33B1 JUMP JUMPDEST PUSH2 0x1784 JUMP JUMPDEST CALLVALUE DUP1 ISZERO PUSH2 0x660 JUMPI PUSH1 0x0 DUP1 REVERT JUMPDEST POP PUSH2 0x311 PUSH2 0x188D JUMP JUMPDEST CALLVALUE DUP1 ISZERO PUSH2 0x675 JUMPI PUSH1 0x0 DUP1 REVERT JUMPDEST POP PUSH2 0x311 PUSH2 0x684 CALLDATASIZE PUSH1 0x4 PUSH2 0x32B2 JUMP JUMPDEST PUSH2 0x18DD JUMP JUMPDEST CALLVALUE DUP1 ISZERO PUSH2 0x695 JUMPI PUSH1 0x0 DUP1 REVERT JUMPDEST POP PUSH2 0x311 PUSH2 0x6A4 CALLDATASIZE PUSH1 0x4 PUSH2 0x3532 JUMP JUMPDEST PUSH2 0x191C JUMP JUMPDEST CALLVALUE DUP1 ISZERO PUSH2 0x6B5 JUMPI PUSH1 0x0 DUP1 REVERT JUMPDEST POP PUSH2 0x28C PUSH2 0x6C4 CALLDATASIZE PUSH1 0x4 PUSH2 0x322B JUMP JUMPDEST PUSH2 0x19D9 JUMP JUMPDEST CALLVALUE DUP1 ISZERO PUSH2 0x6D5 JUMPI PUSH1 0x0 DUP1 REVERT JUMPDEST POP PUSH2 0x2E4 PUSH2 0x6E4 CALLDATASIZE PUSH1 0x4 PUSH2 0x3412 JUMP JUMPDEST PUSH2 0x19FA JUMP JUMPDEST CALLVALUE DUP1 ISZERO PUSH2 0x6F5 JUMPI PUSH1 0x0 DUP1 REVERT JUMPDEST POP PUSH2 0x2B7 PUSH2 0x704 CALLDATASIZE PUSH1 0x4 PUSH2 0x3532 JUMP JUMPDEST PUSH2 0x1A90 JUMP JUMPDEST PUSH2 0x311 PUSH2 0x717 CALLDATASIZE PUSH1 0x4 PUSH2 0x349C JUMP JUMPDEST PUSH2 0x1C25 JUMP JUMPDEST CALLVALUE DUP1 ISZERO PUSH2 0x728 JUMPI PUSH1 0x0 DUP1 REVERT JUMPDEST POP PUSH2 0x311 PUSH2 0x223A JUMP JUMPDEST CALLVALUE DUP1 ISZERO PUSH2 0x73D JUMPI PUSH1 0x0 DUP1 REVERT JUMPDEST POP PUSH2 0x2B7 PUSH2 0x74C CALLDATASIZE PUSH1 0x4 PUSH2 0x3532 JUMP JUMPDEST PUSH2 0x2285 JUMP JUMPDEST CALLVALUE DUP1 ISZERO PUSH2 0x75D JUMPI PUSH1 0x0 DUP1 REVERT JUMPDEST POP PUSH2 0x28C PUSH2 0x76C CALLDATASIZE PUSH1 0x4 PUSH2 0x3245 JUMP JUMPDEST PUSH2 0x23AE JUMP JUMPDEST CALLVALUE DUP1 ISZERO PUSH2 0x77D JUMPI PUSH1 0x0 DUP1 REVERT JUMPDEST POP PUSH2 0x311 PUSH2 0x78C CALLDATASIZE PUSH1 0x4 PUSH2 0x322B JUMP JUMPDEST PUSH2 0x23DC JUMP JUMPDEST PUSH1 0x0 PUSH1 0x1 PUSH1 0x1 PUSH1 0xE0 SHL SUB NOT DUP3 AND PUSH4 0x80AC58CD PUSH1 0xE0 SHL EQ DUP1 PUSH2 0x7C2 JUMPI POP PUSH1 0x1 PUSH1 0x1 PUSH1 0xE0 SHL SUB NOT DUP3 AND PUSH4 0x5B5E139F PUSH1 0xE0 SHL EQ JUMPDEST DUP1 PUSH2 0x7DD JUMPI POP PUSH1 0x1 PUSH1 0x1 PUSH1 0xE0 SHL SUB NOT DUP3 AND PUSH4 0x780E9D63 PUSH1 0xE0 SHL EQ JUMPDEST SWAP1 POP JUMPDEST SWAP2 SWAP1 POP JUMP JUMPDEST PUSH1 0x60 PUSH1 0x0 DUP1 SLOAD PUSH2 0x7F4 SWAP1 PUSH2 0x4B6B JUMP JUMPDEST DUP1 PUSH1 0x1F ADD PUSH1 0x20 DUP1 SWAP2 DIV MUL PUSH1 0x20 ADD PUSH1 0x40 MLOAD SWAP1 DUP2 ADD PUSH1 0x40 MSTORE DUP1 SWAP3 SWAP2 SWAP1 DUP2 DUP2 MSTORE PUSH1 0x20 ADD DUP3 DUP1 SLOAD PUSH2 0x820 SWAP1 PUSH2 0x4B6B JUMP JUMPDEST DUP1 ISZERO PUSH2 0x86D JUMPI DUP1 PUSH1 0x1F LT PUSH2 0x842 JUMPI PUSH2 0x100 DUP1 DUP4 SLOAD DIV MUL DUP4 MSTORE SWAP2 PUSH1 0x20 ADD SWAP2 PUSH2 0x86D JUMP JUMPDEST DUP3 ADD SWAP2 SWAP1 PUSH1 0x0 MSTORE PUSH1 0x20 PUSH1 0x0 KECCAK256 SWAP1 JUMPDEST DUP2 SLOAD DUP2 MSTORE SWAP1 PUSH1 0x1 ADD SWAP1 PUSH1 0x20 ADD DUP1 DUP4 GT PUSH2 0x850 JUMPI DUP3 SWAP1 SUB PUSH1 0x1F AND DUP3 ADD SWAP2 JUMPDEST POP POP POP POP POP SWAP1 POP SWAP1 JUMP JUMPDEST PUSH1 0x0 PUSH2 0x882 DUP3 PUSH2 0x244D JUMP JUMPDEST PUSH2 0x8A7 JUMPI PUSH1 0x40 MLOAD PUSH3 0x461BCD PUSH1 0xE5 SHL DUP2 MSTORE PUSH1 0x4 ADD PUSH2 0x89E SWAP1 PUSH2 0x42D4 JUMP JUMPDEST PUSH1 0x40 MLOAD DUP1 SWAP2 SUB SWAP1 REVERT JUMPDEST POP PUSH1 0x0 SWAP1 DUP2 MSTORE PUSH1 0x4 PUSH1 0x20 MSTORE PUSH1 0x40 SWAP1 KECCAK256 SLOAD PUSH1 0x1 PUSH1 0x1 PUSH1 0xA0 SHL SUB AND SWAP1 JUMP JUMPDEST PUSH1 0x0 PUSH2 0x8CE DUP3 PUSH2 0x13CE JUMP JUMPDEST SWAP1 POP DUP1 PUSH1 0x1 PUSH1 0x1 PUSH1 0xA0 SHL SUB AND DUP4 PUSH1 0x1 PUSH1 0x1 PUSH1 0xA0 SHL SUB AND EQ ISZERO PUSH2 0x902 JUMPI PUSH1 0x40 MLOAD PUSH3 0x461BCD PUSH1 0xE5 SHL DUP2 MSTORE PUSH1 0x4 ADD PUSH2 0x89E SWAP1 PUSH2 0x45E4 JUMP JUMPDEST DUP1 PUSH1 0x1 PUSH1 0x1 PUSH1 0xA0 SHL SUB AND PUSH2 0x914 PUSH2 0x246A JUMP JUMPDEST PUSH1 0x1 PUSH1 0x1 PUSH1 0xA0 SHL SUB AND EQ DUP1 PUSH2 0x930 JUMPI POP PUSH2 0x930 DUP2 PUSH2 0x76C PUSH2 0x246A JUMP JUMPDEST PUSH2 0x94C JUMPI PUSH1 0x40 MLOAD PUSH3 0x461BCD PUSH1 0xE5 SHL DUP2 MSTORE PUSH1 0x4 ADD PUSH2 0x89E SWAP1 PUSH2 0x3F51 JUMP JUMPDEST PUSH2 0x956 DUP4 DUP4 PUSH2 0x246E JUMP JUMPDEST POP POP POP JUMP JUMPDEST PUSH2 0x963 PUSH2 0x1684 JUMP JUMPDEST ISZERO ISZERO PUSH1 0x1 EQ PUSH2 0x984 JUMPI PUSH1 0x40 MLOAD PUSH3 0x461BCD PUSH1 0xE5 SHL DUP2 MSTORE PUSH1 0x4 ADD PUSH2 0x89E SWAP1 PUSH2 0x4320 JUMP JUMPDEST PUSH1 0x0 DUP2 PUSH1 0x40 MLOAD PUSH1 0x20 ADD PUSH2 0x997 SWAP2 SWAP1 PUSH2 0x3662 JUMP JUMPDEST PUSH1 0x40 DUP1 MLOAD PUSH1 0x1F NOT DUP2 DUP5 SUB ADD DUP2 MSTORE SWAP2 DUP2 MSTORE DUP2 MLOAD PUSH1 0x20 SWAP3 DUP4 ADD KECCAK256 PUSH1 0x0 DUP2 DUP2 MSTORE PUSH1 0x14 SWAP1 SWAP4 MSTORE SWAP2 KECCAK256 SLOAD SWAP1 SWAP2 POP PUSH1 0xFF AND DUP1 ISZERO PUSH2 0x9E0 JUMPI PUSH1 0x40 MLOAD PUSH3 0x461BCD PUSH1 0xE5 SHL DUP2 MSTORE PUSH1 0x4 ADD PUSH2 0x89E SWAP1 PUSH2 0x4715 JUMP JUMPDEST PUSH1 0x19 PUSH1 0x0 PUSH2 0x9EC PUSH2 0x246A JUMP JUMPDEST PUSH1 0x1 PUSH1 0x1 PUSH1 0xA0 SHL SUB AND DUP2 MSTORE PUSH1 0x20 DUP2 ADD SWAP2 SWAP1 SWAP2 MSTORE PUSH1 0x40 ADD PUSH1 0x0 KECCAK256 PUSH1 0x1 ADD SLOAD PUSH1 0xFF AND ISZERO PUSH2 0xA29 JUMPI PUSH1 0x40 MLOAD PUSH3 0x461BCD PUSH1 0xE5 SHL DUP2 MSTORE PUSH1 0x4 ADD PUSH2 0x89E SWAP1 PUSH2 0x47E9 JUMP JUMPDEST PUSH1 0x14 DUP4 MLOAD GT ISZERO PUSH2 0xA4B JUMPI PUSH1 0x40 MLOAD PUSH3 0x461BCD PUSH1 0xE5 SHL DUP2 MSTORE PUSH1 0x4 ADD PUSH2 0x89E SWAP1 PUSH2 0x43D8 JUMP JUMPDEST PUSH1 0x2 DUP4 MLOAD LT ISZERO PUSH2 0xA6D JUMPI PUSH1 0x40 MLOAD PUSH3 0x461BCD PUSH1 0xE5 SHL DUP2 MSTORE PUSH1 0x4 ADD PUSH2 0x89E SWAP1 PUSH2 0x3D99 JUMP JUMPDEST PUSH1 0x40 DUP1 MLOAD PUSH1 0x80 DUP2 ADD DUP3 MSTORE DUP5 DUP2 MSTORE PUSH1 0x1 PUSH1 0x20 DUP3 ADD DUP2 SWAP1 MSTORE PUSH1 0x0 SWAP3 DUP3 ADD DUP4 SWAP1 MSTORE PUSH1 0x60 DUP3 ADD MSTORE SWAP1 PUSH1 0x19 SWAP1 PUSH2 0xA9C PUSH2 0x246A JUMP JUMPDEST PUSH1 0x1 PUSH1 0x1 PUSH1 0xA0 SHL SUB AND DUP2 MSTORE PUSH1 0x20 DUP1 DUP3 ADD SWAP3 SWAP1 SWAP3 MSTORE PUSH1 0x40 ADD PUSH1 0x0 KECCAK256 DUP3 MLOAD DUP1 MLOAD SWAP2 SWAP3 PUSH2 0xACB SWAP3 DUP5 SWAP3 SWAP1 SWAP2 ADD SWAP1 PUSH2 0x30EC JUMP JUMPDEST POP PUSH1 0x20 DUP3 DUP2 ADD MLOAD PUSH1 0x1 DUP1 DUP5 ADD DUP1 SLOAD SWAP3 ISZERO ISZERO PUSH1 0xFF NOT SWAP4 DUP5 AND OR SWAP1 SSTORE PUSH1 0x40 DUP1 DUP7 ADD MLOAD PUSH1 0x2 DUP7 ADD SSTORE PUSH1 0x60 SWAP1 SWAP6 ADD MLOAD PUSH1 0x3 SWAP1 SWAP5 ADD DUP1 SLOAD SWAP5 ISZERO ISZERO SWAP5 DUP4 AND SWAP5 SWAP1 SWAP5 OR SWAP1 SWAP4 SSTORE PUSH1 0x0 DUP7 DUP2 MSTORE PUSH1 0x14 SWAP1 SWAP3 MSTORE SWAP3 SWAP1 KECCAK256 DUP1 SLOAD SWAP1 SWAP3 AND DUP2 OR SWAP1 SWAP2 SSTORE PUSH1 0x13 DUP1 SLOAD SWAP1 SWAP2 PUSH2 0xB31 SWAP2 SWAP1 PUSH2 0x4A4A JUMP JUMPDEST DUP2 SLOAD PUSH1 0x1 DUP2 ADD DUP4 SSTORE PUSH1 0x0 SWAP3 DUP4 MSTORE PUSH1 0x20 SWAP1 SWAP3 KECCAK256 SWAP1 SWAP2 ADD SSTORE POP POP POP JUMP JUMPDEST PUSH2 0xB54 PUSH2 0x246A JUMP JUMPDEST PUSH1 0x1 PUSH1 0x1 PUSH1 0xA0 SHL SUB AND PUSH2 0xB65 PUSH2 0x1692 JUMP JUMPDEST PUSH1 0x1 PUSH1 0x1 PUSH1 0xA0 SHL SUB AND EQ PUSH2 0xB8B JUMPI PUSH1 0x40 MLOAD PUSH3 0x461BCD PUSH1 0xE5 SHL DUP2 MSTORE PUSH1 0x4 ADD PUSH2 0x89E SWAP1 PUSH2 0x43A3 JUMP JUMPDEST DUP1 ISZERO DUP1 PUSH2 0xB96 JUMPI POP PUSH1 0x0 JUMPDEST ISZERO PUSH2 0xBA1 JUMPI PUSH1 0x0 PUSH1 0xE SSTORE JUMPDEST PUSH1 0x0 DUP1 PUSH2 0xBB2 DUP4 PUSH4 0x3B9ACA00 PUSH2 0x24DC JUMP JUMPDEST SWAP1 SWAP3 POP SWAP1 POP PUSH1 0x1 DUP3 ISZERO ISZERO EQ PUSH2 0xBD9 JUMPI PUSH1 0x40 MLOAD PUSH3 0x461BCD PUSH1 0xE5 SHL DUP2 MSTORE PUSH1 0x4 ADD PUSH2 0x89E SWAP1 PUSH2 0x4985 JUMP JUMPDEST PUSH1 0xE SSTORE POP POP JUMP JUMPDEST PUSH1 0x9 SLOAD SWAP1 JUMP JUMPDEST PUSH2 0xBF7 PUSH2 0xBF1 PUSH2 0x246A JUMP JUMPDEST DUP3 PUSH2 0x2532 JUMP JUMPDEST PUSH2 0xC13 JUMPI PUSH1 0x40 MLOAD PUSH3 0x461BCD PUSH1 0xE5 SHL DUP2 MSTORE PUSH1 0x4 ADD PUSH2 0x89E SWAP1 PUSH2 0x4798 JUMP JUMPDEST PUSH2 0x956 DUP4 DUP4 DUP4 PUSH2 0x25B7 JUMP JUMPDEST PUSH2 0xC26 PUSH2 0x246A JUMP JUMPDEST PUSH1 0x1 PUSH1 0x1 PUSH1 0xA0 SHL SUB AND PUSH2 0xC37 PUSH2 0x1692 JUMP JUMPDEST PUSH1 0x1 PUSH1 0x1 PUSH1 0xA0 SHL SUB AND EQ PUSH2 0xC5D JUMPI PUSH1 0x40 MLOAD PUSH3 0x461BCD PUSH1 0xE5 SHL DUP2 MSTORE PUSH1 0x4 ADD PUSH2 0x89E SWAP1 PUSH2 0x43A3 JUMP JUMPDEST PUSH1 0xF DUP1 SLOAD PUSH1 0xFF NOT AND PUSH1 0x1 OR SWAP1 SSTORE JUMP JUMPDEST PUSH1 0x0 PUSH2 0xC77 DUP4 PUSH2 0x15F5 JUMP JUMPDEST DUP3 LT PUSH2 0xC95 JUMPI PUSH1 0x40 MLOAD PUSH3 0x461BCD PUSH1 0xE5 SHL DUP2 MSTORE PUSH1 0x4 ADD PUSH2 0x89E SWAP1 PUSH2 0x3C2E JUMP JUMPDEST POP PUSH1 0x1 PUSH1 0x1 PUSH1 0xA0 SHL SUB SWAP2 SWAP1 SWAP2 AND PUSH1 0x0 SWAP1 DUP2 MSTORE PUSH1 0x7 PUSH1 0x20 SWAP1 DUP2 MSTORE PUSH1 0x40 DUP1 DUP4 KECCAK256 SWAP4 DUP4 MSTORE SWAP3 SWAP1 MSTORE KECCAK256 SLOAD SWAP1 JUMP JUMPDEST PUSH2 0xCC6 PUSH2 0x246A JUMP JUMPDEST PUSH1 0x1 PUSH1 0x1 PUSH1 0xA0 SHL SUB AND PUSH2 0xCD7 PUSH2 0x1692 JUMP JUMPDEST PUSH1 0x1 PUSH1 0x1 PUSH1 0xA0 SHL SUB AND EQ PUSH2 0xCFD JUMPI PUSH1 0x40 MLOAD PUSH3 0x461BCD PUSH1 0xE5 SHL DUP2 MSTORE PUSH1 0x4 ADD PUSH2 0x89E SWAP1 PUSH2 0x43A3 JUMP JUMPDEST PUSH1 0x0 DUP2 PUSH1 0x40 MLOAD PUSH1 0x20 ADD PUSH2 0xD10 SWAP2 SWAP1 PUSH2 0x3662 JUMP JUMPDEST PUSH1 0x40 DUP1 MLOAD PUSH1 0x1F NOT DUP2 DUP5 SUB ADD DUP2 MSTORE SWAP2 DUP2 MSTORE DUP2 MLOAD PUSH1 0x20 SWAP3 DUP4 ADD KECCAK256 PUSH1 0x0 DUP2 DUP2 MSTORE PUSH1 0x14 SWAP1 SWAP4 MSTORE SWAP2 KECCAK256 SLOAD SWAP1 SWAP2 POP PUSH1 0xFF AND DUP1 ISZERO PUSH2 0xD59 JUMPI PUSH1 0x40 MLOAD PUSH3 0x461BCD PUSH1 0xE5 SHL DUP2 MSTORE PUSH1 0x4 ADD PUSH2 0x89E SWAP1 PUSH2 0x4715 JUMP JUMPDEST PUSH1 0x1 PUSH1 0x1 PUSH1 0xA0 SHL SUB DUP5 AND PUSH1 0x0 SWAP1 DUP2 MSTORE PUSH1 0x19 PUSH1 0x20 MSTORE PUSH1 0x40 SWAP1 KECCAK256 PUSH1 0x1 ADD SLOAD PUSH1 0xFF AND ISZERO PUSH2 0xD95 JUMPI PUSH1 0x40 MLOAD PUSH3 0x461BCD PUSH1 0xE5 SHL DUP2 MSTORE PUSH1 0x4 ADD PUSH2 0x89E SWAP1 PUSH2 0x49CE JUMP JUMPDEST PUSH1 0x14 DUP4 MLOAD GT ISZERO PUSH2 0xDB7 JUMPI PUSH1 0x40 MLOAD PUSH3 0x461BCD PUSH1 0xE5 SHL DUP2 MSTORE PUSH1 0x4 ADD PUSH2 0x89E SWAP1 PUSH2 0x3FF8 JUMP JUMPDEST PUSH1 0x2 DUP4 MLOAD LT ISZERO PUSH2 0xDD9 JUMPI PUSH1 0x40 MLOAD PUSH3 0x461BCD PUSH1 0xE5 SHL DUP2 MSTORE PUSH1 0x4 ADD PUSH2 0x89E SWAP1 PUSH2 0x4892 JUMP JUMPDEST PUSH1 0x40 DUP1 MLOAD PUSH1 0x80 DUP2 ADD DUP3 MSTORE DUP5 DUP2 MSTORE PUSH1 0x1 PUSH1 0x20 DUP1 DUP4 ADD DUP3 SWAP1 MSTORE PUSH1 0x0 DUP4 DUP6 ADD DUP2 SWAP1 MSTORE PUSH1 0x60 DUP5 ADD SWAP3 SWAP1 SWAP3 MSTORE PUSH1 0x1 PUSH1 0x1 PUSH1 0xA0 SHL SUB DUP9 AND DUP3 MSTORE PUSH1 0x19 DUP2 MSTORE SWAP3 SWAP1 KECCAK256 DUP2 MLOAD DUP1 MLOAD SWAP3 SWAP4 SWAP2 SWAP3 PUSH2 0xE28 SWAP3 DUP5 SWAP3 ADD SWAP1 PUSH2 0x30EC JUMP JUMPDEST POP PUSH1 0x20 DUP3 DUP2 ADD MLOAD PUSH1 0x1 DUP1 DUP5 ADD DUP1 SLOAD SWAP3 ISZERO ISZERO PUSH1 0xFF NOT SWAP4 DUP5 AND OR SWAP1 SSTORE PUSH1 0x40 DUP1 DUP7 ADD MLOAD PUSH1 0x2 DUP7 ADD SSTORE PUSH1 0x60 SWAP1 SWAP6 ADD MLOAD PUSH1 0x3 SWAP1 SWAP5 ADD DUP1 SLOAD SWAP5 ISZERO ISZERO SWAP5 DUP4 AND SWAP5 SWAP1 SWAP5 OR SWAP1 SWAP4 SSTORE PUSH1 0x0 DUP7 DUP2 MSTORE PUSH1 0x14 SWAP1 SWAP3 MSTORE SWAP3 SWAP1 KECCAK256 DUP1 SLOAD SWAP1 SWAP3 AND DUP2 OR SWAP1 SWAP2 SSTORE PUSH1 0x13 DUP1 SLOAD SWAP1 SWAP2 PUSH2 0xE8E SWAP2 SWAP1 PUSH2 0x4A4A JUMP JUMPDEST DUP2 SLOAD PUSH1 0x1 DUP2 ADD DUP4 SSTORE PUSH1 0x0 SWAP3 DUP4 MSTORE PUSH1 0x20 SWAP1 SWAP3 KECCAK256 SWAP1 SWAP2 ADD SSTORE POP POP POP POP JUMP JUMPDEST PUSH2 0xEB2 PUSH2 0x246A JUMP JUMPDEST PUSH1 0x1 PUSH1 0x1 PUSH1 0xA0 SHL SUB AND PUSH2 0xEC3 PUSH2 0x1692 JUMP JUMPDEST PUSH1 0x1 PUSH1 0x1 PUSH1 0xA0 SHL SUB AND EQ PUSH2 0xEE9 JUMPI PUSH1 0x40 MLOAD PUSH3 0x461BCD PUSH1 0xE5 SHL DUP2 MSTORE PUSH1 0x4 ADD PUSH2 0x89E SWAP1 PUSH2 0x43A3 JUMP JUMPDEST PUSH1 0x1 PUSH1 0x1 PUSH1 0xA0 SHL SUB DUP3 AND PUSH1 0x0 SWAP1 DUP2 MSTORE PUSH1 0x19 PUSH1 0x20 MSTORE PUSH1 0x40 SWAP1 KECCAK256 PUSH1 0x1 SWAP1 DUP2 ADD SLOAD PUSH1 0xFF AND ISZERO ISZERO EQ PUSH2 0xF29 JUMPI PUSH1 0x40 MLOAD PUSH3 0x461BCD PUSH1 0xE5 SHL DUP2 MSTORE PUSH1 0x4 ADD PUSH2 0x89E SWAP1 PUSH2 0x4625 JUMP JUMPDEST PUSH1 0x1 PUSH1 0x1 PUSH1 0xA0 SHL SUB SWAP2 SWAP1 SWAP2 AND PUSH1 0x0 SWAP1 DUP2 MSTORE PUSH1 0x19 PUSH1 0x20 MSTORE PUSH1 0x40 SWAP1 KECCAK256 PUSH1 0x3 ADD DUP1 SLOAD PUSH1 0xFF NOT AND SWAP2 ISZERO ISZERO SWAP2 SWAP1 SWAP2 OR SWAP1 SSTORE JUMP JUMPDEST PUSH1 0x1 PUSH1 0x1 PUSH1 0xA0 SHL SUB DUP2 AND PUSH1 0x0 SWAP1 DUP2 MSTORE PUSH1 0x19 PUSH1 0x20 MSTORE PUSH1 0x40 SWAP1 KECCAK256 PUSH1 0x1 SWAP1 DUP2 ADD SLOAD PUSH1 0x60 SWAP2 PUSH1 0xFF SWAP1 SWAP2 AND ISZERO ISZERO EQ PUSH2 0xF9C JUMPI PUSH1 0x40 MLOAD PUSH3 0x461BCD PUSH1 0xE5 SHL DUP2 MSTORE PUSH1 0x4 ADD PUSH2 0x89E SWAP1 PUSH2 0x4625 JUMP JUMPDEST PUSH1 0x1 PUSH1 0x1 PUSH1 0xA0 SHL SUB DUP3 AND PUSH1 0x0 SWAP1 DUP2 MSTORE PUSH1 0x19 PUSH1 0x20 MSTORE PUSH1 0x40 SWAP1 KECCAK256 DUP1 SLOAD PUSH2 0xFBF SWAP1 PUSH2 0x4B6B JUMP JUMPDEST DUP1 PUSH1 0x1F ADD PUSH1 0x20 DUP1 SWAP2 DIV MUL PUSH1 0x20 ADD PUSH1 0x40 MLOAD SWAP1 DUP2 ADD PUSH1 0x40 MSTORE DUP1 SWAP3 SWAP2 SWAP1 DUP2 DUP2 MSTORE PUSH1 0x20 ADD DUP3 DUP1 SLOAD PUSH2 0xFEB SWAP1 PUSH2 0x4B6B JUMP JUMPDEST DUP1 ISZERO PUSH2 0x1038 JUMPI DUP1 PUSH1 0x1F LT PUSH2 0x100D JUMPI PUSH2 0x100 DUP1 DUP4 SLOAD DIV MUL DUP4 MSTORE SWAP2 PUSH1 0x20 ADD SWAP2 PUSH2 0x1038 JUMP JUMPDEST DUP3 ADD SWAP2 SWAP1 PUSH1 0x0 MSTORE PUSH1 0x20 PUSH1 0x0 KECCAK256 SWAP1 JUMPDEST DUP2 SLOAD DUP2 MSTORE SWAP1 PUSH1 0x1 ADD SWAP1 PUSH1 0x20 ADD DUP1 DUP4 GT PUSH2 0x101B JUMPI DUP3 SWAP1 SUB PUSH1 0x1F AND DUP3 ADD SWAP2 JUMPDEST POP POP POP POP POP SWAP1 POP SWAP2 SWAP1 POP JUMP JUMPDEST PUSH2 0x956 DUP4 DUP4 DUP4 PUSH1 0x40 MLOAD DUP1 PUSH1 0x20 ADD PUSH1 0x40 MSTORE DUP1 PUSH1 0x0 DUP2 MSTORE POP PUSH2 0x18DD JUMP JUMPDEST PUSH2 0x1067 PUSH2 0x246A JUMP JUMPDEST PUSH1 0x1 PUSH1 0x1 PUSH1 0xA0 SHL SUB AND PUSH2 0x1078 PUSH2 0x1692 JUMP JUMPDEST PUSH1 0x1 PUSH1 0x1 PUSH1 0xA0 SHL SUB AND EQ PUSH2 0x109E JUMPI PUSH1 0x40 MLOAD PUSH3 0x461BCD PUSH1 0xE5 SHL DUP2 MSTORE PUSH1 0x4 ADD PUSH2 0x89E SWAP1 PUSH2 0x43A3 JUMP JUMPDEST DUP1 MLOAD PUSH2 0x10B1 SWAP1 PUSH1 0x11 SWAP1 PUSH1 0x20 DUP5 ADD SWAP1 PUSH2 0x30EC JUMP JUMPDEST POP POP JUMP JUMPDEST PUSH1 0xF SLOAD PUSH1 0xFF AND SWAP1 JUMP JUMPDEST PUSH1 0x0 PUSH1 0x19 PUSH1 0x0 PUSH2 0x10CC PUSH2 0x246A JUMP JUMPDEST PUSH1 0x1 PUSH1 0x1 PUSH1 0xA0 SHL SUB AND PUSH1 0x1 PUSH1 0x1 PUSH1 0xA0 SHL SUB AND DUP2 MSTORE PUSH1 0x20 ADD SWAP1 DUP2 MSTORE PUSH1 0x20 ADD PUSH1 0x0 KECCAK256 PUSH1 0x2 ADD SLOAD SWAP1 POP SWAP1 JUMP JUMPDEST PUSH1 0x0 PUSH2 0x10FF PUSH2 0xBE0 JUMP JUMPDEST DUP3 LT PUSH2 0x111D JUMPI PUSH1 0x40 MLOAD PUSH3 0x461BCD PUSH1 0xE5 SHL DUP2 MSTORE PUSH1 0x4 ADD PUSH2 0x89E SWAP1 PUSH2 0x4846 JUMP JUMPDEST PUSH1 0x9 DUP3 DUP2 SLOAD DUP2 LT PUSH2 0x113E JUMPI PUSH4 0x4E487B71 PUSH1 0xE0 SHL PUSH1 0x0 MSTORE PUSH1 0x32 PUSH1 0x4 MSTORE PUSH1 0x24 PUSH1 0x0 REVERT JUMPDEST SWAP1 PUSH1 0x0 MSTORE PUSH1 0x20 PUSH1 0x0 KECCAK256 ADD SLOAD SWAP1 POP SWAP2 SWAP1 POP JUMP JUMPDEST PUSH1 0x60 PUSH2 0x115B DUP3 PUSH2 0x244D JUMP JUMPDEST PUSH2 0x1177 JUMPI PUSH1 0x40 MLOAD PUSH3 0x461BCD PUSH1 0xE5 SHL DUP2 MSTORE PUSH1 0x4 ADD PUSH2 0x89E SWAP1 PUSH2 0x4283 JUMP JUMPDEST PUSH1 0x60 PUSH1 0x16 PUSH1 0x0 DUP5 DUP2 MSTORE PUSH1 0x20 ADD SWAP1 DUP2 MSTORE PUSH1 0x20 ADD PUSH1 0x0 KECCAK256 PUSH1 0x40 MLOAD PUSH1 0x20 ADD PUSH2 0x119C SWAP2 SWAP1 PUSH2 0x38DE JUMP JUMPDEST PUSH1 0x40 MLOAD PUSH1 0x20 DUP2 DUP4 SUB SUB DUP2 MSTORE SWAP1 PUSH1 0x40 MSTORE DUP1 MLOAD SWAP1 PUSH1 0x20 ADD KECCAK256 PUSH1 0x10 PUSH2 0x11D3 PUSH1 0x18 PUSH1 0x0 DUP8 DUP2 MSTORE PUSH1 0x20 ADD SWAP1 DUP2 MSTORE PUSH1 0x20 ADD PUSH1 0x0 KECCAK256 PUSH1 0x5 ADD SLOAD PUSH2 0x26E4 JUMP JUMPDEST PUSH1 0x40 MLOAD PUSH1 0x20 ADD PUSH2 0x11E4 SWAP3 SWAP2 SWAP1 PUSH2 0x3923 JUMP JUMPDEST PUSH1 0x40 MLOAD PUSH1 0x20 DUP2 DUP4 SUB SUB DUP2 MSTORE SWAP1 PUSH1 0x40 MSTORE DUP1 MLOAD SWAP1 PUSH1 0x20 ADD KECCAK256 EQ ISZERO PUSH2 0x1241 JUMPI PUSH1 0x0 DUP4 DUP2 MSTORE PUSH1 0x18 PUSH1 0x20 MSTORE PUSH1 0x40 SWAP1 KECCAK256 PUSH1 0x5 ADD SLOAD PUSH2 0x121B SWAP1 PUSH2 0x26E4 JUMP JUMPDEST PUSH1 0x40 MLOAD PUSH1 0x20 ADD PUSH2 0x122B SWAP2 SWAP1 PUSH2 0x3AC3 JUMP JUMPDEST PUSH1 0x40 MLOAD PUSH1 0x20 DUP2 DUP4 SUB SUB DUP2 MSTORE SWAP1 PUSH1 0x40 MSTORE SWAP1 POP PUSH2 0x12CF JUMP JUMPDEST PUSH1 0x12 DUP1 SLOAD PUSH2 0x124E SWAP1 PUSH2 0x4B6B JUMP JUMPDEST DUP1 PUSH1 0x1F ADD PUSH1 0x20 DUP1 SWAP2 DIV MUL PUSH1 0x20 ADD PUSH1 0x40 MLOAD SWAP1 DUP2 ADD PUSH1 0x40 MSTORE DUP1 SWAP3 SWAP2 SWAP1 DUP2 DUP2 MSTORE PUSH1 0x20 ADD DUP3 DUP1 SLOAD PUSH2 0x127A SWAP1 PUSH2 0x4B6B JUMP JUMPDEST DUP1 ISZERO PUSH2 0x12C7 JUMPI DUP1 PUSH1 0x1F LT PUSH2 0x129C JUMPI PUSH2 0x100 DUP1 DUP4 SLOAD DIV MUL DUP4 MSTORE SWAP2 PUSH1 0x20 ADD SWAP2 PUSH2 0x12C7 JUMP JUMPDEST DUP3 ADD SWAP2 SWAP1 PUSH1 0x0 MSTORE PUSH1 0x20 PUSH1 0x0 KECCAK256 SWAP1 JUMPDEST DUP2 SLOAD DUP2 MSTORE SWAP1 PUSH1 0x1 ADD SWAP1 PUSH1 0x20 ADD DUP1 DUP4 GT PUSH2 0x12AA JUMPI DUP3 SWAP1 SUB PUSH1 0x1F AND DUP3 ADD SWAP2 JUMPDEST POP POP POP POP POP SWAP1 POP JUMPDEST PUSH1 0x0 DUP4 DUP2 MSTORE PUSH1 0x18 PUSH1 0x20 MSTORE PUSH1 0x40 DUP2 KECCAK256 PUSH1 0x1 DUP2 ADD DUP4 PUSH2 0x12EB DUP8 PUSH2 0x2854 JUMP JUMPDEST PUSH1 0x0 DUP9 DUP2 MSTORE PUSH1 0x18 PUSH1 0x20 MSTORE PUSH1 0x40 SWAP1 KECCAK256 PUSH1 0x2 ADD SLOAD PUSH2 0x1311 SWAP1 PUSH2 0x130C SWAP1 PUSH1 0x64 PUSH2 0x4ABD JUMP JUMPDEST PUSH2 0x2854 JUMP JUMPDEST PUSH1 0x0 DUP10 DUP2 MSTORE PUSH1 0x18 PUSH1 0x20 MSTORE PUSH1 0x40 SWAP1 KECCAK256 PUSH1 0x2 ADD SLOAD PUSH2 0x1332 SWAP1 PUSH2 0x130C SWAP1 PUSH1 0x64 PUSH2 0x4ABD JUMP JUMPDEST PUSH1 0x40 MLOAD PUSH1 0x20 ADD PUSH2 0x1347 SWAP7 SWAP6 SWAP5 SWAP4 SWAP3 SWAP2 SWAP1 PUSH2 0x3954 JUMP JUMPDEST PUSH1 0x40 MLOAD PUSH1 0x20 DUP2 DUP4 SUB SUB DUP2 MSTORE SWAP1 PUSH1 0x40 MSTORE SWAP1 POP PUSH1 0x0 DUP2 PUSH2 0x137A PUSH1 0x18 PUSH1 0x0 DUP9 DUP2 MSTORE PUSH1 0x20 ADD SWAP1 DUP2 MSTORE PUSH1 0x20 ADD PUSH1 0x0 KECCAK256 PUSH1 0x3 ADD SLOAD PUSH2 0x2854 JUMP JUMPDEST PUSH1 0x0 DUP8 DUP2 MSTORE PUSH1 0x18 PUSH1 0x20 MSTORE PUSH1 0x40 SWAP1 KECCAK256 PUSH1 0x6 DUP2 ADD SLOAD PUSH1 0x4 SWAP1 SWAP2 ADD SWAP1 PUSH2 0x139C SWAP1 PUSH2 0x2854 JUMP JUMPDEST PUSH1 0x40 MLOAD PUSH1 0x20 ADD PUSH2 0x13AF SWAP5 SWAP4 SWAP3 SWAP2 SWAP1 PUSH2 0x37AA JUMP JUMPDEST PUSH1 0x40 DUP1 MLOAD DUP1 DUP4 SUB PUSH1 0x1F NOT ADD DUP2 MSTORE SWAP2 SWAP1 MSTORE SWAP6 SWAP5 POP POP POP POP POP JUMP JUMPDEST PUSH1 0x13 SLOAD SWAP1 JUMP JUMPDEST PUSH1 0x0 DUP2 DUP2 MSTORE PUSH1 0x2 PUSH1 0x20 MSTORE PUSH1 0x40 DUP2 KECCAK256 SLOAD PUSH1 0x1 PUSH1 0x1 PUSH1 0xA0 SHL SUB AND DUP1 PUSH2 0x7DD JUMPI PUSH1 0x40 MLOAD PUSH3 0x461BCD PUSH1 0xE5 SHL DUP2 MSTORE PUSH1 0x4 ADD PUSH2 0x89E SWAP1 PUSH2 0x406B JUMP JUMPDEST PUSH2 0x140B PUSH2 0x246A JUMP JUMPDEST PUSH1 0x1 PUSH1 0x1 PUSH1 0xA0 SHL SUB AND PUSH2 0x141C PUSH2 0x1692 JUMP JUMPDEST PUSH1 0x1 PUSH1 0x1 PUSH1 0xA0 SHL SUB AND EQ PUSH2 0x1442 JUMPI PUSH1 0x40 MLOAD PUSH3 0x461BCD PUSH1 0xE5 SHL DUP2 MSTORE PUSH1 0x4 ADD PUSH2 0x89E SWAP1 PUSH2 0x43A3 JUMP JUMPDEST PUSH1 0xF DUP1 SLOAD PUSH2 0xFF00 NOT AND SWAP1 SSTORE JUMP JUMPDEST PUSH1 0x60 PUSH2 0x145A DUP3 PUSH2 0x244D JUMP JUMPDEST PUSH2 0x1476 JUMPI PUSH1 0x40 MLOAD PUSH3 0x461BCD PUSH1 0xE5 SHL DUP2 MSTORE PUSH1 0x4 ADD PUSH2 0x89E SWAP1 PUSH2 0x4283 JUMP JUMPDEST PUSH2 0x7DD DUP3 PUSH2 0x296F JUMP JUMPDEST PUSH2 0x1487 PUSH2 0x246A JUMP JUMPDEST PUSH1 0x1 PUSH1 0x1 PUSH1 0xA0 SHL SUB AND PUSH2 0x1498 PUSH2 0x1692 JUMP JUMPDEST PUSH1 0x1 PUSH1 0x1 PUSH1 0xA0 SHL SUB AND EQ PUSH2 0x14BE JUMPI PUSH1 0x40 MLOAD PUSH3 0x461BCD PUSH1 0xE5 SHL DUP2 MSTORE PUSH1 0x4 ADD PUSH2 0x89E SWAP1 PUSH2 0x43A3 JUMP JUMPDEST PUSH1 0x1 JUMPDEST PUSH2 0x14C9 PUSH2 0xBE0 JUMP JUMPDEST DUP2 GT PUSH2 0x1523 JUMPI DUP3 PUSH1 0x40 MLOAD PUSH1 0x20 ADD PUSH2 0x14E0 SWAP2 SWAP1 PUSH2 0x3662 JUMP JUMPDEST PUSH1 0x40 DUP1 MLOAD PUSH1 0x1F NOT DUP2 DUP5 SUB ADD DUP2 MSTORE SWAP2 DUP2 MSTORE PUSH1 0x0 DUP4 DUP2 MSTORE PUSH1 0x16 PUSH1 0x20 SWAP1 DUP2 MSTORE SWAP2 SWAP1 KECCAK256 DUP3 MLOAD PUSH2 0x1510 SWAP4 SWAP2 SWAP3 SWAP1 SWAP2 ADD SWAP1 PUSH2 0x30EC JUMP JUMPDEST POP DUP1 PUSH2 0x151B DUP2 PUSH2 0x4BA6 JUMP JUMPDEST SWAP2 POP POP PUSH2 0x14C1 JUMP JUMPDEST POP DUP1 MLOAD PUSH2 0x956 SWAP1 PUSH1 0x12 SWAP1 PUSH1 0x20 DUP5 ADD SWAP1 PUSH2 0x30EC JUMP JUMPDEST PUSH1 0x60 PUSH1 0x0 PUSH2 0x1544 DUP4 PUSH2 0x15F5 JUMP JUMPDEST SWAP1 POP PUSH1 0x0 DUP2 PUSH8 0xFFFFFFFFFFFFFFFF DUP2 GT ISZERO PUSH2 0x156F JUMPI PUSH4 0x4E487B71 PUSH1 0xE0 SHL PUSH1 0x0 MSTORE PUSH1 0x41 PUSH1 0x4 MSTORE PUSH1 0x24 PUSH1 0x0 REVERT JUMPDEST PUSH1 0x40 MLOAD SWAP1 DUP1 DUP3 MSTORE DUP1 PUSH1 0x20 MUL PUSH1 0x20 ADD DUP3 ADD PUSH1 0x40 MSTORE DUP1 ISZERO PUSH2 0x1598 JUMPI DUP2 PUSH1 0x20 ADD PUSH1 0x20 DUP3 MUL DUP1 CALLDATASIZE DUP4 CALLDATACOPY ADD SWAP1 POP JUMPDEST POP SWAP1 POP PUSH1 0x0 JUMPDEST DUP3 DUP2 LT ISZERO PUSH2 0x15ED JUMPI PUSH2 0x15B0 DUP6 DUP3 PUSH2 0xC6C JUMP JUMPDEST DUP3 DUP3 DUP2 MLOAD DUP2 LT PUSH2 0x15D0 JUMPI PUSH4 0x4E487B71 PUSH1 0xE0 SHL PUSH1 0x0 MSTORE PUSH1 0x32 PUSH1 0x4 MSTORE PUSH1 0x24 PUSH1 0x0 REVERT JUMPDEST PUSH1 0x20 SWAP1 DUP2 MUL SWAP2 SWAP1 SWAP2 ADD ADD MSTORE DUP1 PUSH2 0x15E5 DUP2 PUSH2 0x4BA6 JUMP JUMPDEST SWAP2 POP POP PUSH2 0x159E JUMP JUMPDEST POP SWAP4 SWAP3 POP POP POP JUMP JUMPDEST PUSH1 0x0 PUSH1 0x1 PUSH1 0x1 PUSH1 0xA0 SHL SUB DUP3 AND PUSH2 0x161D JUMPI PUSH1 0x40 MLOAD PUSH3 0x461BCD PUSH1 0xE5 SHL DUP2 MSTORE PUSH1 0x4 ADD PUSH2 0x89E SWAP1 PUSH2 0x3FAE JUMP JUMPDEST POP PUSH1 0x1 PUSH1 0x1 PUSH1 0xA0 SHL SUB AND PUSH1 0x0 SWAP1 DUP2 MSTORE PUSH1 0x3 PUSH1 0x20 MSTORE PUSH1 0x40 SWAP1 KECCAK256 SLOAD SWAP1 JUMP JUMPDEST PUSH2 0x1641 PUSH2 0x246A JUMP JUMPDEST PUSH1 0x1 PUSH1 0x1 PUSH1 0xA0 SHL SUB AND PUSH2 0x1652 PUSH2 0x1692 JUMP JUMPDEST PUSH1 0x1 PUSH1 0x1 PUSH1 0xA0 SHL SUB AND EQ PUSH2 0x1678 JUMPI PUSH1 0x40 MLOAD PUSH3 0x461BCD PUSH1 0xE5 SHL DUP2 MSTORE PUSH1 0x4 ADD PUSH2 0x89E SWAP1 PUSH2 0x43A3 JUMP JUMPDEST PUSH2 0x1682 PUSH1 0x0 PUSH2 0x2A88 JUMP JUMPDEST JUMP JUMPDEST PUSH1 0xF SLOAD PUSH2 0x100 SWAP1 DIV PUSH1 0xFF AND SWAP1 JUMP JUMPDEST PUSH1 0xB SLOAD PUSH1 0x1 PUSH1 0x1 PUSH1 0xA0 SHL SUB AND SWAP1 JUMP JUMPDEST PUSH1 0x60 PUSH1 0x1 DUP1 SLOAD PUSH2 0x7F4 SWAP1 PUSH2 0x4B6B JUMP JUMPDEST PUSH2 0x16B8 PUSH2 0x246A JUMP JUMPDEST PUSH1 0x1 PUSH1 0x1 PUSH1 0xA0 SHL SUB AND DUP3 PUSH1 0x1 PUSH1 0x1 PUSH1 0xA0 SHL SUB AND EQ ISZERO PUSH2 0x16E9 JUMPI PUSH1 0x40 MLOAD PUSH3 0x461BCD PUSH1 0xE5 SHL DUP2 MSTORE PUSH1 0x4 ADD PUSH2 0x89E SWAP1 PUSH2 0x3E52 JUMP JUMPDEST DUP1 PUSH1 0x5 PUSH1 0x0 PUSH2 0x16F6 PUSH2 0x246A JUMP JUMPDEST PUSH1 0x1 PUSH1 0x1 PUSH1 0xA0 SHL SUB SWAP1 DUP2 AND DUP3 MSTORE PUSH1 0x20 DUP1 DUP4 ADD SWAP4 SWAP1 SWAP4 MSTORE PUSH1 0x40 SWAP2 DUP3 ADD PUSH1 0x0 SWAP1 DUP2 KECCAK256 SWAP2 DUP8 AND DUP1 DUP3 MSTORE SWAP2 SWAP1 SWAP4 MSTORE SWAP2 KECCAK256 DUP1 SLOAD PUSH1 0xFF NOT AND SWAP3 ISZERO ISZERO SWAP3 SWAP1 SWAP3 OR SWAP1 SWAP2 SSTORE PUSH2 0x173A PUSH2 0x246A JUMP JUMPDEST PUSH1 0x1 PUSH1 0x1 PUSH1 0xA0 SHL SUB AND PUSH32 0x17307EAB39AB6107E8899845AD3D59BD9653F200F220920489CA2B5937696C31 DUP4 PUSH1 0x40 MLOAD PUSH2 0x1772 SWAP2 SWAP1 PUSH2 0x3BD8 JUMP JUMPDEST PUSH1 0x40 MLOAD DUP1 SWAP2 SUB SWAP1 LOG3 POP POP JUMP JUMPDEST PUSH1 0xE SLOAD SWAP1 JUMP JUMPDEST PUSH2 0x178C PUSH2 0x246A JUMP JUMPDEST PUSH1 0x1 PUSH1 0x1 PUSH1 0xA0 SHL SUB AND PUSH2 0x179D PUSH2 0x1692 JUMP JUMPDEST PUSH1 0x1 PUSH1 0x1 PUSH1 0xA0 SHL SUB AND EQ PUSH2 0x17C3 JUMPI PUSH1 0x40 MLOAD PUSH3 0x461BCD PUSH1 0xE5 SHL DUP2 MSTORE PUSH1 0x4 ADD PUSH2 0x89E SWAP1 PUSH2 0x43A3 JUMP JUMPDEST PUSH1 0x1 PUSH1 0x1 PUSH1 0xA0 SHL SUB DUP3 AND PUSH1 0x0 SWAP1 DUP2 MSTORE PUSH1 0x19 PUSH1 0x20 MSTORE PUSH1 0x40 SWAP1 KECCAK256 PUSH1 0x1 SWAP1 DUP2 ADD SLOAD PUSH1 0xFF AND ISZERO ISZERO EQ PUSH2 0x1803 JUMPI PUSH1 0x40 MLOAD PUSH3 0x461BCD PUSH1 0xE5 SHL DUP2 MSTORE PUSH1 0x4 ADD PUSH2 0x89E SWAP1 PUSH2 0x4625 JUMP JUMPDEST PUSH1 0x1 PUSH1 0x1 PUSH1 0xA0 SHL SUB DUP3 AND PUSH1 0x0 SWAP1 DUP2 MSTORE PUSH1 0x19 PUSH1 0x20 MSTORE PUSH1 0x40 SWAP1 KECCAK256 PUSH1 0x3 ADD SLOAD PUSH1 0xFF AND ISZERO ISZERO PUSH1 0x1 EQ PUSH2 0x1843 JUMPI PUSH1 0x40 MLOAD PUSH3 0x461BCD PUSH1 0xE5 SHL DUP2 MSTORE PUSH1 0x4 ADD PUSH2 0x89E SWAP1 PUSH2 0x4102 JUMP JUMPDEST PUSH1 0x1 PUSH1 0x1 PUSH1 0xA0 SHL SUB DUP3 AND PUSH1 0x0 SWAP1 DUP2 MSTORE PUSH1 0x19 PUSH1 0x20 MSTORE PUSH1 0x40 SWAP1 KECCAK256 PUSH1 0x2 ADD SLOAD PUSH2 0x186A SWAP1 DUP3 SWAP1 PUSH2 0x4A4A JUMP JUMPDEST PUSH1 0x1 PUSH1 0x1 PUSH1 0xA0 SHL SUB SWAP1 SWAP3 AND PUSH1 0x0 SWAP1 DUP2 MSTORE PUSH1 0x19 PUSH1 0x20 MSTORE PUSH1 0x40 SWAP1 KECCAK256 PUSH1 0x2 ADD SWAP2 SWAP1 SWAP2 SSTORE POP JUMP JUMPDEST PUSH2 0x1895 PUSH2 0x246A JUMP JUMPDEST PUSH1 0x1 PUSH1 0x1 PUSH1 0xA0 SHL SUB AND PUSH2 0x18A6 PUSH2 0x1692 JUMP JUMPDEST PUSH1 0x1 PUSH1 0x1 PUSH1 0xA0 SHL SUB AND EQ PUSH2 0x18CC JUMPI PUSH1 0x40 MLOAD PUSH3 0x461BCD PUSH1 0xE5 SHL DUP2 MSTORE PUSH1 0x4 ADD PUSH2 0x89E SWAP1 PUSH2 0x43A3 JUMP JUMPDEST PUSH1 0xF DUP1 SLOAD PUSH2 0xFF00 NOT AND PUSH2 0x100 OR SWAP1 SSTORE JUMP JUMPDEST PUSH2 0x18EE PUSH2 0x18E8 PUSH2 0x246A JUMP JUMPDEST DUP4 PUSH2 0x2532 JUMP JUMPDEST PUSH2 0x190A JUMPI PUSH1 0x40 MLOAD PUSH3 0x461BCD PUSH1 0xE5 SHL DUP2 MSTORE PUSH1 0x4 ADD PUSH2 0x89E SWAP1 PUSH2 0x4798 JUMP JUMPDEST PUSH2 0x1916 DUP5 DUP5 DUP5 DUP5 PUSH2 0x2ADA JUMP JUMPDEST POP POP POP POP JUMP JUMPDEST DUP1 PUSH2 0x1926 DUP2 PUSH2 0x13CE JUMP JUMPDEST PUSH1 0x1 PUSH1 0x1 PUSH1 0xA0 SHL SUB AND PUSH2 0x1937 PUSH2 0x246A JUMP JUMPDEST PUSH1 0x1 PUSH1 0x1 PUSH1 0xA0 SHL SUB AND EQ PUSH2 0x195D JUMPI PUSH1 0x40 MLOAD PUSH3 0x461BCD PUSH1 0xE5 SHL DUP2 MSTORE PUSH1 0x4 ADD PUSH2 0x89E SWAP1 PUSH2 0x4541 JUMP JUMPDEST PUSH1 0x0 PUSH2 0x1968 DUP4 PUSH2 0x877 JUMP JUMPDEST SWAP1 POP PUSH1 0x1 PUSH1 0x1 PUSH1 0xA0 SHL SUB DUP2 AND PUSH2 0x1990 JUMPI PUSH1 0x40 MLOAD PUSH3 0x461BCD PUSH1 0xE5 SHL DUP2 MSTORE PUSH1 0x4 ADD PUSH2 0x89E SWAP1 PUSH2 0x3D48 JUMP JUMPDEST PUSH2 0x199B PUSH1 0x0 DUP5 PUSH2 0x8C3 JUMP JUMPDEST PUSH32 0xB3C808F34460FC50F1B39B64CAB5FA4805E255497B8E5A36DC1338CC836C7B74 DUP2 DUP5 PUSH1 0x40 MLOAD PUSH2 0x19CC SWAP3 SWAP2 SWAP1 PUSH2 0x3B7B JUMP JUMPDEST PUSH1 0x40 MLOAD DUP1 SWAP2 SUB SWAP1 LOG1 POP POP POP JUMP JUMPDEST PUSH1 0x1 PUSH1 0x1 PUSH1 0xA0 SHL SUB AND PUSH1 0x0 SWAP1 DUP2 MSTORE PUSH1 0x19 PUSH1 0x20 MSTORE PUSH1 0x40 SWAP1 KECCAK256 PUSH1 0x1 ADD SLOAD PUSH1 0xFF AND SWAP1 JUMP JUMPDEST PUSH1 0x0 PUSH1 0x19 PUSH1 0x0 PUSH1 0x17 DUP5 PUSH1 0x40 MLOAD PUSH2 0x1A10 SWAP2 SWAP1 PUSH2 0x3662 JUMP JUMPDEST SWAP1 DUP2 MSTORE PUSH1 0x40 DUP1 MLOAD PUSH1 0x20 SWAP3 DUP2 SWAP1 SUB DUP4 ADD SWAP1 KECCAK256 SLOAD PUSH1 0x1 PUSH1 0x1 PUSH1 0xA0 SHL SUB AND DUP4 MSTORE SWAP1 DUP3 ADD SWAP3 SWAP1 SWAP3 MSTORE ADD PUSH1 0x0 KECCAK256 PUSH1 0x1 SWAP1 DUP2 ADD SLOAD PUSH1 0xFF AND ISZERO ISZERO EQ PUSH2 0x1A60 JUMPI PUSH1 0x40 MLOAD PUSH3 0x461BCD PUSH1 0xE5 SHL DUP2 MSTORE PUSH1 0x4 ADD PUSH2 0x89E SWAP1 PUSH2 0x4625 JUMP JUMPDEST PUSH1 0x17 DUP3 PUSH1 0x40 MLOAD PUSH2 0x1A70 SWAP2 SWAP1 PUSH2 0x3662 JUMP JUMPDEST SWAP1 DUP2 MSTORE PUSH1 0x40 MLOAD SWAP1 DUP2 SWAP1 SUB PUSH1 0x20 ADD SWAP1 KECCAK256 SLOAD PUSH1 0x1 PUSH1 0x1 PUSH1 0xA0 SHL SUB AND SWAP1 POP SWAP2 SWAP1 POP JUMP JUMPDEST PUSH1 0x60 PUSH2 0x1A9B DUP3 PUSH2 0x244D JUMP JUMPDEST PUSH2 0x1AB7 JUMPI PUSH1 0x40 MLOAD PUSH3 0x461BCD PUSH1 0xE5 SHL DUP2 MSTORE PUSH1 0x4 ADD PUSH2 0x89E SWAP1 PUSH2 0x4283 JUMP JUMPDEST PUSH1 0x60 PUSH1 0x16 PUSH1 0x0 DUP5 DUP2 MSTORE PUSH1 0x20 ADD SWAP1 DUP2 MSTORE PUSH1 0x20 ADD PUSH1 0x0 KECCAK256 PUSH1 0x40 MLOAD PUSH1 0x20 ADD PUSH2 0x1ADC SWAP2 SWAP1 PUSH2 0x38DE JUMP JUMPDEST PUSH1 0x40 MLOAD PUSH1 0x20 DUP2 DUP4 SUB SUB DUP2 MSTORE SWAP1 PUSH1 0x40 MSTORE DUP1 MLOAD SWAP1 PUSH1 0x20 ADD KECCAK256 PUSH1 0x10 PUSH2 0x1B13 PUSH1 0x18 PUSH1 0x0 DUP8 DUP2 MSTORE PUSH1 0x20 ADD SWAP1 DUP2 MSTORE PUSH1 0x20 ADD PUSH1 0x0 KECCAK256 PUSH1 0x5 ADD SLOAD PUSH2 0x26E4 JUMP JUMPDEST PUSH1 0x40 MLOAD PUSH1 0x20 ADD PUSH2 0x1B24 SWAP3 SWAP2 SWAP1 PUSH2 0x3923 JUMP JUMPDEST PUSH1 0x40 MLOAD PUSH1 0x20 DUP2 DUP4 SUB SUB DUP2 MSTORE SWAP1 PUSH1 0x40 MSTORE DUP1 MLOAD SWAP1 PUSH1 0x20 ADD KECCAK256 EQ ISZERO PUSH2 0x1B55 JUMPI POP PUSH1 0x40 DUP1 MLOAD PUSH1 0x20 DUP2 ADD SWAP1 SWAP2 MSTORE PUSH1 0x0 DUP2 MSTORE PUSH2 0x1BE3 JUMP JUMPDEST PUSH1 0x11 DUP1 SLOAD PUSH2 0x1B62 SWAP1 PUSH2 0x4B6B JUMP JUMPDEST DUP1 PUSH1 0x1F ADD PUSH1 0x20 DUP1 SWAP2 DIV MUL PUSH1 0x20 ADD PUSH1 0x40 MLOAD SWAP1 DUP2 ADD PUSH1 0x40 MSTORE DUP1 SWAP3 SWAP2 SWAP1 DUP2 DUP2 MSTORE PUSH1 0x20 ADD DUP3 DUP1 SLOAD PUSH2 0x1B8E SWAP1 PUSH2 0x4B6B JUMP JUMPDEST DUP1 ISZERO PUSH2 0x1BDB JUMPI DUP1 PUSH1 0x1F LT PUSH2 0x1BB0 JUMPI PUSH2 0x100 DUP1 DUP4 SLOAD DIV MUL DUP4 MSTORE SWAP2 PUSH1 0x20 ADD SWAP2 PUSH2 0x1BDB JUMP JUMPDEST DUP3 ADD SWAP2 SWAP1 PUSH1 0x0 MSTORE PUSH1 0x20 PUSH1 0x0 KECCAK256 SWAP1 JUMPDEST DUP2 SLOAD DUP2 MSTORE SWAP1 PUSH1 0x1 ADD SWAP1 PUSH1 0x20 ADD DUP1 DUP4 GT PUSH2 0x1BBE JUMPI DUP3 SWAP1 SUB PUSH1 0x1F AND DUP3 ADD SWAP2 JUMPDEST POP POP POP POP POP SWAP1 POP JUMPDEST PUSH1 0x0 DUP4 DUP2 MSTORE PUSH1 0x16 PUSH1 0x20 MSTORE PUSH1 0x40 DUP2 KECCAK256 PUSH2 0x1BFA DUP6 PUSH2 0x2854 JUMP JUMPDEST DUP4 PUSH1 0x40 MLOAD PUSH1 0x20 ADD PUSH2 0x1C0D SWAP4 SWAP3 SWAP2 SWAP1 PUSH2 0x38EA JUMP JUMPDEST PUSH1 0x40 DUP1 MLOAD DUP1 DUP4 SUB PUSH1 0x1F NOT ADD DUP2 MSTORE SWAP2 SWAP1 MSTORE SWAP5 SWAP4 POP POP POP POP JUMP JUMPDEST PUSH1 0x19 PUSH1 0x0 PUSH2 0x1C31 PUSH2 0x246A JUMP JUMPDEST PUSH1 0x1 PUSH1 0x1 PUSH1 0xA0 SHL SUB AND DUP2 MSTORE PUSH1 0x20 DUP2 ADD SWAP2 SWAP1 SWAP2 MSTORE PUSH1 0x40 ADD PUSH1 0x0 KECCAK256 PUSH1 0x3 ADD SLOAD PUSH1 0xFF AND ISZERO ISZERO PUSH1 0x1 EQ PUSH2 0x1C72 JUMPI PUSH1 0x40 MLOAD PUSH3 0x461BCD PUSH1 0xE5 SHL DUP2 MSTORE PUSH1 0x4 ADD PUSH2 0x89E SWAP1 PUSH2 0x4139 JUMP JUMPDEST PUSH2 0x1C7A PUSH2 0x10B5 JUMP JUMPDEST ISZERO ISZERO PUSH1 0x1 EQ PUSH2 0x1C9B JUMPI PUSH1 0x40 MLOAD PUSH3 0x461BCD PUSH1 0xE5 SHL DUP2 MSTORE PUSH1 0x4 ADD PUSH2 0x89E SWAP1 PUSH2 0x3E89 JUMP JUMPDEST PUSH1 0x0 DUP6 PUSH1 0x40 MLOAD PUSH1 0x20 ADD PUSH2 0x1CAE SWAP2 SWAP1 PUSH2 0x3662 JUMP JUMPDEST PUSH1 0x40 DUP1 MLOAD PUSH1 0x1F NOT DUP2 DUP5 SUB ADD DUP2 MSTORE SWAP2 DUP2 MSTORE DUP2 MLOAD PUSH1 0x20 SWAP3 DUP4 ADD KECCAK256 PUSH1 0x0 DUP2 DUP2 MSTORE PUSH1 0x15 SWAP1 SWAP4 MSTORE SWAP1 DUP3 KECCAK256 SLOAD DUP9 MLOAD SWAP2 SWAP4 POP PUSH1 0xFF AND SWAP2 TIMESTAMP SWAP1 DUP1 PUSH2 0x1CF5 DUP9 PUSH2 0x1CEF DUP2 PUSH1 0x2 PUSH2 0x4ABD JUMP JUMPDEST SWAP1 PUSH2 0x24DC JUMP JUMPDEST SWAP2 POP SWAP2 POP PUSH1 0x46 DUP11 MLOAD GT ISZERO PUSH2 0x1D1B JUMPI PUSH1 0x40 MLOAD PUSH3 0x461BCD PUSH1 0xE5 SHL DUP2 MSTORE PUSH1 0x4 ADD PUSH2 0x89E SWAP1 PUSH2 0x41F1 JUMP JUMPDEST PUSH1 0xA0 DUP10 MLOAD GT ISZERO PUSH2 0x1D3D JUMPI PUSH1 0x40 MLOAD PUSH3 0x461BCD PUSH1 0xE5 SHL DUP2 MSTORE PUSH1 0x4 ADD PUSH2 0x89E SWAP1 PUSH2 0x465C JUMP JUMPDEST PUSH1 0xC8 DUP8 GT ISZERO DUP1 ISZERO PUSH2 0x1D4F JUMPI POP PUSH1 0x2 DUP8 LT ISZERO JUMPDEST PUSH2 0x1D6B JUMPI PUSH1 0x40 MLOAD PUSH3 0x461BCD PUSH1 0xE5 SHL DUP2 MSTORE PUSH1 0x4 ADD PUSH2 0x89E SWAP1 PUSH2 0x4906 JUMP JUMPDEST DUP8 PUSH1 0x18 EQ DUP1 PUSH2 0x1D7A JUMPI POP DUP8 PUSH1 0x23 EQ JUMPDEST PUSH2 0x1D96 JUMPI PUSH1 0x40 MLOAD PUSH3 0x461BCD PUSH1 0xE5 SHL DUP2 MSTORE PUSH1 0x4 ADD PUSH2 0x89E SWAP1 PUSH2 0x4578 JUMP JUMPDEST DUP1 DUP5 EQ DUP1 ISZERO PUSH2 0x1DA7 JUMPI POP PUSH1 0x1 DUP3 ISZERO ISZERO EQ JUMPDEST PUSH1 0x40 MLOAD PUSH1 0x20 ADD PUSH2 0x1DB6 SWAP1 PUSH2 0x3A9A JUMP JUMPDEST PUSH1 0x40 MLOAD PUSH1 0x20 DUP2 DUP4 SUB SUB DUP2 MSTORE SWAP1 PUSH1 0x40 MSTORE SWAP1 PUSH2 0x1DE3 JUMPI PUSH1 0x40 MLOAD PUSH3 0x461BCD PUSH1 0xE5 SHL DUP2 MSTORE PUSH1 0x4 ADD PUSH2 0x89E SWAP2 SWAP1 PUSH2 0x3BE3 JUMP JUMPDEST POP DUP5 ISZERO PUSH2 0x1E02 JUMPI PUSH1 0x40 MLOAD PUSH3 0x461BCD PUSH1 0xE5 SHL DUP2 MSTORE PUSH1 0x4 ADD PUSH2 0x89E SWAP1 PUSH2 0x44E4 JUMP JUMPDEST PUSH1 0x0 PUSH2 0x1E0C PUSH2 0xBE0 JUMP JUMPDEST PUSH2 0x1E17 SWAP1 PUSH1 0x1 PUSH2 0x4A4A JUMP JUMPDEST SWAP1 POP PUSH1 0x1 PUSH2 0x1E23 PUSH2 0x10BE JUMP JUMPDEST LT ISZERO PUSH2 0x1E90 JUMPI PUSH1 0xE SLOAD CALLVALUE EQ PUSH2 0x1E4A JUMPI PUSH1 0x40 MLOAD PUSH3 0x461BCD PUSH1 0xE5 SHL DUP2 MSTORE PUSH1 0x4 ADD PUSH2 0x89E SWAP1 PUSH2 0x493D JUMP JUMPDEST PUSH2 0x1E52 PUSH2 0x1692 JUMP JUMPDEST PUSH1 0x1 PUSH1 0x1 PUSH1 0xA0 SHL SUB AND PUSH2 0x8FC CALLVALUE SWAP1 DUP2 ISZERO MUL SWAP1 PUSH1 0x40 MLOAD PUSH1 0x0 PUSH1 0x40 MLOAD DUP1 DUP4 SUB DUP2 DUP6 DUP9 DUP9 CALL SWAP4 POP POP POP POP ISZERO DUP1 ISZERO PUSH2 0x1E8A JUMPI RETURNDATASIZE PUSH1 0x0 DUP1 RETURNDATACOPY RETURNDATASIZE PUSH1 0x0 REVERT JUMPDEST POP PUSH2 0x1F3F JUMP JUMPDEST PUSH1 0x1 PUSH2 0x1E9A PUSH2 0x10BE JUMP JUMPDEST LT PUSH2 0x1F27 JUMPI CALLVALUE ISZERO PUSH2 0x1EBD JUMPI PUSH1 0x40 MLOAD PUSH3 0x461BCD PUSH1 0xE5 SHL DUP2 MSTORE PUSH1 0x4 ADD PUSH2 0x89E SWAP1 PUSH2 0x493D JUMP JUMPDEST PUSH1 0x1 PUSH1 0x19 PUSH1 0x0 PUSH2 0x1ECB PUSH2 0x246A JUMP JUMPDEST PUSH1 0x1 PUSH1 0x1 PUSH1 0xA0 SHL SUB AND PUSH1 0x1 PUSH1 0x1 PUSH1 0xA0 SHL SUB AND DUP2 MSTORE PUSH1 0x20 ADD SWAP1 DUP2 MSTORE PUSH1 0x20 ADD PUSH1 0x0 KECCAK256 PUSH1 0x2 ADD SLOAD PUSH2 0x1EF9 SWAP2 SWAP1 PUSH2 0x4B05 JUMP JUMPDEST PUSH1 0x19 PUSH1 0x0 PUSH2 0x1F05 PUSH2 0x246A JUMP JUMPDEST PUSH1 0x1 PUSH1 0x1 PUSH1 0xA0 SHL SUB AND DUP2 MSTORE PUSH1 0x20 DUP2 ADD SWAP2 SWAP1 SWAP2 MSTORE PUSH1 0x40 ADD PUSH1 0x0 KECCAK256 PUSH1 0x2 ADD SSTORE PUSH2 0x1F3F JUMP JUMPDEST PUSH1 0x40 MLOAD PUSH3 0x461BCD PUSH1 0xE5 SHL DUP2 MSTORE PUSH1 0x4 ADD PUSH2 0x89E SWAP1 PUSH2 0x46C4 JUMP JUMPDEST PUSH2 0x1F50 PUSH2 0x1F4A PUSH2 0x246A JUMP JUMPDEST DUP3 PUSH2 0x2B0D JUMP JUMPDEST PUSH1 0x0 DUP12 DUP12 PUSH2 0x1F5D DUP13 PUSH2 0x2854 JUMP JUMPDEST PUSH2 0x1F66 DUP13 PUSH2 0x2854 JUMP JUMPDEST PUSH2 0x1F6F DUP10 PUSH2 0x2854 JUMP JUMPDEST PUSH1 0x40 MLOAD PUSH1 0x20 ADD PUSH2 0x1F83 SWAP6 SWAP5 SWAP4 SWAP3 SWAP2 SWAP1 PUSH2 0x36AD JUMP JUMPDEST PUSH1 0x40 MLOAD PUSH1 0x20 DUP2 DUP4 SUB SUB DUP2 MSTORE SWAP1 PUSH1 0x40 MSTORE DUP1 MLOAD SWAP1 PUSH1 0x20 ADD KECCAK256 SWAP1 POP PUSH1 0x10 PUSH2 0x1FA6 DUP3 PUSH2 0x26E4 JUMP JUMPDEST PUSH1 0x40 MLOAD PUSH1 0x20 ADD PUSH2 0x1FB7 SWAP3 SWAP2 SWAP1 PUSH2 0x3923 JUMP JUMPDEST PUSH1 0x40 DUP1 MLOAD PUSH1 0x1F NOT DUP2 DUP5 SUB ADD DUP2 MSTORE SWAP2 DUP2 MSTORE PUSH1 0x0 DUP5 DUP2 MSTORE PUSH1 0x16 PUSH1 0x20 SWAP1 DUP2 MSTORE SWAP2 SWAP1 KECCAK256 DUP3 MLOAD PUSH2 0x1FE7 SWAP4 SWAP2 SWAP3 SWAP1 SWAP2 ADD SWAP1 PUSH2 0x30EC JUMP JUMPDEST POP PUSH1 0x40 MLOAD DUP1 PUSH1 0xE0 ADD PUSH1 0x40 MSTORE DUP1 DUP14 DUP2 MSTORE PUSH1 0x20 ADD DUP13 DUP2 MSTORE PUSH1 0x20 ADD DUP12 DUP2 MSTORE PUSH1 0x20 ADD DUP11 DUP2 MSTORE PUSH1 0x20 ADD PUSH1 0x19 PUSH1 0x0 PUSH2 0x2017 PUSH2 0x246A JUMP JUMPDEST PUSH1 0x1 PUSH1 0x1 PUSH1 0xA0 SHL SUB AND DUP2 MSTORE PUSH1 0x20 DUP2 ADD SWAP2 SWAP1 SWAP2 MSTORE PUSH1 0x40 ADD PUSH1 0x0 KECCAK256 DUP1 SLOAD PUSH2 0x203B SWAP1 PUSH2 0x4B6B JUMP JUMPDEST DUP1 PUSH1 0x1F ADD PUSH1 0x20 DUP1 SWAP2 DIV MUL PUSH1 0x20 ADD PUSH1 0x40 MLOAD SWAP1 DUP2 ADD PUSH1 0x40 MSTORE DUP1 SWAP3 SWAP2 SWAP1 DUP2 DUP2 MSTORE PUSH1 0x20 ADD DUP3 DUP1 SLOAD PUSH2 0x2067 SWAP1 PUSH2 0x4B6B JUMP JUMPDEST DUP1 ISZERO PUSH2 0x20B4 JUMPI DUP1 PUSH1 0x1F LT PUSH2 0x2089 JUMPI PUSH2 0x100 DUP1 DUP4 SLOAD DIV MUL DUP4 MSTORE SWAP2 PUSH1 0x20 ADD SWAP2 PUSH2 0x20B4 JUMP JUMPDEST DUP3 ADD SWAP2 SWAP1 PUSH1 0x0 MSTORE PUSH1 0x20 PUSH1 0x0 KECCAK256 SWAP1 JUMPDEST DUP2 SLOAD DUP2 MSTORE SWAP1 PUSH1 0x1 ADD SWAP1 PUSH1 0x20 ADD DUP1 DUP4 GT PUSH2 0x2097 JUMPI DUP3 SWAP1 SUB PUSH1 0x1F AND DUP3 ADD SWAP2 JUMPDEST POP POP POP SWAP2 DUP4 MSTORE POP POP PUSH1 0x20 DUP1 DUP3 ADD DUP5 SWAP1 MSTORE PUSH1 0x40 SWAP2 DUP3 ADD DUP9 SWAP1 MSTORE PUSH1 0x0 DUP6 DUP2 MSTORE PUSH1 0x18 DUP3 MSTORE SWAP2 SWAP1 SWAP2 KECCAK256 DUP3 MLOAD DUP1 MLOAD SWAP2 SWAP3 PUSH2 0x20EE SWAP3 DUP5 SWAP3 SWAP1 SWAP2 ADD SWAP1 PUSH2 0x30EC JUMP JUMPDEST POP PUSH1 0x20 DUP3 DUP2 ADD MLOAD DUP1 MLOAD PUSH2 0x2107 SWAP3 PUSH1 0x1 DUP6 ADD SWAP3 ADD SWAP1 PUSH2 0x30EC JUMP JUMPDEST POP PUSH1 0x40 DUP3 ADD MLOAD PUSH1 0x2 DUP3 ADD SSTORE PUSH1 0x60 DUP3 ADD MLOAD PUSH1 0x3 DUP3 ADD SSTORE PUSH1 0x80 DUP3 ADD MLOAD DUP1 MLOAD PUSH2 0x2137 SWAP2 PUSH1 0x4 DUP5 ADD SWAP2 PUSH1 0x20 SWAP1 SWAP2 ADD SWAP1 PUSH2 0x30EC JUMP JUMPDEST POP PUSH1 0xA0 DUP3 ADD MLOAD PUSH1 0x5 DUP3 ADD SSTORE PUSH1 0xC0 SWAP1 SWAP2 ADD MLOAD PUSH1 0x6 SWAP1 SWAP2 ADD SSTORE PUSH1 0x0 DUP9 DUP2 MSTORE PUSH1 0x15 PUSH1 0x20 MSTORE PUSH1 0x40 SWAP1 KECCAK256 DUP1 SLOAD PUSH1 0xFF NOT AND PUSH1 0x1 OR SWAP1 SSTORE PUSH2 0x216F PUSH2 0x246A JUMP JUMPDEST PUSH1 0x17 PUSH1 0x19 PUSH1 0x0 PUSH2 0x217D PUSH2 0x246A JUMP JUMPDEST PUSH1 0x1 PUSH1 0x1 PUSH1 0xA0 SHL SUB AND PUSH1 0x1 PUSH1 0x1 PUSH1 0xA0 SHL SUB AND DUP2 MSTORE PUSH1 0x20 ADD SWAP1 DUP2 MSTORE PUSH1 0x20 ADD PUSH1 0x0 KECCAK256 PUSH1 0x0 ADD PUSH1 0x40 MLOAD PUSH2 0x21AD SWAP2 SWAP1 PUSH2 0x38DE JUMP JUMPDEST SWAP1 DUP2 MSTORE PUSH1 0x40 MLOAD SWAP1 DUP2 SWAP1 SUB PUSH1 0x20 ADD SWAP1 KECCAK256 DUP1 SLOAD PUSH1 0x1 PUSH1 0x1 PUSH1 0xA0 SHL SUB SWAP3 SWAP1 SWAP3 AND PUSH1 0x1 PUSH1 0x1 PUSH1 0xA0 SHL SUB NOT SWAP1 SWAP3 AND SWAP2 SWAP1 SWAP2 OR SWAP1 SSTORE PUSH2 0x21E6 DUP3 DUP15 PUSH2 0x2B27 JUMP JUMPDEST PUSH32 0xDBA27CC41959328CC6FE5221B4029BA4D7DA3224919FEAB0FED994B1B5B5601E PUSH2 0x2210 DUP3 PUSH2 0x26E4 JUMP JUMPDEST DUP4 DUP8 ADDRESS PUSH1 0x40 MLOAD PUSH2 0x2223 SWAP5 SWAP4 SWAP3 SWAP2 SWAP1 PUSH2 0x3BF6 JUMP JUMPDEST PUSH1 0x40 MLOAD DUP1 SWAP2 SUB SWAP1 LOG1 POP POP POP POP POP POP POP POP POP POP POP POP POP JUMP JUMPDEST PUSH2 0x2242 PUSH2 0x246A JUMP JUMPDEST PUSH1 0x1 PUSH1 0x1 PUSH1 0xA0 SHL SUB AND PUSH2 0x2253 PUSH2 0x1692 JUMP JUMPDEST PUSH1 0x1 PUSH1 0x1 PUSH1 0xA0 SHL SUB AND EQ PUSH2 0x2279 JUMPI PUSH1 0x40 MLOAD PUSH3 0x461BCD PUSH1 0xE5 SHL DUP2 MSTORE PUSH1 0x4 ADD PUSH2 0x89E SWAP1 PUSH2 0x43A3 JUMP JUMPDEST PUSH1 0xF DUP1 SLOAD PUSH1 0xFF NOT AND SWAP1 SSTORE JUMP JUMPDEST PUSH1 0x60 PUSH2 0x2290 DUP3 PUSH2 0x244D JUMP JUMPDEST PUSH2 0x22AC JUMPI PUSH1 0x40 MLOAD PUSH3 0x461BCD PUSH1 0xE5 SHL DUP2 MSTORE PUSH1 0x4 ADD PUSH2 0x89E SWAP1 PUSH2 0x4283 JUMP JUMPDEST PUSH1 0x0 PUSH1 0x40 MLOAD DUP1 PUSH1 0x40 ADD PUSH1 0x40 MSTORE DUP1 PUSH1 0x17 DUP2 MSTORE PUSH1 0x20 ADD PUSH32 0x3C63616E7661732069643D224356222077696474683D22000000000000000000 DUP2 MSTORE POP SWAP1 POP PUSH1 0x0 PUSH1 0x40 MLOAD DUP1 PUSH1 0x40 ADD PUSH1 0x40 MSTORE DUP1 PUSH1 0xC DUP2 MSTORE PUSH1 0x20 ADD PUSH12 0x181811103432B4B3B43A1E91 PUSH1 0xA1 SHL DUP2 MSTORE POP SWAP1 POP PUSH1 0x0 PUSH1 0x40 MLOAD DUP1 PUSH1 0xE0 ADD PUSH1 0x40 MSTORE DUP1 PUSH1 0xBF DUP2 MSTORE PUSH1 0x20 ADD PUSH2 0x4C2E PUSH1 0xBF SWAP2 CODECOPY SWAP1 POP PUSH1 0x0 PUSH1 0x40 MLOAD DUP1 PUSH2 0x1000 ADD PUSH1 0x40 MSTORE DUP1 PUSH2 0xFDD DUP2 MSTORE PUSH1 0x20 ADD PUSH2 0x4CED PUSH2 0xFDD SWAP2 CODECOPY PUSH1 0x0 DUP8 DUP2 MSTORE PUSH1 0x18 PUSH1 0x20 MSTORE PUSH1 0x40 DUP2 KECCAK256 PUSH1 0x2 ADD SLOAD SWAP2 SWAP3 POP SWAP1 PUSH2 0x2369 SWAP1 PUSH2 0x2854 JUMP JUMPDEST SWAP1 POP PUSH1 0x0 DUP6 DUP3 DUP7 DUP5 DUP8 PUSH2 0x237B DUP14 PUSH2 0x296F JUMP JUMPDEST DUP9 PUSH1 0x40 MLOAD PUSH1 0x20 ADD PUSH2 0x2392 SWAP8 SWAP7 SWAP6 SWAP5 SWAP4 SWAP3 SWAP2 SWAP1 PUSH2 0x3718 JUMP JUMPDEST PUSH1 0x40 DUP1 MLOAD DUP1 DUP4 SUB PUSH1 0x1F NOT ADD DUP2 MSTORE SWAP2 SWAP1 MSTORE SWAP9 SWAP8 POP POP POP POP POP POP POP POP JUMP JUMPDEST PUSH1 0x1 PUSH1 0x1 PUSH1 0xA0 SHL SUB SWAP2 DUP3 AND PUSH1 0x0 SWAP1 DUP2 MSTORE PUSH1 0x5 PUSH1 0x20 SWAP1 DUP2 MSTORE PUSH1 0x40 DUP1 DUP4 KECCAK256 SWAP4 SWAP1 SWAP5 AND DUP3 MSTORE SWAP2 SWAP1 SWAP2 MSTORE KECCAK256 SLOAD PUSH1 0xFF AND SWAP1 JUMP JUMPDEST PUSH2 0x23E4 PUSH2 0x246A JUMP JUMPDEST PUSH1 0x1 PUSH1 0x1 PUSH1 0xA0 SHL SUB AND PUSH2 0x23F5 PUSH2 0x1692 JUMP JUMPDEST PUSH1 0x1 PUSH1 0x1 PUSH1 0xA0 SHL SUB AND EQ PUSH2 0x241B JUMPI PUSH1 0x40 MLOAD PUSH3 0x461BCD PUSH1 0xE5 SHL DUP2 MSTORE PUSH1 0x4 ADD PUSH2 0x89E SWAP1 PUSH2 0x43A3 JUMP JUMPDEST PUSH1 0x1 PUSH1 0x1 PUSH1 0xA0 SHL SUB DUP2 AND PUSH2 0x2441 JUMPI PUSH1 0x40 MLOAD PUSH3 0x461BCD PUSH1 0xE5 SHL DUP2 MSTORE PUSH1 0x4 ADD PUSH2 0x89E SWAP1 PUSH2 0x3CCB JUMP JUMPDEST PUSH2 0x244A DUP2 PUSH2 0x2A88 JUMP JUMPDEST POP JUMP JUMPDEST PUSH1 0x0 SWAP1 DUP2 MSTORE PUSH1 0x2 PUSH1 0x20 MSTORE PUSH1 0x40 SWAP1 KECCAK256 SLOAD PUSH1 0x1 PUSH1 0x1 PUSH1 0xA0 SHL SUB AND ISZERO ISZERO SWAP1 JUMP JUMPDEST CALLER SWAP1 JUMP JUMPDEST PUSH1 0x0 DUP2 DUP2 MSTORE PUSH1 0x4 PUSH1 0x20 MSTORE PUSH1 0x40 SWAP1 KECCAK256 DUP1 SLOAD PUSH1 0x1 PUSH1 0x1 PUSH1 0xA0 SHL SUB NOT AND PUSH1 0x1 PUSH1 0x1 PUSH1 0xA0 SHL SUB DUP5 AND SWAP1 DUP2 OR SWAP1 SWAP2 SSTORE DUP2 SWAP1 PUSH2 0x24A3 DUP3 PUSH2 0x13CE JUMP JUMPDEST PUSH1 0x1 PUSH1 0x1 PUSH1 0xA0 SHL SUB AND PUSH32 0x8C5BE1E5EBEC7D5BD14F71427D1E84F3DD0314C0F7B2291E5B200AC8C7C3B925 PUSH1 0x40 MLOAD PUSH1 0x40 MLOAD DUP1 SWAP2 SUB SWAP1 LOG4 POP POP JUMP JUMPDEST PUSH1 0x0 DUP1 DUP4 PUSH2 0x24F0 JUMPI POP PUSH1 0x1 SWAP1 POP PUSH1 0x0 PUSH2 0x252B JUMP JUMPDEST DUP4 DUP4 MUL DUP4 DUP6 DUP3 DUP2 PUSH2 0x2511 JUMPI PUSH4 0x4E487B71 PUSH1 0xE0 SHL PUSH1 0x0 MSTORE PUSH1 0x12 PUSH1 0x4 MSTORE PUSH1 0x24 PUSH1 0x0 REVERT JUMPDEST DIV EQ PUSH2 0x2524 JUMPI PUSH1 0x0 DUP1 SWAP3 POP SWAP3 POP POP PUSH2 0x252B JUMP JUMPDEST PUSH1 0x1 SWAP3 POP SWAP1 POP JUMPDEST SWAP3 POP SWAP3 SWAP1 POP JUMP JUMPDEST PUSH1 0x0 PUSH2 0x253D DUP3 PUSH2 0x244D JUMP JUMPDEST PUSH2 0x2559 JUMPI PUSH1 0x40 MLOAD PUSH3 0x461BCD PUSH1 0xE5 SHL DUP2 MSTORE PUSH1 0x4 ADD PUSH2 0x89E SWAP1 PUSH2 0x3F05 JUMP JUMPDEST PUSH1 0x0 PUSH2 0x2564 DUP4 PUSH2 0x13CE JUMP JUMPDEST SWAP1 POP DUP1 PUSH1 0x1 PUSH1 0x1 PUSH1 0xA0 SHL SUB AND DUP5 PUSH1 0x1 PUSH1 0x1 PUSH1 0xA0 SHL SUB AND EQ DUP1 PUSH2 0x259F JUMPI POP DUP4 PUSH1 0x1 PUSH1 0x1 PUSH1 0xA0 SHL SUB AND PUSH2 0x2594 DUP5 PUSH2 0x877 JUMP JUMPDEST PUSH1 0x1 PUSH1 0x1 PUSH1 0xA0 SHL SUB AND EQ JUMPDEST DUP1 PUSH2 0x25AF JUMPI POP PUSH2 0x25AF DUP2 DUP6 PUSH2 0x23AE JUMP JUMPDEST SWAP5 SWAP4 POP POP POP POP JUMP JUMPDEST DUP3 PUSH1 0x1 PUSH1 0x1 PUSH1 0xA0 SHL SUB AND PUSH2 0x25CA DUP3 PUSH2 0x13CE JUMP JUMPDEST PUSH1 0x1 PUSH1 0x1 PUSH1 0xA0 SHL SUB AND EQ PUSH2 0x25F0 JUMPI PUSH1 0x40 MLOAD PUSH3 0x461BCD PUSH1 0xE5 SHL DUP2 MSTORE PUSH1 0x4 ADD PUSH2 0x89E SWAP1 PUSH2 0x444C JUMP JUMPDEST PUSH1 0x1 PUSH1 0x1 PUSH1 0xA0 SHL SUB DUP3 AND PUSH2 0x2616 JUMPI PUSH1 0x40 MLOAD PUSH3 0x461BCD PUSH1 0xE5 SHL DUP2 MSTORE PUSH1 0x4 ADD PUSH2 0x89E SWAP1 PUSH2 0x3E0E JUMP JUMPDEST PUSH2 0x2621 DUP4 DUP4 DUP4 PUSH2 0x2B6B JUMP JUMPDEST PUSH2 0x262C PUSH1 0x0 DUP3 PUSH2 0x246E JUMP JUMPDEST PUSH1 0x1 PUSH1 0x1 PUSH1 0xA0 SHL SUB DUP4 AND PUSH1 0x0 SWAP1 DUP2 MSTORE PUSH1 0x3 PUSH1 0x20 MSTORE PUSH1 0x40 DUP2 KECCAK256 DUP1 SLOAD PUSH1 0x1 SWAP3 SWAP1 PUSH2 0x2655 SWAP1 DUP5 SWAP1 PUSH2 0x4B05 JUMP JUMPDEST SWAP1 SWAP2 SSTORE POP POP PUSH1 0x1 PUSH1 0x1 PUSH1 0xA0 SHL SUB DUP3 AND PUSH1 0x0 SWAP1 DUP2 MSTORE PUSH1 0x3 PUSH1 0x20 MSTORE PUSH1 0x40 DUP2 KECCAK256 DUP1 SLOAD PUSH1 0x1 SWAP3 SWAP1 PUSH2 0x2683 SWAP1 DUP5 SWAP1 PUSH2 0x4A4A JUMP JUMPDEST SWAP1 SWAP2 SSTORE POP POP PUSH1 0x0 DUP2 DUP2 MSTORE PUSH1 0x2 PUSH1 0x20 MSTORE PUSH1 0x40 DUP1 DUP3 KECCAK256 DUP1 SLOAD PUSH1 0x1 PUSH1 0x1 PUSH1 0xA0 SHL SUB NOT AND PUSH1 0x1 PUSH1 0x1 PUSH1 0xA0 SHL SUB DUP7 DUP2 AND SWAP2 DUP3 OR SWAP1 SWAP3 SSTORE SWAP2 MLOAD DUP5 SWAP4 SWAP2 DUP8 AND SWAP2 PUSH32 0xDDF252AD1BE2C89B69C2B068FC378DAA952BA7F163C4A11628F55A4DF523B3EF SWAP2 LOG4 POP POP POP JUMP JUMPDEST PUSH1 0x40 DUP1 MLOAD DUP2 DUP2 MSTORE PUSH1 0x60 DUP2 DUP2 ADD DUP4 MSTORE SWAP2 PUSH1 0x0 SWAP2 SWAP1 PUSH1 0x20 DUP3 ADD DUP2 DUP1 CALLDATASIZE DUP4 CALLDATACOPY ADD SWAP1 POP POP SWAP1 POP PUSH1 0x0 JUMPDEST PUSH1 0x20 DUP2 LT ISZERO PUSH2 0x282B JUMPI PUSH1 0x0 DUP5 DUP3 PUSH1 0x20 DUP2 LT PUSH2 0x2734 JUMPI PUSH4 0x4E487B71 PUSH1 0xE0 SHL PUSH1 0x0 MSTORE PUSH1 0x32 PUSH1 0x4 MSTORE PUSH1 0x24 PUSH1 0x0 REVERT JUMPDEST BYTE PUSH1 0xF8 SHL SWAP1 POP PUSH1 0x0 PUSH1 0x10 DUP3 PUSH1 0xF8 SHR PUSH2 0x274C SWAP2 SWAP1 PUSH2 0x4A9B JUMP JUMPDEST PUSH1 0xF8 SHL SWAP1 POP PUSH1 0x0 DUP2 PUSH1 0xF8 SHR PUSH1 0x10 PUSH2 0x2763 SWAP2 SWAP1 PUSH2 0x4ADC JUMP JUMPDEST DUP4 PUSH1 0xF8 SHR PUSH2 0x2771 SWAP2 SWAP1 PUSH2 0x4B1C JUMP JUMPDEST PUSH1 0xF8 SHL SWAP1 POP PUSH2 0x277F DUP3 PUSH2 0x2B76 JUMP JUMPDEST DUP6 PUSH2 0x278B DUP7 PUSH1 0x2 PUSH2 0x4ABD JUMP JUMPDEST DUP2 MLOAD DUP2 LT PUSH2 0x27A9 JUMPI PUSH4 0x4E487B71 PUSH1 0xE0 SHL PUSH1 0x0 MSTORE PUSH1 0x32 PUSH1 0x4 MSTORE PUSH1 0x24 PUSH1 0x0 REVERT JUMPDEST PUSH1 0x20 ADD ADD SWAP1 PUSH1 0x1 PUSH1 0x1 PUSH1 0xF8 SHL SUB NOT AND SWAP1 DUP2 PUSH1 0x0 BYTE SWAP1 MSTORE8 POP PUSH2 0x27C9 DUP2 PUSH2 0x2B76 JUMP JUMPDEST DUP6 PUSH2 0x27D5 DUP7 PUSH1 0x2 PUSH2 0x4ABD JUMP JUMPDEST PUSH2 0x27E0 SWAP1 PUSH1 0x1 PUSH2 0x4A4A JUMP JUMPDEST DUP2 MLOAD DUP2 LT PUSH2 0x27FE JUMPI PUSH4 0x4E487B71 PUSH1 0xE0 SHL PUSH1 0x0 MSTORE PUSH1 0x32 PUSH1 0x4 MSTORE PUSH1 0x24 PUSH1 0x0 REVERT JUMPDEST PUSH1 0x20 ADD ADD SWAP1 PUSH1 0x1 PUSH1 0x1 PUSH1 0xF8 SHL SUB NOT AND SWAP1 DUP2 PUSH1 0x0 BYTE SWAP1 MSTORE8 POP POP POP POP DUP1 DUP1 PUSH2 0x2823 SWAP1 PUSH2 0x4BA6 JUMP JUMPDEST SWAP2 POP POP PUSH2 0x2709 JUMP JUMPDEST POP DUP1 PUSH1 0x40 MLOAD PUSH1 0x20 ADD PUSH2 0x283D SWAP2 SWAP1 PUSH2 0x3A70 JUMP JUMPDEST PUSH1 0x40 MLOAD PUSH1 0x20 DUP2 DUP4 SUB SUB DUP2 MSTORE SWAP1 PUSH1 0x40 MSTORE SWAP2 POP POP SWAP2 SWAP1 POP JUMP JUMPDEST PUSH1 0x60 DUP2 PUSH2 0x2879 JUMPI POP PUSH1 0x40 DUP1 MLOAD DUP1 DUP3 ADD SWAP1 SWAP2 MSTORE PUSH1 0x1 DUP2 MSTORE PUSH1 0x3 PUSH1 0xFC SHL PUSH1 0x20 DUP3 ADD MSTORE PUSH2 0x7E0 JUMP JUMPDEST DUP2 PUSH1 0x0 JUMPDEST DUP2 ISZERO PUSH2 0x28A3 JUMPI DUP1 PUSH2 0x288D DUP2 PUSH2 0x4BA6 JUMP JUMPDEST SWAP2 POP PUSH2 0x289C SWAP1 POP PUSH1 0xA DUP4 PUSH2 0x4A87 JUMP JUMPDEST SWAP2 POP PUSH2 0x287D JUMP JUMPDEST PUSH1 0x0 DUP2 PUSH8 0xFFFFFFFFFFFFFFFF DUP2 GT ISZERO PUSH2 0x28CC JUMPI PUSH4 0x4E487B71 PUSH1 0xE0 SHL PUSH1 0x0 MSTORE PUSH1 0x41 PUSH1 0x4 MSTORE PUSH1 0x24 PUSH1 0x0 REVERT JUMPDEST PUSH1 0x40 MLOAD SWAP1 DUP1 DUP3 MSTORE DUP1 PUSH1 0x1F ADD PUSH1 0x1F NOT AND PUSH1 0x20 ADD DUP3 ADD PUSH1 0x40 MSTORE DUP1 ISZERO PUSH2 0x28F6 JUMPI PUSH1 0x20 DUP3 ADD DUP2 DUP1 CALLDATASIZE DUP4 CALLDATACOPY ADD SWAP1 POP JUMPDEST POP SWAP1 POP JUMPDEST DUP5 ISZERO PUSH2 0x25AF JUMPI PUSH2 0x290B PUSH1 0x1 DUP4 PUSH2 0x4B05 JUMP JUMPDEST SWAP2 POP PUSH2 0x2918 PUSH1 0xA DUP7 PUSH2 0x4BC1 JUMP JUMPDEST PUSH2 0x2923 SWAP1 PUSH1 0x30 PUSH2 0x4A4A JUMP JUMPDEST PUSH1 0xF8 SHL DUP2 DUP4 DUP2 MLOAD DUP2 LT PUSH2 0x2946 JUMPI PUSH4 0x4E487B71 PUSH1 0xE0 SHL PUSH1 0x0 MSTORE PUSH1 0x32 PUSH1 0x4 MSTORE PUSH1 0x24 PUSH1 0x0 REVERT JUMPDEST PUSH1 0x20 ADD ADD SWAP1 PUSH1 0x1 PUSH1 0x1 PUSH1 0xF8 SHL SUB NOT AND SWAP1 DUP2 PUSH1 0x0 BYTE SWAP1 MSTORE8 POP PUSH2 0x2968 PUSH1 0xA DUP7 PUSH2 0x4A87 JUMP JUMPDEST SWAP5 POP PUSH2 0x28FA JUMP JUMPDEST PUSH1 0x60 PUSH2 0x297A DUP3 PUSH2 0x244D JUMP JUMPDEST PUSH2 0x2996 JUMPI PUSH1 0x40 MLOAD PUSH3 0x461BCD PUSH1 0xE5 SHL DUP2 MSTORE PUSH1 0x4 ADD PUSH2 0x89E SWAP1 PUSH2 0x4283 JUMP JUMPDEST PUSH1 0x0 DUP3 DUP2 MSTORE PUSH1 0x6 PUSH1 0x20 MSTORE PUSH1 0x40 DUP2 KECCAK256 DUP1 SLOAD PUSH2 0x29AF SWAP1 PUSH2 0x4B6B JUMP JUMPDEST DUP1 PUSH1 0x1F ADD PUSH1 0x20 DUP1 SWAP2 DIV MUL PUSH1 0x20 ADD PUSH1 0x40 MLOAD SWAP1 DUP2 ADD PUSH1 0x40 MSTORE DUP1 SWAP3 SWAP2 SWAP1 DUP2 DUP2 MSTORE PUSH1 0x20 ADD DUP3 DUP1 SLOAD PUSH2 0x29DB SWAP1 PUSH2 0x4B6B JUMP JUMPDEST DUP1 ISZERO PUSH2 0x2A28 JUMPI DUP1 PUSH1 0x1F LT PUSH2 0x29FD JUMPI PUSH2 0x100 DUP1 DUP4 SLOAD DIV MUL DUP4 MSTORE SWAP2 PUSH1 0x20 ADD SWAP2 PUSH2 0x2A28 JUMP JUMPDEST DUP3 ADD SWAP2 SWAP1 PUSH1 0x0 MSTORE PUSH1 0x20 PUSH1 0x0 KECCAK256 SWAP1 JUMPDEST DUP2 SLOAD DUP2 MSTORE SWAP1 PUSH1 0x1 ADD SWAP1 PUSH1 0x20 ADD DUP1 DUP4 GT PUSH2 0x2A0B JUMPI DUP3 SWAP1 SUB PUSH1 0x1F AND DUP3 ADD SWAP2 JUMPDEST POP POP POP POP POP SWAP1 POP PUSH1 0x0 PUSH2 0x2A39 PUSH2 0x2BAD JUMP JUMPDEST SWAP1 POP DUP1 MLOAD PUSH1 0x0 EQ ISZERO PUSH2 0x2A4D JUMPI POP SWAP1 POP PUSH2 0x7E0 JUMP JUMPDEST DUP2 MLOAD ISZERO PUSH2 0x2A7F JUMPI DUP1 DUP3 PUSH1 0x40 MLOAD PUSH1 0x20 ADD PUSH2 0x2A67 SWAP3 SWAP2 SWAP1 PUSH2 0x367E JUMP JUMPDEST PUSH1 0x40 MLOAD PUSH1 0x20 DUP2 DUP4 SUB SUB DUP2 MSTORE SWAP1 PUSH1 0x40 MSTORE SWAP3 POP POP POP PUSH2 0x7E0 JUMP JUMPDEST PUSH2 0x25AF DUP5 PUSH2 0x2BBF JUMP JUMPDEST PUSH1 0xB DUP1 SLOAD PUSH1 0x1 PUSH1 0x1 PUSH1 0xA0 SHL SUB DUP4 DUP2 AND PUSH1 0x1 PUSH1 0x1 PUSH1 0xA0 SHL SUB NOT DUP4 AND DUP2 OR SWAP1 SWAP4 SSTORE PUSH1 0x40 MLOAD SWAP2 AND SWAP2 SWAP1 DUP3 SWAP1 PUSH32 0x8BE0079C531659141344CD1FD0A4F28419497F9722A3DAAFE3B4186F6B6457E0 SWAP1 PUSH1 0x0 SWAP1 LOG3 POP POP JUMP JUMPDEST PUSH2 0x2AE5 DUP5 DUP5 DUP5 PUSH2 0x25B7 JUMP JUMPDEST PUSH2 0x2AF1 DUP5 DUP5 DUP5 DUP5 PUSH2 0x2C32 JUMP JUMPDEST PUSH2 0x1916 JUMPI PUSH1 0x40 MLOAD PUSH3 0x461BCD PUSH1 0xE5 SHL DUP2 MSTORE PUSH1 0x4 ADD PUSH2 0x89E SWAP1 PUSH2 0x3C79 JUMP JUMPDEST PUSH2 0x10B1 DUP3 DUP3 PUSH1 0x40 MLOAD DUP1 PUSH1 0x20 ADD PUSH1 0x40 MSTORE DUP1 PUSH1 0x0 DUP2 MSTORE POP PUSH2 0x2D4D JUMP JUMPDEST PUSH2 0x2B30 DUP3 PUSH2 0x244D JUMP JUMPDEST PUSH2 0x2B4C JUMPI PUSH1 0x40 MLOAD PUSH3 0x461BCD PUSH1 0xE5 SHL DUP2 MSTORE PUSH1 0x4 ADD PUSH2 0x89E SWAP1 PUSH2 0x40B4 JUMP JUMPDEST PUSH1 0x0 DUP3 DUP2 MSTORE PUSH1 0x6 PUSH1 0x20 SWAP1 DUP2 MSTORE PUSH1 0x40 SWAP1 SWAP2 KECCAK256 DUP3 MLOAD PUSH2 0x956 SWAP3 DUP5 ADD SWAP1 PUSH2 0x30EC JUMP JUMPDEST PUSH2 0x956 DUP4 DUP4 DUP4 PUSH2 0x2D80 JUMP JUMPDEST PUSH1 0x0 PUSH1 0xA PUSH1 0xF8 DUP4 SWAP1 SHR LT ISZERO PUSH2 0x2B9E JUMPI PUSH2 0x2B94 PUSH1 0xF8 DUP4 SWAP1 SHR PUSH1 0x30 PUSH2 0x4A62 JUMP JUMPDEST PUSH1 0xF8 SHL SWAP1 POP PUSH2 0x7E0 JUMP JUMPDEST PUSH2 0x2B94 PUSH1 0xF8 DUP4 SWAP1 SHR PUSH1 0x57 PUSH2 0x4A62 JUMP JUMPDEST PUSH1 0x40 DUP1 MLOAD PUSH1 0x20 DUP2 ADD SWAP1 SWAP2 MSTORE PUSH1 0x0 DUP2 MSTORE SWAP1 JUMP JUMPDEST PUSH1 0x60 PUSH2 0x2BCA DUP3 PUSH2 0x244D JUMP JUMPDEST PUSH2 0x2BE6 JUMPI PUSH1 0x40 MLOAD PUSH3 0x461BCD PUSH1 0xE5 SHL DUP2 MSTORE PUSH1 0x4 ADD PUSH2 0x89E SWAP1 PUSH2 0x4495 JUMP JUMPDEST PUSH1 0x0 PUSH2 0x2BF0 PUSH2 0x2BAD JUMP JUMPDEST SWAP1 POP PUSH1 0x0 DUP2 MLOAD GT PUSH2 0x2C10 JUMPI PUSH1 0x40 MLOAD DUP1 PUSH1 0x20 ADD PUSH1 0x40 MSTORE DUP1 PUSH1 0x0 DUP2 MSTORE POP PUSH2 0x2C2B JUMP JUMPDEST DUP1 PUSH2 0x2C1A DUP5 PUSH2 0x2854 JUMP JUMPDEST PUSH1 0x40 MLOAD PUSH1 0x20 ADD PUSH2 0x283D SWAP3 SWAP2 SWAP1 PUSH2 0x367E JUMP JUMPDEST SWAP4 SWAP3 POP POP POP JUMP JUMPDEST PUSH1 0x0 PUSH2 0x2C46 DUP5 PUSH1 0x1 PUSH1 0x1 PUSH1 0xA0 SHL SUB AND PUSH2 0x2E09 JUMP JUMPDEST ISZERO PUSH2 0x2D42 JUMPI DUP4 PUSH1 0x1 PUSH1 0x1 PUSH1 0xA0 SHL SUB AND PUSH4 0x150B7A02 PUSH2 0x2C62 PUSH2 0x246A JUMP JUMPDEST DUP8 DUP7 DUP7 PUSH1 0x40 MLOAD DUP6 PUSH4 0xFFFFFFFF AND PUSH1 0xE0 SHL DUP2 MSTORE PUSH1 0x4 ADD PUSH2 0x2C84 SWAP5 SWAP4 SWAP3 SWAP2 SWAP1 PUSH2 0x3B3E JUMP JUMPDEST PUSH1 0x20 PUSH1 0x40 MLOAD DUP1 DUP4 SUB DUP2 PUSH1 0x0 DUP8 DUP1 EXTCODESIZE ISZERO DUP1 ISZERO PUSH2 0x2C9E JUMPI PUSH1 0x0 DUP1 REVERT JUMPDEST POP GAS CALL SWAP3 POP POP POP DUP1 ISZERO PUSH2 0x2CCE JUMPI POP PUSH1 0x40 DUP1 MLOAD PUSH1 0x1F RETURNDATASIZE SWAP1 DUP2 ADD PUSH1 0x1F NOT AND DUP3 ADD SWAP1 SWAP3 MSTORE PUSH2 0x2CCB SWAP2 DUP2 ADD SWAP1 PUSH2 0x33F6 JUMP JUMPDEST PUSH1 0x1 JUMPDEST PUSH2 0x2D28 JUMPI RETURNDATASIZE DUP1 DUP1 ISZERO PUSH2 0x2CFC JUMPI PUSH1 0x40 MLOAD SWAP2 POP PUSH1 0x1F NOT PUSH1 0x3F RETURNDATASIZE ADD AND DUP3 ADD PUSH1 0x40 MSTORE RETURNDATASIZE DUP3 MSTORE RETURNDATASIZE PUSH1 0x0 PUSH1 0x20 DUP5 ADD RETURNDATACOPY PUSH2 0x2D01 JUMP JUMPDEST PUSH1 0x60 SWAP2 POP JUMPDEST POP DUP1 MLOAD PUSH2 0x2D20 JUMPI PUSH1 0x40 MLOAD PUSH3 0x461BCD PUSH1 0xE5 SHL DUP2 MSTORE PUSH1 0x4 ADD PUSH2 0x89E SWAP1 PUSH2 0x3C79 JUMP JUMPDEST DUP1 MLOAD DUP2 PUSH1 0x20 ADD REVERT JUMPDEST PUSH1 0x1 PUSH1 0x1 PUSH1 0xE0 SHL SUB NOT AND PUSH4 0xA85BD01 PUSH1 0xE1 SHL EQ SWAP1 POP PUSH2 0x25AF JUMP JUMPDEST POP PUSH1 0x1 SWAP5 SWAP4 POP POP POP POP JUMP JUMPDEST PUSH2 0x2D57 DUP4 DUP4 PUSH2 0x2E0F JUMP JUMPDEST PUSH2 0x2D64 PUSH1 0x0 DUP5 DUP5 DUP5 PUSH2 0x2C32 JUMP JUMPDEST PUSH2 0x956 JUMPI PUSH1 0x40 MLOAD PUSH3 0x461BCD PUSH1 0xE5 SHL DUP2 MSTORE PUSH1 0x4 ADD PUSH2 0x89E SWAP1 PUSH2 0x3C79 JUMP JUMPDEST PUSH2 0x2D8B DUP4 DUP4 DUP4 PUSH2 0x956 JUMP JUMPDEST PUSH1 0x1 PUSH1 0x1 PUSH1 0xA0 SHL SUB DUP4 AND PUSH2 0x2DA7 JUMPI PUSH2 0x2DA2 DUP2 PUSH2 0x2EEE JUMP JUMPDEST PUSH2 0x2DCA JUMP JUMPDEST DUP2 PUSH1 0x1 PUSH1 0x1 PUSH1 0xA0 SHL SUB AND DUP4 PUSH1 0x1 PUSH1 0x1 PUSH1 0xA0 SHL SUB AND EQ PUSH2 0x2DCA JUMPI PUSH2 0x2DCA DUP4 DUP3 PUSH2 0x2F32 JUMP JUMPDEST PUSH1 0x1 PUSH1 0x1 PUSH1 0xA0 SHL SUB DUP3 AND PUSH2 0x2DE6 JUMPI PUSH2 0x2DE1 DUP2 PUSH2 0x2FCF JUMP JUMPDEST PUSH2 0x956 JUMP JUMPDEST DUP3 PUSH1 0x1 PUSH1 0x1 PUSH1 0xA0 SHL SUB AND DUP3 PUSH1 0x1 PUSH1 0x1 PUSH1 0xA0 SHL SUB AND EQ PUSH2 0x956 JUMPI PUSH2 0x956 DUP3 DUP3 PUSH2 0x30A8 JUMP JUMPDEST EXTCODESIZE ISZERO ISZERO SWAP1 JUMP JUMPDEST PUSH1 0x1 PUSH1 0x1 PUSH1 0xA0 SHL SUB DUP3 AND PUSH2 0x2E35 JUMPI PUSH1 0x40 MLOAD PUSH3 0x461BCD PUSH1 0xE5 SHL DUP2 MSTORE PUSH1 0x4 ADD PUSH2 0x89E SWAP1 PUSH2 0x424E JUMP JUMPDEST PUSH2 0x2E3E DUP2 PUSH2 0x244D JUMP JUMPDEST ISZERO PUSH2 0x2E5B JUMPI PUSH1 0x40 MLOAD PUSH3 0x461BCD PUSH1 0xE5 SHL DUP2 MSTORE PUSH1 0x4 ADD PUSH2 0x89E SWAP1 PUSH2 0x3D11 JUMP JUMPDEST PUSH2 0x2E67 PUSH1 0x0 DUP4 DUP4 PUSH2 0x2B6B JUMP JUMPDEST PUSH1 0x1 PUSH1 0x1 PUSH1 0xA0 SHL SUB DUP3 AND PUSH1 0x0 SWAP1 DUP2 MSTORE PUSH1 0x3 PUSH1 0x20 MSTORE PUSH1 0x40 DUP2 KECCAK256 DUP1 SLOAD PUSH1 0x1 SWAP3 SWAP1 PUSH2 0x2E90 SWAP1 DUP5 SWAP1 PUSH2 0x4A4A JUMP JUMPDEST SWAP1 SWAP2 SSTORE POP POP PUSH1 0x0 DUP2 DUP2 MSTORE PUSH1 0x2 PUSH1 0x20 MSTORE PUSH1 0x40 DUP1 DUP3 KECCAK256 DUP1 SLOAD PUSH1 0x1 PUSH1 0x1 PUSH1 0xA0 SHL SUB NOT AND PUSH1 0x1 PUSH1 0x1 PUSH1 0xA0 SHL SUB DUP7 AND SWAP1 DUP2 OR SWAP1 SWAP2 SSTORE SWAP1 MLOAD DUP4 SWAP3 SWAP1 PUSH32 0xDDF252AD1BE2C89B69C2B068FC378DAA952BA7F163C4A11628F55A4DF523B3EF SWAP1 DUP3 SWAP1 LOG4 POP POP JUMP JUMPDEST PUSH1 0x9 DUP1 SLOAD PUSH1 0x0 DUP4 DUP2 MSTORE PUSH1 0xA PUSH1 0x20 MSTORE PUSH1 0x40 DUP2 KECCAK256 DUP3 SWAP1 SSTORE PUSH1 0x1 DUP3 ADD DUP4 SSTORE SWAP2 SWAP1 SWAP2 MSTORE PUSH32 0x6E1540171B6C0C960B71A7020D9F60077F6AF931A8BBF590DA0223DACF75C7AF ADD SSTORE JUMP JUMPDEST PUSH1 0x0 PUSH1 0x1 PUSH2 0x2F3F DUP5 PUSH2 0x15F5 JUMP JUMPDEST PUSH2 0x2F49 SWAP2 SWAP1 PUSH2 0x4B05 JUMP JUMPDEST PUSH1 0x0 DUP4 DUP2 MSTORE PUSH1 0x8 PUSH1 0x20 MSTORE PUSH1 0x40 SWAP1 KECCAK256 SLOAD SWAP1 SWAP2 POP DUP1 DUP3 EQ PUSH2 0x2F9C JUMPI PUSH1 0x1 PUSH1 0x1 PUSH1 0xA0 SHL SUB DUP5 AND PUSH1 0x0 SWAP1 DUP2 MSTORE PUSH1 0x7 PUSH1 0x20 SWAP1 DUP2 MSTORE PUSH1 0x40 DUP1 DUP4 KECCAK256 DUP6 DUP5 MSTORE DUP3 MSTORE DUP1 DUP4 KECCAK256 SLOAD DUP5 DUP5 MSTORE DUP2 DUP5 KECCAK256 DUP2 SWAP1 SSTORE DUP4 MSTORE PUSH1 0x8 SWAP1 SWAP2 MSTORE SWAP1 KECCAK256 DUP2 SWAP1 SSTORE JUMPDEST POP PUSH1 0x0 SWAP2 DUP3 MSTORE PUSH1 0x8 PUSH1 0x20 SWAP1 DUP2 MSTORE PUSH1 0x40 DUP1 DUP5 KECCAK256 DUP5 SWAP1 SSTORE PUSH1 0x1 PUSH1 0x1 PUSH1 0xA0 SHL SUB SWAP1 SWAP5 AND DUP4 MSTORE PUSH1 0x7 DUP2 MSTORE DUP4 DUP4 KECCAK256 SWAP2 DUP4 MSTORE MSTORE SWAP1 DUP2 KECCAK256 SSTORE JUMP JUMPDEST PUSH1 0x9 SLOAD PUSH1 0x0 SWAP1 PUSH2 0x2FE1 SWAP1 PUSH1 0x1 SWAP1 PUSH2 0x4B05 JUMP JUMPDEST PUSH1 0x0 DUP4 DUP2 MSTORE PUSH1 0xA PUSH1 0x20 MSTORE PUSH1 0x40 DUP2 KECCAK256 SLOAD PUSH1 0x9 DUP1 SLOAD SWAP4 SWAP5 POP SWAP1 SWAP3 DUP5 SWAP1 DUP2 LT PUSH2 0x3017 JUMPI PUSH4 0x4E487B71 PUSH1 0xE0 SHL PUSH1 0x0 MSTORE PUSH1 0x32 PUSH1 0x4 MSTORE PUSH1 0x24 PUSH1 0x0 REVERT JUMPDEST SWAP1 PUSH1 0x0 MSTORE PUSH1 0x20 PUSH1 0x0 KECCAK256 ADD SLOAD SWAP1 POP DUP1 PUSH1 0x9 DUP4 DUP2 SLOAD DUP2 LT PUSH2 0x3046 JUMPI PUSH4 0x4E487B71 PUSH1 0xE0 SHL PUSH1 0x0 MSTORE PUSH1 0x32 PUSH1 0x4 MSTORE PUSH1 0x24 PUSH1 0x0 REVERT JUMPDEST PUSH1 0x0 SWAP2 DUP3 MSTORE PUSH1 0x20 DUP1 DUP4 KECCAK256 SWAP1 SWAP2 ADD SWAP3 SWAP1 SWAP3 SSTORE DUP3 DUP2 MSTORE PUSH1 0xA SWAP1 SWAP2 MSTORE PUSH1 0x40 DUP1 DUP3 KECCAK256 DUP5 SWAP1 SSTORE DUP6 DUP3 MSTORE DUP2 KECCAK256 SSTORE PUSH1 0x9 DUP1 SLOAD DUP1 PUSH2 0x308C JUMPI PUSH4 0x4E487B71 PUSH1 0xE0 SHL PUSH1 0x0 MSTORE PUSH1 0x31 PUSH1 0x4 MSTORE PUSH1 0x24 PUSH1 0x0 REVERT JUMPDEST PUSH1 0x1 SWAP1 SUB DUP2 DUP2 SWAP1 PUSH1 0x0 MSTORE PUSH1 0x20 PUSH1 0x0 KECCAK256 ADD PUSH1 0x0 SWAP1 SSTORE SWAP1 SSTORE POP POP POP POP JUMP JUMPDEST PUSH1 0x0 PUSH2 0x30B3 DUP4 PUSH2 0x15F5 JUMP JUMPDEST PUSH1 0x1 PUSH1 0x1 PUSH1 0xA0 SHL SUB SWAP1 SWAP4 AND PUSH1 0x0 SWAP1 DUP2 MSTORE PUSH1 0x7 PUSH1 0x20 SWAP1 DUP2 MSTORE PUSH1 0x40 DUP1 DUP4 KECCAK256 DUP7 DUP5 MSTORE DUP3 MSTORE DUP1 DUP4 KECCAK256 DUP6 SWAP1 SSTORE SWAP4 DUP3 MSTORE PUSH1 0x8 SWAP1 MSTORE SWAP2 SWAP1 SWAP2 KECCAK256 SWAP2 SWAP1 SWAP2 SSTORE POP JUMP JUMPDEST DUP3 DUP1 SLOAD PUSH2 0x30F8 SWAP1 PUSH2 0x4B6B JUMP JUMPDEST SWAP1 PUSH1 0x0 MSTORE PUSH1 0x20 PUSH1 0x0 KECCAK256 SWAP1 PUSH1 0x1F ADD PUSH1 0x20 SWAP1 DIV DUP2 ADD SWAP3 DUP3 PUSH2 0x311A JUMPI PUSH1 0x0 DUP6 SSTORE PUSH2 0x3160 JUMP JUMPDEST DUP3 PUSH1 0x1F LT PUSH2 0x3133 JUMPI DUP1 MLOAD PUSH1 0xFF NOT AND DUP4 DUP1 ADD OR DUP6 SSTORE PUSH2 0x3160 JUMP JUMPDEST DUP3 DUP1 ADD PUSH1 0x1 ADD DUP6 SSTORE DUP3 ISZERO PUSH2 0x3160 JUMPI SWAP2 DUP3 ADD JUMPDEST DUP3 DUP2 GT ISZERO PUSH2 0x3160 JUMPI DUP3 MLOAD DUP3 SSTORE SWAP2 PUSH1 0x20 ADD SWAP2 SWAP1 PUSH1 0x1 ADD SWAP1 PUSH2 0x3145 JUMP JUMPDEST POP PUSH2 0x316C SWAP3 SWAP2 POP PUSH2 0x3170 JUMP JUMPDEST POP SWAP1 JUMP JUMPDEST JUMPDEST DUP1 DUP3 GT ISZERO PUSH2 0x316C JUMPI PUSH1 0x0 DUP2 SSTORE PUSH1 0x1 ADD PUSH2 0x3171 JUMP JUMPDEST PUSH1 0x0 PUSH8 0xFFFFFFFFFFFFFFFF DUP1 DUP5 GT ISZERO PUSH2 0x31A0 JUMPI PUSH2 0x31A0 PUSH2 0x4C01 JUMP JUMPDEST PUSH1 0x40 MLOAD PUSH1 0x1F DUP6 ADD PUSH1 0x1F NOT AND DUP2 ADD PUSH1 0x20 ADD DUP3 DUP2 GT DUP3 DUP3 LT OR ISZERO PUSH2 0x31C4 JUMPI PUSH2 0x31C4 PUSH2 0x4C01 JUMP JUMPDEST PUSH1 0x40 MSTORE DUP5 DUP2 MSTORE SWAP2 POP DUP2 DUP4 DUP6 ADD DUP7 LT ISZERO PUSH2 0x31DC JUMPI PUSH1 0x0 DUP1 REVERT JUMPDEST DUP5 DUP5 PUSH1 0x20 DUP4 ADD CALLDATACOPY PUSH1 0x0 PUSH1 0x20 DUP7 DUP4 ADD ADD MSTORE POP POP SWAP4 SWAP3 POP POP POP JUMP JUMPDEST DUP1 CALLDATALOAD PUSH1 0x1 PUSH1 0x1 PUSH1 0xA0 SHL SUB DUP2 AND DUP2 EQ PUSH2 0x7E0 JUMPI PUSH1 0x0 DUP1 REVERT JUMPDEST PUSH1 0x0 DUP3 PUSH1 0x1F DUP4 ADD SLT PUSH2 0x321C JUMPI DUP1 DUP2 REVERT JUMPDEST PUSH2 0x2C2B DUP4 DUP4 CALLDATALOAD PUSH1 0x20 DUP6 ADD PUSH2 0x3185 JUMP JUMPDEST PUSH1 0x0 PUSH1 0x20 DUP3 DUP5 SUB SLT ISZERO PUSH2 0x323C JUMPI DUP1 DUP2 REVERT JUMPDEST PUSH2 0x2C2B DUP3 PUSH2 0x31F5 JUMP JUMPDEST PUSH1 0x0 DUP1 PUSH1 0x40 DUP4 DUP6 SUB SLT ISZERO PUSH2 0x3257 JUMPI DUP1 DUP2 REVERT JUMPDEST PUSH2 0x3260 DUP4 PUSH2 0x31F5 JUMP JUMPDEST SWAP2 POP PUSH2 0x326E PUSH1 0x20 DUP5 ADD PUSH2 0x31F5 JUMP JUMPDEST SWAP1 POP SWAP3 POP SWAP3 SWAP1 POP JUMP JUMPDEST PUSH1 0x0 DUP1 PUSH1 0x0 PUSH1 0x60 DUP5 DUP7 SUB SLT ISZERO PUSH2 0x328B JUMPI DUP1 DUP2 REVERT JUMPDEST PUSH2 0x3294 DUP5 PUSH2 0x31F5 JUMP JUMPDEST SWAP3 POP PUSH2 0x32A2 PUSH1 0x20 DUP6 ADD PUSH2 0x31F5 JUMP JUMPDEST SWAP2 POP PUSH1 0x40 DUP5 ADD CALLDATALOAD SWAP1 POP SWAP3 POP SWAP3 POP SWAP3 JUMP JUMPDEST PUSH1 0x0 DUP1 PUSH1 0x0 DUP1 PUSH1 0x80 DUP6 DUP8 SUB SLT ISZERO PUSH2 0x32C7 JUMPI DUP1 DUP2 REVERT JUMPDEST PUSH2 0x32D0 DUP6 PUSH2 0x31F5 JUMP JUMPDEST SWAP4 POP PUSH2 0x32DE PUSH1 0x20 DUP7 ADD PUSH2 0x31F5 JUMP JUMPDEST SWAP3 POP PUSH1 0x40 DUP6 ADD CALLDATALOAD SWAP2 POP PUSH1 0x60 DUP6 ADD CALLDATALOAD PUSH8 0xFFFFFFFFFFFFFFFF DUP2 GT ISZERO PUSH2 0x3300 JUMPI DUP2 DUP3 REVERT JUMPDEST DUP6 ADD PUSH1 0x1F DUP2 ADD DUP8 SGT PUSH2 0x3310 JUMPI DUP2 DUP3 REVERT JUMPDEST PUSH2 0x331F DUP8 DUP3 CALLDATALOAD PUSH1 0x20 DUP5 ADD PUSH2 0x3185 JUMP JUMPDEST SWAP2 POP POP SWAP3 SWAP6 SWAP2 SWAP5 POP SWAP3 POP JUMP JUMPDEST PUSH1 0x0 DUP1 PUSH1 0x40 DUP4 DUP6 SUB SLT ISZERO PUSH2 0x333D JUMPI DUP2 DUP3 REVERT JUMPDEST PUSH2 0x3346 DUP4 PUSH2 0x31F5 JUMP JUMPDEST SWAP2 POP PUSH1 0x20 DUP4 ADD CALLDATALOAD DUP1 ISZERO ISZERO DUP2 EQ PUSH2 0x335A JUMPI DUP2 DUP3 REVERT JUMPDEST DUP1 SWAP2 POP POP SWAP3 POP SWAP3 SWAP1 POP JUMP JUMPDEST PUSH1 0x0 DUP1 PUSH1 0x40 DUP4 DUP6 SUB SLT ISZERO PUSH2 0x3377 JUMPI DUP2 DUP3 REVERT JUMPDEST PUSH2 0x3380 DUP4 PUSH2 0x31F5 JUMP JUMPDEST SWAP2 POP PUSH1 0x20 DUP4 ADD CALLDATALOAD PUSH8 0xFFFFFFFFFFFFFFFF DUP2 GT ISZERO PUSH2 0x339B JUMPI DUP2 DUP3 REVERT JUMPDEST PUSH2 0x33A7 DUP6 DUP3 DUP7 ADD PUSH2 0x320C JUMP JUMPDEST SWAP2 POP POP SWAP3 POP SWAP3 SWAP1 POP JUMP JUMPDEST PUSH1 0x0 DUP1 PUSH1 0x40 DUP4 DUP6 SUB SLT ISZERO PUSH2 0x33C3 JUMPI DUP2 DUP3 REVERT JUMPDEST PUSH2 0x33CC DUP4 PUSH2 0x31F5 JUMP JUMPDEST SWAP5 PUSH1 0x20 SWAP4 SWAP1 SWAP4 ADD CALLDATALOAD SWAP4 POP POP POP JUMP JUMPDEST PUSH1 0x0 PUSH1 0x20 DUP3 DUP5 SUB SLT ISZERO PUSH2 0x33EB JUMPI DUP1 DUP2 REVERT JUMPDEST DUP2 CALLDATALOAD PUSH2 0x2C2B DUP2 PUSH2 0x4C17 JUMP JUMPDEST PUSH1 0x0 PUSH1 0x20 DUP3 DUP5 SUB SLT ISZERO PUSH2 0x3407 JUMPI DUP1 DUP2 REVERT JUMPDEST DUP2 MLOAD PUSH2 0x2C2B DUP2 PUSH2 0x4C17 JUMP JUMPDEST PUSH1 0x0 PUSH1 0x20 DUP3 DUP5 SUB SLT ISZERO PUSH2 0x3423 JUMPI DUP1 DUP2 REVERT JUMPDEST DUP2 CALLDATALOAD PUSH8 0xFFFFFFFFFFFFFFFF DUP2 GT ISZERO PUSH2 0x3439 JUMPI DUP2 DUP3 REVERT JUMPDEST PUSH2 0x25AF DUP5 DUP3 DUP6 ADD PUSH2 0x320C JUMP JUMPDEST PUSH1 0x0 DUP1 PUSH1 0x40 DUP4 DUP6 SUB SLT ISZERO PUSH2 0x3457 JUMPI DUP2 DUP3 REVERT JUMPDEST DUP3 CALLDATALOAD PUSH8 0xFFFFFFFFFFFFFFFF DUP1 DUP3 GT ISZERO PUSH2 0x346E JUMPI DUP4 DUP5 REVERT JUMPDEST PUSH2 0x347A DUP7 DUP4 DUP8 ADD PUSH2 0x320C JUMP JUMPDEST SWAP4 POP PUSH1 0x20 DUP6 ADD CALLDATALOAD SWAP2 POP DUP1 DUP3 GT ISZERO PUSH2 0x348F JUMPI DUP3 DUP4 REVERT JUMPDEST POP PUSH2 0x33A7 DUP6 DUP3 DUP7 ADD PUSH2 0x320C JUMP JUMPDEST PUSH1 0x0 DUP1 PUSH1 0x0 DUP1 PUSH1 0x0 PUSH1 0xA0 DUP7 DUP9 SUB SLT ISZERO PUSH2 0x34B3 JUMPI DUP1 DUP2 REVERT JUMPDEST DUP6 CALLDATALOAD PUSH8 0xFFFFFFFFFFFFFFFF DUP1 DUP3 GT ISZERO PUSH2 0x34CA JUMPI DUP3 DUP4 REVERT JUMPDEST PUSH2 0x34D6 DUP10 DUP4 DUP11 ADD PUSH2 0x320C JUMP JUMPDEST SWAP7 POP PUSH1 0x20 DUP9 ADD CALLDATALOAD SWAP2 POP DUP1 DUP3 GT ISZERO PUSH2 0x34EB JUMPI DUP3 DUP4 REVERT JUMPDEST PUSH2 0x34F7 DUP10 DUP4 DUP11 ADD PUSH2 0x320C JUMP JUMPDEST SWAP6 POP PUSH1 0x40 DUP9 ADD CALLDATALOAD SWAP2 POP DUP1 DUP3 GT ISZERO PUSH2 0x350C JUMPI DUP3 DUP4 REVERT JUMPDEST POP PUSH2 0x3519 DUP9 DUP3 DUP10 ADD PUSH2 0x320C JUMP JUMPDEST SWAP6 SWAP9 SWAP5 SWAP8 POP SWAP5 SWAP6 PUSH1 0x60 DUP2 ADD CALLDATALOAD SWAP6 POP PUSH1 0x80 ADD CALLDATALOAD SWAP4 SWAP3 POP POP POP JUMP JUMPDEST PUSH1 0x0 PUSH1 0x20 DUP3 DUP5 SUB SLT ISZERO PUSH2 0x3543 JUMPI DUP1 DUP2 REVERT JUMPDEST POP CALLDATALOAD SWAP2 SWAP1 POP JUMP JUMPDEST PUSH1 0x0 DUP2 MLOAD DUP1 DUP5 MSTORE PUSH2 0x3562 DUP2 PUSH1 0x20 DUP7 ADD PUSH1 0x20 DUP7 ADD PUSH2 0x4B3F JUMP JUMPDEST PUSH1 0x1F ADD PUSH1 0x1F NOT AND SWAP3 SWAP1 SWAP3 ADD PUSH1 0x20 ADD SWAP3 SWAP2 POP POP JUMP JUMPDEST PUSH1 0x0 DUP2 MLOAD PUSH2 0x3588 DUP2 DUP6 PUSH1 0x20 DUP7 ADD PUSH2 0x4B3F JUMP JUMPDEST SWAP3 SWAP1 SWAP3 ADD SWAP3 SWAP2 POP POP JUMP JUMPDEST DUP1 SLOAD PUSH1 0x0 SWAP1 PUSH1 0x2 DUP2 DIV PUSH1 0x1 DUP1 DUP4 AND DUP1 PUSH2 0x35AC JUMPI PUSH1 0x7F DUP4 AND SWAP3 POP JUMPDEST PUSH1 0x20 DUP1 DUP5 LT DUP3 EQ ISZERO PUSH2 0x35CC JUMPI PUSH4 0x4E487B71 PUSH1 0xE0 SHL DUP7 MSTORE PUSH1 0x22 PUSH1 0x4 MSTORE PUSH1 0x24 DUP7 REVERT JUMPDEST DUP2 DUP1 ISZERO PUSH2 0x35E0 JUMPI PUSH1 0x1 DUP2 EQ PUSH2 0x35F1 JUMPI PUSH2 0x361E JUMP JUMPDEST PUSH1 0xFF NOT DUP7 AND DUP10 MSTORE DUP5 DUP10 ADD SWAP7 POP PUSH2 0x361E JUMP JUMPDEST PUSH2 0x35FA DUP9 PUSH2 0x4A3E JUMP JUMPDEST PUSH1 0x0 JUMPDEST DUP7 DUP2 LT ISZERO PUSH2 0x3616 JUMPI DUP2 SLOAD DUP12 DUP3 ADD MSTORE SWAP1 DUP6 ADD SWAP1 DUP4 ADD PUSH2 0x35FD JUMP JUMPDEST POP POP DUP5 DUP10 ADD SWAP7 POP JUMPDEST POP POP POP POP POP POP SWAP3 SWAP2 POP POP JUMP JUMPDEST PUSH3 0x89F4B PUSH1 0xEA SHL DUP2 MSTORE PUSH1 0x3 ADD SWAP1 JUMP JUMPDEST PUSH3 0x227D5D PUSH1 0xE8 SHL DUP2 MSTORE PUSH1 0x3 ADD SWAP1 JUMP JUMPDEST PUSH1 0xF PUSH1 0xFB SHL DUP2 MSTORE PUSH1 0x1 ADD SWAP1 JUMP JUMPDEST PUSH1 0x7D PUSH1 0xF8 SHL DUP2 MSTORE PUSH1 0x1 ADD SWAP1 JUMP JUMPDEST PUSH1 0x0 DUP3 MLOAD PUSH2 0x3674 DUP2 DUP5 PUSH1 0x20 DUP8 ADD PUSH2 0x4B3F JUMP JUMPDEST SWAP2 SWAP1 SWAP2 ADD SWAP3 SWAP2 POP POP JUMP JUMPDEST PUSH1 0x0 DUP4 MLOAD PUSH2 0x3690 DUP2 DUP5 PUSH1 0x20 DUP9 ADD PUSH2 0x4B3F JUMP JUMPDEST DUP4 MLOAD SWAP1 DUP4 ADD SWAP1 PUSH2 0x36A4 DUP2 DUP4 PUSH1 0x20 DUP9 ADD PUSH2 0x4B3F JUMP JUMPDEST ADD SWAP5 SWAP4 POP POP POP POP JUMP JUMPDEST PUSH1 0x0 DUP7 MLOAD PUSH2 0x36BF DUP2 DUP5 PUSH1 0x20 DUP12 ADD PUSH2 0x4B3F JUMP JUMPDEST DUP7 MLOAD SWAP1 DUP4 ADD SWAP1 PUSH2 0x36D3 DUP2 DUP4 PUSH1 0x20 DUP12 ADD PUSH2 0x4B3F JUMP JUMPDEST DUP7 MLOAD SWAP2 ADD SWAP1 PUSH2 0x36E6 DUP2 DUP4 PUSH1 0x20 DUP11 ADD PUSH2 0x4B3F JUMP JUMPDEST DUP6 MLOAD SWAP2 ADD SWAP1 PUSH2 0x36F9 DUP2 DUP4 PUSH1 0x20 DUP10 ADD PUSH2 0x4B3F JUMP JUMPDEST DUP5 MLOAD SWAP2 ADD SWAP1 PUSH2 0x370C DUP2 DUP4 PUSH1 0x20 DUP9 ADD PUSH2 0x4B3F JUMP JUMPDEST ADD SWAP8 SWAP7 POP POP POP POP POP POP POP JUMP JUMPDEST PUSH1 0x0 DUP9 MLOAD PUSH1 0x20 PUSH2 0x372B DUP3 DUP6 DUP4 DUP15 ADD PUSH2 0x4B3F JUMP JUMPDEST DUP10 MLOAD SWAP2 DUP5 ADD SWAP2 PUSH2 0x373E DUP2 DUP5 DUP5 DUP15 ADD PUSH2 0x4B3F JUMP JUMPDEST DUP10 MLOAD SWAP3 ADD SWAP2 PUSH2 0x3750 DUP2 DUP5 DUP5 DUP14 ADD PUSH2 0x4B3F JUMP JUMPDEST DUP9 MLOAD SWAP3 ADD SWAP2 PUSH2 0x3762 DUP2 DUP5 DUP5 DUP13 ADD PUSH2 0x4B3F JUMP JUMPDEST DUP8 MLOAD SWAP3 ADD SWAP2 PUSH2 0x3774 DUP2 DUP5 DUP5 DUP12 ADD PUSH2 0x4B3F JUMP JUMPDEST DUP7 MLOAD SWAP3 ADD SWAP2 PUSH2 0x3786 DUP2 DUP5 DUP5 DUP11 ADD PUSH2 0x4B3F JUMP JUMPDEST DUP6 MLOAD SWAP3 ADD SWAP2 PUSH2 0x3798 DUP2 DUP5 DUP5 DUP10 ADD PUSH2 0x4B3F JUMP JUMPDEST SWAP2 SWAP1 SWAP2 ADD SWAP11 SWAP10 POP POP POP POP POP POP POP POP POP POP JUMP JUMPDEST PUSH1 0x0 DUP6 MLOAD PUSH2 0x37BC DUP2 DUP5 PUSH1 0x20 DUP11 ADD PUSH2 0x4B3F JUMP JUMPDEST DUP1 DUP4 ADD SWAP1 POP PUSH32 0x7B2274726169745F74797065223A2022436F6C6F727320416D6F756E74222C20 DUP2 MSTORE PUSH10 0x113B30B63AB2911D1011 PUSH1 0xB1 SHL DUP1 PUSH1 0x20 DUP4 ADD MSTORE DUP7 MLOAD PUSH2 0x380B DUP2 PUSH1 0x2A DUP6 ADD PUSH1 0x20 DUP12 ADD PUSH2 0x4B3F JUMP JUMPDEST PUSH3 0x89F4B PUSH1 0xEA SHL SWAP3 ADD PUSH1 0x2A DUP2 ADD DUP4 SWAP1 MSTORE PUSH32 0x7B2274726169745F74797065223A202243727970746F20417274697374222C20 PUSH1 0x2D DUP3 ADD MSTORE PUSH1 0x4D DUP2 ADD DUP3 SWAP1 MSTORE SWAP2 PUSH2 0x3856 PUSH1 0x57 DUP5 ADD DUP9 PUSH2 0x3592 JUMP JUMPDEST SWAP3 POP DUP1 DUP4 MSTORE POP POP PUSH32 0x7B22646973706C61795F74797065223A202264617465222C202274726169745F PUSH1 0x3 DUP3 ADD MSTORE PUSH32 0x74797065223A20226269727468646179222C202276616C7565223A2200000000 PUSH1 0x23 DUP3 ADD MSTORE DUP4 MLOAD PUSH2 0x38BC DUP2 PUSH1 0x3F DUP5 ADD PUSH1 0x20 DUP9 ADD PUSH2 0x4B3F JUMP JUMPDEST PUSH2 0x38D2 PUSH2 0x38CD PUSH1 0x3F DUP4 DUP6 ADD ADD PUSH2 0x3639 JUMP JUMPDEST PUSH2 0x3655 JUMP JUMPDEST SWAP9 SWAP8 POP POP POP POP POP POP POP POP JUMP JUMPDEST PUSH1 0x0 PUSH2 0x2C2B DUP3 DUP5 PUSH2 0x3592 JUMP JUMPDEST PUSH1 0x0 PUSH2 0x38F6 DUP3 DUP7 PUSH2 0x3592 JUMP JUMPDEST DUP5 MLOAD PUSH2 0x3906 DUP2 DUP4 PUSH1 0x20 DUP10 ADD PUSH2 0x4B3F JUMP JUMPDEST DUP5 MLOAD SWAP2 ADD SWAP1 PUSH2 0x3919 DUP2 DUP4 PUSH1 0x20 DUP9 ADD PUSH2 0x4B3F JUMP JUMPDEST ADD SWAP6 SWAP5 POP POP POP POP POP JUMP JUMPDEST PUSH1 0x0 PUSH2 0x392F DUP3 DUP6 PUSH2 0x3592 JUMP JUMPDEST DUP4 MLOAD PUSH2 0x393F DUP2 DUP4 PUSH1 0x20 DUP9 ADD PUSH2 0x4B3F JUMP JUMPDEST PUSH1 0x2F PUSH1 0xF8 SHL SWAP2 ADD SWAP1 DUP2 MSTORE PUSH1 0x1 ADD SWAP5 SWAP4 POP POP POP POP JUMP JUMPDEST PUSH9 0x3D913730B6B2911D11 PUSH1 0xB9 SHL DUP2 MSTORE PUSH1 0x0 PUSH2 0x3972 PUSH1 0x9 DUP4 ADD DUP10 PUSH2 0x3592 JUMP JUMPDEST PUSH2 0x88B PUSH1 0xF2 SHL DUP1 DUP3 MSTORE PUSH15 0x113232B9B1B934B83A34B7B7111D11 PUSH1 0x89 SHL PUSH1 0x2 DUP4 ADD MSTORE PUSH2 0x39A0 PUSH1 0x11 DUP4 ADD DUP11 PUSH2 0x3592 JUMP JUMPDEST DUP2 DUP2 MSTORE PUSH9 0x1134B6B0B3B2911D11 PUSH1 0xB9 SHL PUSH1 0x2 DUP3 ADD MSTORE DUP9 MLOAD SWAP1 SWAP3 POP PUSH2 0x39CB DUP2 PUSH1 0xB DUP6 ADD PUSH1 0x20 DUP13 ADD PUSH2 0x4B3F JUMP JUMPDEST DUP8 MLOAD SWAP3 ADD SWAP2 PUSH2 0x39E1 DUP2 PUSH1 0xB DUP6 ADD PUSH1 0x20 DUP12 ADD PUSH2 0x4B3F JUMP JUMPDEST PUSH4 0x2E706E67 PUSH1 0xE0 SHL PUSH1 0xB SWAP4 SWAP1 SWAP2 ADD SWAP3 DUP4 ADD MSTORE PUSH1 0xF DUP3 ADD MSTORE PUSH32 0x2261747472696275746573223A205B7B2274726169745F74797065223A202252 PUSH1 0x11 DUP3 ADD MSTORE PUSH22 0x32B9B7B63ABA34B7B7111610113B30B63AB2911D1011 PUSH1 0x51 SHL PUSH1 0x31 DUP3 ADD MSTORE PUSH2 0x3A63 PUSH2 0x3A5E PUSH2 0x3A58 PUSH2 0x3A53 PUSH1 0x47 DUP6 ADD DUP10 PUSH2 0x3576 JUMP JUMPDEST PUSH2 0x3648 JUMP JUMPDEST DUP7 PUSH2 0x3576 JUMP JUMPDEST PUSH2 0x362A JUMP JUMPDEST SWAP10 SWAP9 POP POP POP POP POP POP POP POP POP JUMP JUMPDEST PUSH1 0x0 PUSH2 0x60F PUSH1 0xF3 SHL DUP3 MSTORE DUP3 MLOAD PUSH2 0x3A8D DUP2 PUSH1 0x2 DUP6 ADD PUSH1 0x20 DUP8 ADD PUSH2 0x4B3F JUMP JUMPDEST SWAP2 SWAP1 SWAP2 ADD PUSH1 0x2 ADD SWAP3 SWAP2 POP POP JUMP JUMPDEST PUSH32 0x54686520706978656C7320617265206E6F7420636F7272656374000000000000 DUP2 MSTORE PUSH1 0x1A ADD SWAP1 JUMP JUMPDEST PUSH1 0x0 PUSH32 0x68747470733A2F2F6E66746C6174696E6F616D65726963612E636F6D2F6D6574 DUP3 MSTORE PUSH14 0x612D646174612F696D616765732F PUSH1 0x90 SHL PUSH1 0x20 DUP4 ADD MSTORE DUP3 MLOAD PUSH2 0x3B12 DUP2 PUSH1 0x2E DUP6 ADD PUSH1 0x20 DUP8 ADD PUSH2 0x4B3F JUMP JUMPDEST PUSH1 0x2F PUSH1 0xF8 SHL PUSH1 0x2E SWAP4 SWAP1 SWAP2 ADD SWAP3 DUP4 ADD MSTORE POP PUSH1 0x2F ADD SWAP2 SWAP1 POP JUMP JUMPDEST PUSH1 0x1 PUSH1 0x1 PUSH1 0xA0 SHL SUB SWAP2 SWAP1 SWAP2 AND DUP2 MSTORE PUSH1 0x20 ADD SWAP1 JUMP JUMPDEST PUSH1 0x1 PUSH1 0x1 PUSH1 0xA0 SHL SUB DUP6 DUP2 AND DUP3 MSTORE DUP5 AND PUSH1 0x20 DUP3 ADD MSTORE PUSH1 0x40 DUP2 ADD DUP4 SWAP1 MSTORE PUSH1 0x80 PUSH1 0x60 DUP3 ADD DUP2 SWAP1 MSTORE PUSH1 0x0 SWAP1 PUSH2 0x3B71 SWAP1 DUP4 ADD DUP5 PUSH2 0x354A JUMP JUMPDEST SWAP7 SWAP6 POP POP POP POP POP POP JUMP JUMPDEST PUSH1 0x1 PUSH1 0x1 PUSH1 0xA0 SHL SUB SWAP3 SWAP1 SWAP3 AND DUP3 MSTORE PUSH1 0x20 DUP3 ADD MSTORE PUSH1 0x40 ADD SWAP1 JUMP JUMPDEST PUSH1 0x20 DUP1 DUP3 MSTORE DUP3 MLOAD DUP3 DUP3 ADD DUP2 SWAP1 MSTORE PUSH1 0x0 SWAP2 SWAP1 DUP5 DUP3 ADD SWAP1 PUSH1 0x40 DUP6 ADD SWAP1 DUP5 JUMPDEST DUP2 DUP2 LT ISZERO PUSH2 0x3BCC JUMPI DUP4 MLOAD DUP4 MSTORE SWAP3 DUP5 ADD SWAP3 SWAP2 DUP5 ADD SWAP2 PUSH1 0x1 ADD PUSH2 0x3BB0 JUMP JUMPDEST POP SWAP1 SWAP7 SWAP6 POP POP POP POP POP POP JUMP JUMPDEST SWAP1 ISZERO ISZERO DUP2 MSTORE PUSH1 0x20 ADD SWAP1 JUMP JUMPDEST PUSH1 0x0 PUSH1 0x20 DUP3 MSTORE PUSH2 0x2C2B PUSH1 0x20 DUP4 ADD DUP5 PUSH2 0x354A JUMP JUMPDEST PUSH1 0x0 PUSH1 0x80 DUP3 MSTORE PUSH2 0x3C09 PUSH1 0x80 DUP4 ADD DUP8 PUSH2 0x354A JUMP JUMPDEST PUSH1 0x20 DUP4 ADD SWAP6 SWAP1 SWAP6 MSTORE POP PUSH1 0x40 DUP2 ADD SWAP3 SWAP1 SWAP3 MSTORE PUSH1 0x1 PUSH1 0x1 PUSH1 0xA0 SHL SUB AND PUSH1 0x60 SWAP1 SWAP2 ADD MSTORE SWAP2 SWAP1 POP JUMP JUMPDEST PUSH1 0x20 DUP1 DUP3 MSTORE PUSH1 0x2B SWAP1 DUP3 ADD MSTORE PUSH32 0x455243373231456E756D657261626C653A206F776E657220696E646578206F75 PUSH1 0x40 DUP3 ADD MSTORE PUSH11 0x74206F6620626F756E6473 PUSH1 0xA8 SHL PUSH1 0x60 DUP3 ADD MSTORE PUSH1 0x80 ADD SWAP1 JUMP JUMPDEST PUSH1 0x20 DUP1 DUP3 MSTORE PUSH1 0x32 SWAP1 DUP3 ADD MSTORE PUSH32 0x4552433732313A207472616E7366657220746F206E6F6E204552433732315265 PUSH1 0x40 DUP3 ADD MSTORE PUSH18 0x31B2B4BB32B91034B6B83632B6B2B73A32B9 PUSH1 0x71 SHL PUSH1 0x60 DUP3 ADD MSTORE PUSH1 0x80 ADD SWAP1 JUMP JUMPDEST PUSH1 0x20 DUP1 DUP3 MSTORE PUSH1 0x26 SWAP1 DUP3 ADD MSTORE PUSH32 0x4F776E61626C653A206E6577206F776E657220697320746865207A65726F2061 PUSH1 0x40 DUP3 ADD MSTORE PUSH6 0x646472657373 PUSH1 0xD0 SHL PUSH1 0x60 DUP3 ADD MSTORE PUSH1 0x80 ADD SWAP1 JUMP JUMPDEST PUSH1 0x20 DUP1 DUP3 MSTORE PUSH1 0x1C SWAP1 DUP3 ADD MSTORE PUSH32 0x4552433732313A20746F6B656E20616C7265616479206D696E74656400000000 PUSH1 0x40 DUP3 ADD MSTORE PUSH1 0x60 ADD SWAP1 JUMP JUMPDEST PUSH1 0x20 DUP1 DUP3 MSTORE PUSH1 0x31 SWAP1 DUP3 ADD MSTORE PUSH32 0x596F7572204E465420686164206E6F74206265656E20617070726F7665642062 PUSH1 0x40 DUP3 ADD MSTORE PUSH17 0x1E48185B9BDD1A195C881858D8DBDD5B9D PUSH1 0x7A SHL PUSH1 0x60 DUP3 ADD MSTORE PUSH1 0x80 ADD SWAP1 JUMP JUMPDEST PUSH1 0x20 DUP1 DUP3 MSTORE PUSH1 0x4F SWAP1 DUP3 ADD MSTORE PUSH32 0x596F7572204172746973746963206E616D6520697320746F6F2073686F72742C PUSH1 0x40 DUP3 ADD MSTORE PUSH32 0x20757020746F20323020616E64206D6F7265207468616E203120636861726163 PUSH1 0x60 DUP3 ADD MSTORE PUSH15 0x1D195C9CC81A5CC8185B1B1BDDD959 PUSH1 0x8A SHL PUSH1 0x80 DUP3 ADD MSTORE PUSH1 0xA0 ADD SWAP1 JUMP JUMPDEST PUSH1 0x20 DUP1 DUP3 MSTORE PUSH1 0x24 SWAP1 DUP3 ADD MSTORE PUSH32 0x4552433732313A207472616E7366657220746F20746865207A65726F20616464 PUSH1 0x40 DUP3 ADD MSTORE PUSH4 0x72657373 PUSH1 0xE0 SHL PUSH1 0x60 DUP3 ADD MSTORE PUSH1 0x80 ADD SWAP1 JUMP JUMPDEST PUSH1 0x20 DUP1 DUP3 MSTORE PUSH1 0x19 SWAP1 DUP3 ADD MSTORE PUSH32 0x4552433732313A20617070726F766520746F2063616C6C657200000000000000 PUSH1 0x40 DUP3 ADD MSTORE PUSH1 0x60 ADD SWAP1 JUMP JUMPDEST PUSH1 0x20 DUP1 DUP3 MSTORE PUSH1 0x56 SWAP1 DUP3 ADD MSTORE PUSH32 0x546865206D696E74696E67206973207061757365642C207374617920616C6572 PUSH1 0x40 DUP3 ADD MSTORE PUSH32 0x7420696E206F757220736F6369616C206D6564696120746F206B6E6F77207768 PUSH1 0x60 DUP3 ADD MSTORE PUSH22 0x195B881DD9481DDA5B1B081858DD1A5D985D19481A5D PUSH1 0x52 SHL PUSH1 0x80 DUP3 ADD MSTORE PUSH1 0xA0 ADD SWAP1 JUMP JUMPDEST PUSH1 0x20 DUP1 DUP3 MSTORE PUSH1 0x2C SWAP1 DUP3 ADD MSTORE PUSH32 0x4552433732313A206F70657261746F7220717565727920666F72206E6F6E6578 PUSH1 0x40 DUP3 ADD MSTORE PUSH12 0x34B9BA32B73A103A37B5B2B7 PUSH1 0xA1 SHL PUSH1 0x60 DUP3 ADD MSTORE PUSH1 0x80 ADD SWAP1 JUMP JUMPDEST PUSH1 0x20 DUP1 DUP3 MSTORE PUSH1 0x38 SWAP1 DUP3 ADD MSTORE PUSH32 0x4552433732313A20617070726F76652063616C6C6572206973206E6F74206F77 PUSH1 0x40 DUP3 ADD MSTORE PUSH32 0x6E6572206E6F7220617070726F76656420666F7220616C6C0000000000000000 PUSH1 0x60 DUP3 ADD MSTORE PUSH1 0x80 ADD SWAP1 JUMP JUMPDEST PUSH1 0x20 DUP1 DUP3 MSTORE PUSH1 0x2A SWAP1 DUP3 ADD MSTORE PUSH32 0x4552433732313A2062616C616E636520717565727920666F7220746865207A65 PUSH1 0x40 DUP3 ADD MSTORE PUSH10 0x726F2061646472657373 PUSH1 0xB0 SHL PUSH1 0x60 DUP3 ADD MSTORE PUSH1 0x80 ADD SWAP1 JUMP JUMPDEST PUSH1 0x20 DUP1 DUP3 MSTORE PUSH1 0x4D SWAP1 DUP3 ADD MSTORE PUSH32 0x546865204172746973746963206E616D6520697320746F6F206C6F6E672C2075 PUSH1 0x40 DUP3 ADD MSTORE PUSH32 0x7020746F20323020616E64206D6F7265207468616E2031206368617261637465 PUSH1 0x60 DUP3 ADD MSTORE PUSH13 0x1C9CC81A5CC8185B1B1BDDD959 PUSH1 0x9A SHL PUSH1 0x80 DUP3 ADD MSTORE PUSH1 0xA0 ADD SWAP1 JUMP JUMPDEST PUSH1 0x20 DUP1 DUP3 MSTORE PUSH1 0x29 SWAP1 DUP3 ADD MSTORE PUSH32 0x4552433732313A206F776E657220717565727920666F72206E6F6E6578697374 PUSH1 0x40 DUP3 ADD MSTORE PUSH9 0x32B73A103A37B5B2B7 PUSH1 0xB9 SHL PUSH1 0x60 DUP3 ADD MSTORE PUSH1 0x80 ADD SWAP1 JUMP JUMPDEST PUSH1 0x20 DUP1 DUP3 MSTORE PUSH1 0x2E SWAP1 DUP3 ADD MSTORE PUSH32 0x45524337323155524953746F726167653A2055524920736574206F66206E6F6E PUSH1 0x40 DUP3 ADD MSTORE PUSH14 0x32BC34B9BA32B73A103A37B5B2B7 PUSH1 0x91 SHL PUSH1 0x60 DUP3 ADD MSTORE PUSH1 0x80 ADD SWAP1 JUMP JUMPDEST PUSH1 0x20 DUP1 DUP3 MSTORE PUSH1 0x19 SWAP1 DUP3 ADD MSTORE PUSH32 0x5468697320417274697374206973206E6F742041637469766500000000000000 PUSH1 0x40 DUP3 ADD MSTORE PUSH1 0x60 ADD SWAP1 JUMP JUMPDEST PUSH1 0x20 DUP1 DUP3 MSTORE PUSH1 0x86 SWAP1 DUP3 ADD MSTORE PUSH32 0x4F6E6C79205265676973746572656420616E6420416374697661746564207573 PUSH1 0x40 DUP3 ADD MSTORE PUSH32 0x6572732063616E206D696E7420696E204E46544C6174696E6F416D6572696361 PUSH1 0x60 DUP3 ADD MSTORE PUSH32 0x20436F6C6C656374696F6E2C20696620796F7520617265206E6F742072656769 PUSH1 0x80 DUP3 ADD MSTORE PUSH32 0x73746572656420476F20746F203C7374726F6E673E52656769737465723C2F73 PUSH1 0xA0 DUP3 ADD MSTORE PUSH6 0x3A3937B7339F PUSH1 0xD1 SHL PUSH1 0xC0 DUP3 ADD MSTORE PUSH1 0xE0 ADD SWAP1 JUMP JUMPDEST PUSH1 0x20 DUP1 DUP3 MSTORE PUSH1 0x3A SWAP1 DUP3 ADD MSTORE PUSH32 0x546865206368617261637465727320616D6F756E7420696E20746865206E616D PUSH1 0x40 DUP3 ADD MSTORE PUSH32 0x65206E6565647320746F206265206C657373207468616E203730000000000000 PUSH1 0x60 DUP3 ADD MSTORE PUSH1 0x80 ADD SWAP1 JUMP JUMPDEST PUSH1 0x20 DUP1 DUP3 MSTORE DUP2 DUP2 ADD MSTORE PUSH32 0x4552433732313A206D696E7420746F20746865207A65726F2061646472657373 PUSH1 0x40 DUP3 ADD MSTORE PUSH1 0x60 ADD SWAP1 JUMP JUMPDEST PUSH1 0x20 DUP1 DUP3 MSTORE PUSH1 0x31 SWAP1 DUP3 ADD MSTORE PUSH32 0x45524337323155524953746F726167653A2055524920717565727920666F7220 PUSH1 0x40 DUP3 ADD MSTORE PUSH17 0x3737B732BC34B9BA32B73A103A37B5B2B7 PUSH1 0x79 SHL PUSH1 0x60 DUP3 ADD MSTORE PUSH1 0x80 ADD SWAP1 JUMP JUMPDEST PUSH1 0x20 DUP1 DUP3 MSTORE PUSH1 0x2C SWAP1 DUP3 ADD MSTORE PUSH32 0x4552433732313A20617070726F76656420717565727920666F72206E6F6E6578 PUSH1 0x40 DUP3 ADD MSTORE PUSH12 0x34B9BA32B73A103A37B5B2B7 PUSH1 0xA1 SHL PUSH1 0x60 DUP3 ADD MSTORE PUSH1 0x80 ADD SWAP1 JUMP JUMPDEST PUSH1 0x20 DUP1 DUP3 MSTORE PUSH1 0x5F SWAP1 DUP3 ADD MSTORE PUSH32 0x5468652052656769737465722070726F63657373206973207061757365642C20 PUSH1 0x40 DUP3 ADD MSTORE PUSH32 0x7374617920616C65727420696E206F757220736F6369616C206D656469612074 PUSH1 0x60 DUP3 ADD MSTORE PUSH32 0x6F206B6E6F77207768656E2077652077696C6C20616374697661746520697400 PUSH1 0x80 DUP3 ADD MSTORE PUSH1 0xA0 ADD SWAP1 JUMP JUMPDEST PUSH1 0x20 DUP1 DUP3 MSTORE DUP2 DUP2 ADD MSTORE PUSH32 0x4F776E61626C653A2063616C6C6572206973206E6F7420746865206F776E6572 PUSH1 0x40 DUP3 ADD MSTORE PUSH1 0x60 ADD SWAP1 JUMP JUMPDEST PUSH1 0x20 DUP1 DUP3 MSTORE PUSH1 0x4E SWAP1 DUP3 ADD MSTORE PUSH32 0x596F7572204172746973746963206E616D6520697320746F6F206C6F6E672C20 PUSH1 0x40 DUP3 ADD MSTORE PUSH32 0x757020746F20323020616E64206D6F7265207468616E20312063686172616374 PUSH1 0x60 DUP3 ADD MSTORE PUSH14 0x195C9CC81A5CC8185B1B1BDDD959 PUSH1 0x92 SHL PUSH1 0x80 DUP3 ADD MSTORE PUSH1 0xA0 ADD SWAP1 JUMP JUMPDEST PUSH1 0x20 DUP1 DUP3 MSTORE PUSH1 0x29 SWAP1 DUP3 ADD MSTORE PUSH32 0x4552433732313A207472616E73666572206F6620746F6B656E20746861742069 PUSH1 0x40 DUP3 ADD MSTORE PUSH9 0x39903737BA1037BBB7 PUSH1 0xB9 SHL PUSH1 0x60 DUP3 ADD MSTORE PUSH1 0x80 ADD SWAP1 JUMP JUMPDEST PUSH1 0x20 DUP1 DUP3 MSTORE PUSH1 0x2F SWAP1 DUP3 ADD MSTORE PUSH32 0x4552433732314D657461646174613A2055524920717565727920666F72206E6F PUSH1 0x40 DUP3 ADD MSTORE PUSH15 0x3732BC34B9BA32B73A103A37B5B2B7 PUSH1 0x89 SHL PUSH1 0x60 DUP3 ADD MSTORE PUSH1 0x80 ADD SWAP1 JUMP JUMPDEST PUSH1 0x20 DUP1 DUP3 MSTORE PUSH1 0x37 SWAP1 DUP3 ADD MSTORE PUSH32 0x546865204E465420796F752061726520747279696E6720746F206D696E652068 PUSH1 0x40 DUP3 ADD MSTORE PUSH32 0x617320616C7265616479206265656E2063726561746564000000000000000000 PUSH1 0x60 DUP3 ADD MSTORE PUSH1 0x80 ADD SWAP1 JUMP JUMPDEST PUSH1 0x20 DUP1 DUP3 MSTORE PUSH1 0x1B SWAP1 DUP3 ADD MSTORE PUSH32 0x43616C6C6572206973206E6F7420746865204E4654206F776E65720000000000 PUSH1 0x40 DUP3 ADD MSTORE PUSH1 0x60 ADD SWAP1 JUMP JUMPDEST PUSH1 0x20 DUP1 DUP3 MSTORE PUSH1 0x46 SWAP1 DUP3 ADD MSTORE PUSH32 0x496E636F7272656374205265736F6C7574696F6E2C20796F75206D7573742063 PUSH1 0x40 DUP3 ADD MSTORE PUSH32 0x726561746520796F7572204E465420696E204E46544C6174696E6F416D657269 PUSH1 0x60 DUP3 ADD MSTORE PUSH6 0x63612E636F6D PUSH1 0xD0 SHL PUSH1 0x80 DUP3 ADD MSTORE PUSH1 0xA0 ADD SWAP1 JUMP JUMPDEST PUSH1 0x20 DUP1 DUP3 MSTORE PUSH1 0x21 SWAP1 DUP3 ADD MSTORE PUSH32 0x4552433732313A20617070726F76616C20746F2063757272656E74206F776E65 PUSH1 0x40 DUP3 ADD MSTORE PUSH1 0x39 PUSH1 0xF9 SHL PUSH1 0x60 DUP3 ADD MSTORE PUSH1 0x80 ADD SWAP1 JUMP JUMPDEST PUSH1 0x20 DUP1 DUP3 MSTORE PUSH1 0x1D SWAP1 DUP3 ADD MSTORE PUSH32 0x5468697320417274697374206973206E6F742052656769737465726564000000 PUSH1 0x40 DUP3 ADD MSTORE PUSH1 0x60 ADD SWAP1 JUMP JUMPDEST PUSH1 0x20 DUP1 DUP3 MSTORE PUSH1 0x42 SWAP1 DUP3 ADD MSTORE PUSH32 0x546865206368617261637465727320616D6F756E7420696E2074686520646573 PUSH1 0x40 DUP3 ADD MSTORE PUSH32 0x6372697074696F6E206E6565647320746F206265206C657373207468616E2031 PUSH1 0x60 DUP3 ADD MSTORE PUSH2 0x363 PUSH1 0xF4 SHL PUSH1 0x80 DUP3 ADD MSTORE PUSH1 0xA0 ADD SWAP1 JUMP JUMPDEST PUSH1 0x20 DUP1 DUP3 MSTORE PUSH1 0x31 SWAP1 DUP3 ADD MSTORE PUSH32 0x4572726F7220747279696E6720746F2072656164207468652066726565206D69 PUSH1 0x40 DUP3 ADD MSTORE PUSH17 0x6E74206E66747320696E76656E746F7279 PUSH1 0x78 SHL PUSH1 0x60 DUP3 ADD MSTORE PUSH1 0x80 ADD SWAP1 JUMP JUMPDEST PUSH1 0x20 DUP1 DUP3 MSTORE PUSH1 0x5E SWAP1 DUP3 ADD MSTORE PUSH32 0x5468652061727469737469634E616D65207468617420796F7520617265207472 PUSH1 0x40 DUP3 ADD MSTORE PUSH32 0x79696E6720746F207265676973746572206973206E6F7420617661696C61626C PUSH1 0x60 DUP3 ADD MSTORE PUSH32 0x652C20506C6561736520747279207769746820616E6F74686572206F6E650000 PUSH1 0x80 DUP3 ADD MSTORE PUSH1 0xA0 ADD SWAP1 JUMP JUMPDEST PUSH1 0x20 DUP1 DUP3 MSTORE PUSH1 0x31 SWAP1 DUP3 ADD MSTORE PUSH32 0x4552433732313A207472616E736665722063616C6C6572206973206E6F74206F PUSH1 0x40 DUP3 ADD MSTORE PUSH17 0x1DDB995C881B9BDC88185C1C1C9BDD9959 PUSH1 0x7A SHL PUSH1 0x60 DUP3 ADD MSTORE PUSH1 0x80 ADD SWAP1 JUMP JUMPDEST PUSH1 0x20 DUP1 DUP3 MSTORE PUSH1 0x39 SWAP1 DUP3 ADD MSTORE PUSH32 0x596F752068616420616C7265616479207265676973746572656420696E204E46 PUSH1 0x40 DUP3 ADD MSTORE PUSH32 0x544C6174696E6F416D657269636120436F6C6C656374696F6E00000000000000 PUSH1 0x60 DUP3 ADD MSTORE PUSH1 0x80 ADD SWAP1 JUMP JUMPDEST PUSH1 0x20 DUP1 DUP3 MSTORE PUSH1 0x2C SWAP1 DUP3 ADD MSTORE PUSH32 0x455243373231456E756D657261626C653A20676C6F62616C20696E646578206F PUSH1 0x40 DUP3 ADD MSTORE PUSH12 0x7574206F6620626F756E6473 PUSH1 0xA0 SHL PUSH1 0x60 DUP3 ADD MSTORE PUSH1 0x80 ADD SWAP1 JUMP JUMPDEST PUSH1 0x20 DUP1 DUP3 MSTORE PUSH1 0x4E SWAP1 DUP3 ADD MSTORE PUSH32 0x546865204172746973746963206E616D6520697320746F6F2073686F72742C20 PUSH1 0x40 DUP3 ADD MSTORE PUSH32 0x757020746F20323020616E64206D6F7265207468616E20312063686172616374 PUSH1 0x60 DUP3 ADD MSTORE PUSH14 0x195C9CC81A5CC8185B1B1BDDD959 PUSH1 0x92 SHL PUSH1 0x80 DUP3 ADD MSTORE PUSH1 0xA0 ADD SWAP1 JUMP JUMPDEST PUSH1 0x20 DUP1 DUP3 MSTORE PUSH1 0x17 SWAP1 DUP3 ADD MSTORE PUSH32 0x496E636F727265637420436F6C6F727320416D6F756E74000000000000000000 PUSH1 0x40 DUP3 ADD MSTORE PUSH1 0x60 ADD SWAP1 JUMP JUMPDEST PUSH1 0x20 DUP1 DUP3 MSTORE PUSH1 0x28 SWAP1 DUP3 ADD MSTORE PUSH32 0x506C656173652073656E642074686520636F727265637420616D6F756E74206F PUSH1 0x40 DUP3 ADD MSTORE PUSH8 0x66204D4154494373 PUSH1 0xC0 SHL PUSH1 0x60 DUP3 ADD MSTORE PUSH1 0x80 ADD SWAP1 JUMP JUMPDEST PUSH1 0x20 DUP1 DUP3 MSTORE PUSH1 0x29 SWAP1 DUP3 ADD MSTORE PUSH32 0x496E76616C69642041726974686D657469632C20656E746572206120636F7272 PUSH1 0x40 DUP3 ADD MSTORE PUSH9 0x656374207072696365 PUSH1 0xB8 SHL PUSH1 0x60 DUP3 ADD MSTORE PUSH1 0x80 ADD SWAP1 JUMP JUMPDEST PUSH1 0x20 DUP1 DUP3 MSTORE PUSH1 0x41 SWAP1 DUP3 ADD MSTORE PUSH32 0x54686973206164647265737320697320616C7265616479207265676973746572 PUSH1 0x40 DUP3 ADD MSTORE PUSH32 0x656420696E204E46544C6174696E6F416D657269636120436F6C6C656374696F PUSH1 0x60 DUP3 ADD MSTORE PUSH1 0x37 PUSH1 0xF9 SHL PUSH1 0x80 DUP3 ADD MSTORE PUSH1 0xA0 ADD SWAP1 JUMP JUMPDEST SWAP1 DUP2 MSTORE PUSH1 0x20 ADD SWAP1 JUMP JUMPDEST PUSH1 0x0 SWAP1 DUP2 MSTORE PUSH1 0x20 SWAP1 KECCAK256 SWAP1 JUMP JUMPDEST PUSH1 0x0 DUP3 NOT DUP3 GT ISZERO PUSH2 0x4A5D JUMPI PUSH2 0x4A5D PUSH2 0x4BD5 JUMP JUMPDEST POP ADD SWAP1 JUMP JUMPDEST PUSH1 0x0 PUSH1 0xFF DUP3 AND PUSH1 0xFF DUP5 AND DUP1 PUSH1 0xFF SUB DUP3 GT ISZERO PUSH2 0x4A7F JUMPI PUSH2 0x4A7F PUSH2 0x4BD5 JUMP JUMPDEST ADD SWAP4 SWAP3 POP POP POP JUMP JUMPDEST PUSH1 0x0 DUP3 PUSH2 0x4A96 JUMPI PUSH2 0x4A96 PUSH2 0x4BEB JUMP JUMPDEST POP DIV SWAP1 JUMP JUMPDEST PUSH1 0x0 PUSH1 0xFF DUP4 AND DUP1 PUSH2 0x4AAE JUMPI PUSH2 0x4AAE PUSH2 0x4BEB JUMP JUMPDEST DUP1 PUSH1 0xFF DUP5 AND DIV SWAP2 POP POP SWAP3 SWAP2 POP POP JUMP JUMPDEST PUSH1 0x0 DUP2 PUSH1 0x0 NOT DIV DUP4 GT DUP3 ISZERO ISZERO AND ISZERO PUSH2 0x4AD7 JUMPI PUSH2 0x4AD7 PUSH2 0x4BD5 JUMP JUMPDEST POP MUL SWAP1 JUMP JUMPDEST PUSH1 0x0 PUSH1 0xFF DUP3 AND PUSH1 0xFF DUP5 AND DUP2 PUSH1 0xFF DIV DUP2 GT DUP3 ISZERO ISZERO AND ISZERO PUSH2 0x4AFD JUMPI PUSH2 0x4AFD PUSH2 0x4BD5 JUMP JUMPDEST MUL SWAP4 SWAP3 POP POP POP JUMP JUMPDEST PUSH1 0x0 DUP3 DUP3 LT ISZERO PUSH2 0x4B17 JUMPI PUSH2 0x4B17 PUSH2 0x4BD5 JUMP JUMPDEST POP SUB SWAP1 JUMP JUMPDEST PUSH1 0x0 PUSH1 0xFF DUP3 AND PUSH1 0xFF DUP5 AND DUP1 DUP3 LT ISZERO PUSH2 0x4B36 JUMPI PUSH2 0x4B36 PUSH2 0x4BD5 JUMP JUMPDEST SWAP1 SUB SWAP4 SWAP3 POP POP POP JUMP JUMPDEST PUSH1 0x0 JUMPDEST DUP4 DUP2 LT ISZERO PUSH2 0x4B5A JUMPI DUP2 DUP2 ADD MLOAD DUP4 DUP3 ADD MSTORE PUSH1 0x20 ADD PUSH2 0x4B42 JUMP JUMPDEST DUP4 DUP2 GT ISZERO PUSH2 0x1916 JUMPI POP POP PUSH1 0x0 SWAP2 ADD MSTORE JUMP JUMPDEST PUSH1 0x2 DUP2 DIV PUSH1 0x1 DUP3 AND DUP1 PUSH2 0x4B7F JUMPI PUSH1 0x7F DUP3 AND SWAP2 POP JUMPDEST PUSH1 0x20 DUP3 LT DUP2 EQ ISZERO PUSH2 0x4BA0 JUMPI PUSH4 0x4E487B71 PUSH1 0xE0 SHL PUSH1 0x0 MSTORE PUSH1 0x22 PUSH1 0x4 MSTORE PUSH1 0x24 PUSH1 0x0 REVERT JUMPDEST POP SWAP2 SWAP1 POP JUMP JUMPDEST PUSH1 0x0 PUSH1 0x0 NOT DUP3 EQ ISZERO PUSH2 0x4BBA JUMPI PUSH2 0x4BBA PUSH2 0x4BD5 JUMP JUMPDEST POP PUSH1 0x1 ADD SWAP1 JUMP JUMPDEST PUSH1 0x0 DUP3 PUSH2 0x4BD0 JUMPI PUSH2 0x4BD0 PUSH2 0x4BEB JUMP JUMPDEST POP MOD SWAP1 JUMP JUMPDEST PUSH4 0x4E487B71 PUSH1 0xE0 SHL PUSH1 0x0 MSTORE PUSH1 0x11 PUSH1 0x4 MSTORE PUSH1 0x24 PUSH1 0x0 REVERT JUMPDEST PUSH4 0x4E487B71 PUSH1 0xE0 SHL PUSH1 0x0 MSTORE PUSH1 0x12 PUSH1 0x4 MSTORE PUSH1 0x24 PUSH1 0x0 REVERT JUMPDEST PUSH4 0x4E487B71 PUSH1 0xE0 SHL PUSH1 0x0 MSTORE PUSH1 0x41 PUSH1 0x4 MSTORE PUSH1 0x24 PUSH1 0x0 REVERT JUMPDEST PUSH1 0x1 PUSH1 0x1 PUSH1 0xE0 SHL SUB NOT DUP2 AND DUP2 EQ PUSH2 0x244A JUMPI PUSH1 0x0 DUP1 REVERT INVALID ADDRESS ADDRESS 0x22 KECCAK256 PUSH20 0x74796C653D2277696474683A2035303070783B6D PUSH2 0x7267 PUSH10 0x6E3A2030206175746F3B PUSH5 0x6973706C61 PUSH26 0x3A20666C65783B223E3C2F63616E7661733E3C7363726970743E PUSH23 0x61722063763D646F63756D656E742E676574456C656D65 PUSH15 0x74427949642822435622292C726573 RETURNDATASIZE PUSH17 0x61727365496E742863762E617474726962 PUSH22 0x7465735B315D2E76616C7565292F3130302C6374783D PUSH4 0x762E6765 PUSH21 0x436F6E746578742822326422292C63773D63762E77 PUSH10 0x6474682C4E46543D2222 0x2C PUSH14 0x74783D2265794A4251534936496D MSIZE CALLDATALOAD GAS JUMPI 0x4A PUSH13 0x59534973496B4643496A6F695A PUSH11 0x4A6B4E3251314969776951 SSTORE 0x4D PUSH10 0x4F694A6C4E6D49775957 GASLIMIT PUSH10 0x4C434A4252434936496D MLOAD CALLDATALOAD 0x4F DIFFICULTY PUSH8 0x344D434973496B46 CHAINID 0x49 PUSH11 0x6F69593251324D54553149 PUSH10 0x7769515559694F694A6A 0x4D DIFFICULTY 0x4D CALLDATALOAD 0x4D PUSH14 0x49694C434A4252794936496D4535 0x4D PUSH27 0x49794E694973496B4649496A6F694F544979596A49784969776951 SSTORE PUSH12 0x694F694933596A49304D574D PUSH10 0x4C434A4253694936496A MSIZE ADDRESS 0x4D JUMPI SSTORE PUSH25 0x4E694973496B4A42496A6F695A6D526C5A47566A4969776951 PUSH12 0x49694F694A6D595752695A44 PUSH8 0x694C434A43517949 CALLDATASIZE 0x49 PUSH14 0x5931596A64694D534973496B4A45 0x49 PUSH11 0x6F695A6A45354E44686849 PUSH10 0x7769516B55694F694A6C MSIZE PUSH27 0x63774E6A4D694C434A4352694936496D55334E474D7A5979497349 PUSH12 0x4A48496A6F69593249304D7A 0x4D BALANCE 0x49 PUSH10 0x7769516B67694F694A69 0x4D DIFFICULTY 0x4E PUSH9 0x4D6D55694C434A4353 MSTORE8 0x49 CALLDATASIZE 0x49 PUSH11 0x6B304D7A45794E69497349 PUSH12 0x4A4B496A6F694E7A67794F44 CHAINID PUSH14 0x49697769513045694F694A6D4E57 JUMP PUSH13 0x5A6A67694C434A445169493649 PUSH14 0x56695A47566D4D434973496B4E44 0x49 PUSH11 0x6F695A4464695A47557949 PUSH10 0x7769513051694F694A6A 0x4D PUSH27 0x6C695A444D694C434A4452534936496D466D4E32466A4E53497349 PUSH12 0x4E47496A6F694F5749314F57 0x49 ORIGIN 0x49 PUSH10 0x7769513063694F694934 0x4F DIFFICULTY MSTORE PUSH13 0x595441694C434A445343493649 PUSH11 0x63324E4451345953497349 PUSH12 0x4E4A496A6F694E6A4D7A4F54 PUSH4 0x30496977 PUSH10 0x51306F694F6949314D54 0x4A PUSH13 0x4E5759694C434A455153493649 PUSH14 0x59305A574E6D4E794973496B5243 0x49 PUSH11 0x6F695A54686B5957566D49 PUSH10 0x776952454D694F694A6B 0x4D PUSH14 0x49305A4755694C434A4552434936 0x49 PUSH14 0x4A694F475A6A5A534973496B5246 0x49 PUSH11 0x6F69595455324F574A6B49 PUSH10 0x7769524559694F694934 GAS SLOAD MLOAD ADDRESS MSIZE JUMPI MLOAD PUSH10 0x4C434A4552794936496A PUSH5 0x6B4D324D35 0x4F NUMBER 0x49 PUSH20 0x496B5249496A6F694E6D4D7A4E44677A49697769 MSTORE GASLIMIT PUSH12 0x694F694931596A4A6A4E6D59 PUSH10 0x4C434A4553694936496A MSTORE PUSH9 0x4D6A4D315953497349 PUSH12 0x5642496A6F695A57466D4D6D MSIZE CALLVALUE 0x49 PUSH10 0x7769525549694F694A6B 0x4E SELFBALANCE SSTORE ORIGIN GAS PUSH11 0x45694C434A465179493649 PUSH14 0x453559324E6C4D794973496B5645 0x49 PUSH11 0x6F694E325A694D32513149 PUSH10 0x7769525555694F694931 0x4E DIFFICULTY PUSH12 0x35597A63694C434A46526949 CALLDATASIZE 0x49 PUSH11 0x49354F4442694F53497349 PUSH12 0x5648496A6F694D6A51334D57 GASLIMIT PUSH27 0x49697769525567694F6949785A6A59784F4751694C434A46535349 CALLDATASIZE 0x49 PUSH11 0x46684E5449334E69497349 PUSH12 0x564B496A6F694D5455304D7A MSIZE PUSH24 0x49697769526B45694F694A6C596D59315A6D49694C434A47 MLOAD PUSH10 0x4936496D51325A57466D 0x4F NUMBER 0x49 PUSH20 0x496B5A44496A6F695957566B4E6D597849697769 MSTORE PUSH12 0x51694F6949344E574D785A54 PUSH12 0x694C434A4752534936496A56 PUSH12 0x5957526C4D694973496B5A47 0x49 PUSH11 0x6F694D7A51354F47526949 PUSH10 0x7769526B63694F694979 GAS SLOAD PUSH8 0x32597A45694C434A SELFBALANCE MSTORE8 NUMBER 0x49 CALLDATASIZE 0x49 PUSH11 0x49344E7A52684E69497349 PUSH12 0x5A4A496A6F694D6A45324D54 PUSH9 0x6A49697769526B6F69 0x4F PUSH10 0x4978596A526D4E7A4969 0x4C NUMBER 0x4A 0x48 MLOAD MSTORE8 0x49 CALLDATASIZE 0x49 PUSH14 0x55345A6A686D4E534973496B6443 0x49 PUSH11 0x6F695A44466D4D6D566949 PUSH10 0x776952304D694F694A68 0x4D ORIGIN SSTORE ADDRESS GAS DIFFICULTY PUSH4 0x694C434A 0x48 MSTORE NUMBER 0x49 CALLDATASIZE 0x49 PUSH11 0x63325A44646A4E43497349 PUSH12 0x6446496A6F694E44686A4F57 0x49 PUSH24 0x49697769523059694F69497859574A6A4F574D694C434A48 MSTORE PUSH26 0x4936496A4533595455344F534973496B6449496A6F694D545134 GAS PUSH11 0x63334969776952306B694F PUSH10 0x49784D5463344E6A5169 0x4C NUMBER 0x4A 0x48 MSTORE8 PUSH10 0x4936496A426C4E6A4931 0x4D MSTORE8 0x49 PUSH20 0x496B6842496A6F695A54686D4E6D597A49697769 MSTORE8 GASLIMIT 0x49 PUSH10 0x4F694A6B4D47566A5A54 PUSH4 0x694C434A 0x49 MLOAD PUSH26 0x4936496D45795A446C6A5A534973496B6845496A6F694E7A4E6A 0x4E PUSH14 0x493249697769534555694F694930 0x4E JUMPI 0x49 PUSH27 0x4F5751694C434A4952694936496A4532595441344E534973496B68 0x48 0x49 PUSH11 0x6F694D544D345A44633149 PUSH10 0x7769534567694F694978 0x4D SLOAD PUSH5 0x684E6A5569 0x4C NUMBER 0x4A 0x49 MSTORE8 MSTORE8 0x49 CALLDATASIZE 0x49 PUSH11 0x426C4E6A59314E53497349 PUSH12 0x684B496A6F694D4749314D7A MLOAD BALANCE 0x49 PUSH10 0x7769535545694F694A6C 0x4F JUMPI MSIZE CALLER GAS JUMPI MSIZE PUSH10 0x4C434A4A51694936496D MLOAD ADDRESS GAS JUMPI GAS PUSH12 0x5A694973496B6C44496A6F69 MSIZE SLOAD PUSH13 0x6B5A6D4A6D4969776953555169 0x4F PUSH10 0x49335A474E6C59544169 0x4C NUMBER 0x4A 0x4A MSTORE MSTORE8 0x49 CALLDATASIZE 0x49 PUSH11 0x5579596D55344D43497349 PUSH12 0x6C47496A6F694D6A64685A54 MSIZE PUSH24 0x49697769535563694F6949794D6A6B354E5451694C434A4A MSTORE8 NUMBER 0x49 CALLDATASIZE 0x49 PUSH11 0x466C4F4451304F53497349 PUSH12 0x6C4A496A6F694D546B325A6A 0x4E PUSH12 0x4969776953556F694F694978 0x4E DIFFICULTY JUMP PUSH9 0x4D7A49694C434A4B51 MSTORE8 0x49 CALLDATASIZE 0x49 PUSH14 0x56685A6D466D4D534973496B7043 0x49 PUSH11 0x6F695A44566D4E57557A49 PUSH10 0x7769536B4D694F694A68 MSIZE PUSH14 0x5669597A59694C434A4B52434936 0x49 PUSH11 0x67795A5442685953497349 PUSH12 0x7046496A6F694E54686B4E6A PUSH9 0x6B49697769536B5969 0x4F PUSH10 0x49795A574E6A4E7A4569 0x4C NUMBER 0x4A 0x4B MSTORE PUSH26 0x4936496A4934596A51324D794973496B7049496A6F694D6A4D35 MSIZE PUSH11 0x553249697769536B6B694F PUSH10 0x49785A44677A4E446769 0x4C NUMBER 0x4A 0x4B MSTORE8 PUSH10 0x4936496A45344E6D457A MSIZE PUSH10 0x4973496B7442496A6F69 GAS PUSH14 0x566D4F5755334969776953304969 0x4F PUSH10 0x4A6D5932597A59325969 0x4C NUMBER 0x4A 0x4C MLOAD PUSH26 0x4936496D59355A5463355A694973496B7445496A6F695A6A646B MSIZE PUSH27 0x5A6D49697769533055694F694A6D4E4751774D3259694C434A4C52 PUSH10 0x4936496D5978597A5177 GAS PUSH10 0x4973496B7448496A6F69 GAS DIFFICULTY MSTORE PUSH9 0x597A426B4969776953 ADDRESS PUSH8 0x694F694A694E7A6B BALANCE 0x4D SELFBALANCE 0x49 PUSH10 0x4C434A4C53534936496A PUSH13 0x684E32517759534973496B744B 0x49 PUSH11 0x6F694E3251324E6A413449 PUSH10 0x7769544545694F694A6D GAS JUMPI MSIZE BALANCE GAS SLOAD PUSH4 0x694C434A 0x4D MLOAD PUSH10 0x4936496D5A6B5A574A6B 0x4D NUMBER 0x49 PUSH20 0x496B7844496A6F695A6D466B4E32457749697769 SLOAD GASLIMIT MLOAD PUSH10 0x4F694A6D4F474D304E7A GASLIMIT PUSH10 0x4C434A4D52534936496D MSIZE BALANCE MSIZE PUSH11 0x41304D534973496B784749 PUSH11 0x6F695A6A4D35597A457949 PUSH10 0x7769544563694F694A6B 0x4E PUSH11 0x67354D5441694C434A4D53 NUMBER 0x49 CALLDATASIZE 0x49 PUSH14 0x49354E7A63775A534973496B784A 0x49 PUSH11 0x6F694F574D324E44426A49 PUSH10 0x776954456F694F694933 GAS SLOAD SSTORE PUSH25 0x4D446B694C434A4E51534936496D5A6B5A6A4A6C4F53497349 PUSH12 0x3143496A6F695A6D466C4E57 MLOAD PUSH27 0x4969776954554D694F694A6D4E574E69595463694C434A4E524349 CALLDATASIZE 0x49 PUSH14 0x5977596A493359534973496B3146 0x49 PUSH11 0x6F695A5749354F44526C49 PUSH10 0x7769545559694F694A6C 0x4E PUSH11 0x646C4D6A49694C434A4E52 PUSH26 0x4936496D4E684E6D59785A534973496B3149496A6F6959575932 0x4D DIFFICULTY CHAINID PUSH9 0x4969776954556B694F PUSH10 0x49354D7A55784D545969 0x4C NUMBER 0x4A 0x4E MSTORE8 PUSH10 0x4936496A63344E444978 0x4D PUSH10 0x4973496B3542496A6F69 GAS PUSH14 0x4A6C5A57553249697769546B4969 0x4F PUSH10 0x4A6D4E6D526B59324D69 0x4C NUMBER 0x4A 0x4F MLOAD PUSH26 0x4936496D566B596D49354F534973496B3545496A6F695A545535 0x4F DIFFICULTY MSIZE ORIGIN 0x49 PUSH10 0x7769546B55694F694A6B MSIZE PUSH27 0x63324D7A4D694C434A4F52694936496D517A4E5451774D43497349 PUSH12 0x3548496A6F69596D45305954 COINBASE PUSH24 0x49697769546B67694F694A684D4451774D4441694C434A4F MSTORE8 MSTORE8 0x49 CALLDATASIZE 0x49 PUSH11 0x67334D7A59774D43497349 PUSH12 0x354B496A6F694E6D5579597A COINBASE PUSH24 0x49697769543045694F694A6D5A475A6C5A6D55694C434A50 MLOAD PUSH10 0x4936496D5A695A6D4E6D MSIZE PUSH26 0x4973496B3944496A6F695A6A646D4F5759354969776954305169 0x4F PUSH10 0x4A6D4E4759325A6A6369 0x4C NUMBER 0x4A POP MSTORE MSTORE8 0x49 CALLDATASIZE 0x49 PUSH14 0x59775A6A4E6D4E434973496B3947 0x49 PUSH11 0x6F695A574E6D4D47597849 PUSH10 0x7769543063694F694A6B 0x4D SELFBALANCE MLOAD PUSH27 0x5A4451694C434A5053434936496D497A596A5A694E794973496B39 0x4A 0x49 PUSH11 0x6F694F54633559546C6849 PUSH10 0x776954306F694F694933 MSIZE PUSH11 0x646B4E3251694C434A5151 MSTORE8 0x49 CALLDATASIZE 0x49 PUSH14 0x59345A6A6C6D4F534973496C4243 0x49 PUSH11 0x6F695A6A4A6D4D32593049 PUSH10 0x776955454D694F694A6C 0x4E JUMPI SSTORE CALLER GAS SLOAD PUSH12 0x694C434A5152434936496D51 CALLER GAS SELFBALANCE 0x4A PUSH12 0x5A434973496C4246496A6F69 MSIZE ORIGIN CHAINID PUSH11 0x5A6D517949697769554559 PUSH10 0x4F694A695A474D7A597A PUSH4 0x694C434A MLOAD MSTORE PUSH26 0x4936496D453259574E685A694973496C4249496A6F694F544135 0x4E DIFFICULTY PUSH12 0x334969776955456B694F6949 CALLER 0x4F SLOAD PUSH5 0x6B4E325969 0x4C NUMBER 0x4A MLOAD MSTORE8 PUSH10 0x4936496A59794E6A5532 0x4E PUSH26 0x4973496C4642496A6F695A6A526D4E6D59324969776955554969 0x4F PUSH10 0x4A6C5957566B5A575169 0x4C NUMBER 0x4A MSTORE MLOAD PUSH26 0x4936496D51315A474A6B59694973496C4645496A6F69596D5A6A 0x4F JUMPI 0x4E PUSH9 0x49697769555555694F PUSH10 0x4A6859574933596A6769 0x4C NUMBER 0x4A MSTORE MSTORE PUSH10 0x4936496A6B3159545668 0x4E PUSH10 0x4973496C4648496A6F69 0x4F DIFFICULTY 0x4D CALLDATALOAD 0x4D SLOAD PUSH12 0x7949697769555567694F6949 CALLER 0x4D SLOAD PUSH5 0x6B4E325569 0x4C NUMBER 0x4A MSTORE MSTORE8 MSTORE8 0x49 CALLDATASIZE 0x49 PUSH11 0x566D4E6D45325953497349 PUSH13 0x464B496A6F694E4751314E6A55 ORIGIN 0x49 PUSH10 0x7769556B45694F694A6D 0x4D PUSH14 0x59305A6A51694C434A5351694936 0x49 PUSH14 0x55315A54686C4F434973496C4A44 0x49 PUSH11 0x6F6959324E6B4D57517849 PUSH10 0x7769556B51694F694A69 0x4D PUSH14 0x4A68596D49694C434A5352534936 0x49 PUSH11 0x6B3559544E684E43497349 PUSH13 0x4A47496A6F694E325934597A68 PUSH12 0x49697769556B63694F694933 0x4D DIFFICULTY PUSH5 0x694E324D69 0x4C NUMBER 0x4A MSTORE8 MSTORE8 NUMBER 0x49 CALLDATASIZE 0x49 PUSH11 0x59784E6D45325969497349 PUSH13 0x4A4A496A6F694E544531595456 PUSH9 0x49697769556B6F694F PUSH10 0x49304D6A51354E446B69 0x4C NUMBER 0x4A SLOAD MLOAD MSTORE8 0x49 CALLDATASIZE 0x49 PUSH14 0x56695A57526C5A694973496C4E43 0x49 PUSH11 0x6F695A445A6B596D526D49 PUSH10 0x776955304D694F694A68 GAS JUMPI 0x49 ORIGIN MSIZE PUSH14 0x59694C434A5452434936496A6731 0x4F SLOAD 0x49 CALLDATALOAD GAS MSTORE8 0x49 PUSH20 0x496C4E46496A6F694E5751325A44646C49697769 SSTORE ADDRESS MSIZE PUSH10 0x4F69497A4E4451354E57 SSTORE PUSH10 0x4C434A5452794936496A 0x4A PUSH13 0x4E4441314D794973496C4E4949 PUSH11 0x6F694D6A677A4E7A513349 PUSH10 0x776955306B694F694979 0x4D SLOAD 0x4A PUSH14 0x4D324D694C434A5453694936496A CHAINID PUSH10 0x4D6A597A4D534973496C MSTORE TIMESTAMP 0x49 PUSH11 0x6F695A57466C5932566C49 PUSH10 0x7769564549694F694A6B 0x4E JUMPI MLOAD CALLVALUE GAS SELFBALANCE 0x4D PUSH10 0x4C434A5551794936496D CHAINID PUSH10 0x596A4A694F534973496C MSTORE GASLIMIT 0x49 PUSH11 0x6F694F444134596A6B3249 PUSH10 0x7769564555694F694931 0x4E PUSH11 0x59314E7A4D694C434A5552 PUSH10 0x4936496A4A6A4D325531 0x4D NUMBER 0x49 PUSH20 0x496C5248496A6F694D6A637A4E7A513249697769 JUMP GASLIMIT PUSH8 0x694F6949794D544A PUSH14 0x4D3251694C434A5553534936496A CHAINID PUSH11 0x4D6A677A4D794973496C52 0x4B 0x49 PUSH11 0x6F694D5463794D444A6849 PUSH15 0x30222C6D78643D4A534F4E2E706172 PUSH20 0x652861746F6228756E65736361706528656E636F PUSH5 0x6555524943 PUSH16 0x6D706F6E656E74286D7478292929292C PUSH4 0x683D6376 0x2E PUSH9 0x65696768742C677078 RETURNDATASIZE PUSH4 0x74782E67 PUSH6 0x74496D616765 DIFFICULTY PUSH2 0x7461 0x28 ADDRESS 0x2C ADDRESS 0x2C PUSH19 0x65732C726573292C636E743D302C636C733D22 0x22 0x2C PUSH4 0x3D302C79 RETURNDATASIZE ADDRESS 0x2C PUSH25 0x3D303B666F72286C657420493D303B493C4E46542E6C656E67 PUSH21 0x683B492B2B297B636F6E737420693D4E46545B495D EXTCODESIZE PUSH4 0x6E743C32 0x26 0x26 0x28 PUSH4 0x6C732B3D PUSH10 0x2C636E742B2B292C323D RETURNDATASIZE RETURNDATASIZE PUSH4 0x6E742626 0x28 PUSH4 0x74782E66 PUSH10 0x6C6C5374796C653D2223 0x22 0x2B PUSH14 0x78645B636C735D2C6374782E6669 PUSH13 0x6C5265637428782C792C313030 0x2C BALANCE ADDRESS ADDRESS 0x29 0x2C PUSH25 0x3D3D3D3130302A7265732D3130303F28783D302C792B3D3130 ADDRESS 0x29 GASPRICE PUSH25 0x2B3D3130302C636C733D22222C636E743D30297D3C2F736372 PUSH10 0x70743EA2646970667358 0x22 SLT KECCAK256 0x2E DIFFICULTY 0xCC 0xDE CALLCODE 0xD1 BYTE SWAP15 CALLVALUE LOG3 CALLDATACOPY DELEGATECALL LT EQ 0xDE SWAP4 PUSH3 0xEEB264 SLOAD 0x25 0xD0 0xC2 0xC7 0xD DELEGATECALL ISZERO 0x5E 0xAF 0x4E REVERT PUSH5 0x736F6C6343 STOP ADDMOD STOP STOP CALLER PUSH9 0x747470733A2F2F6E66 PUSH21 0x6C6174696E6F616D65726963612E636F6D2F6D6574 PUSH2 0x2D64 PUSH2 0x7461 0x2F PUSH5 0x6174612F00 "
		},
		"gasEstimates": {
			"creation": {
				"codeDepositCost": "4761400",
				"executionCost": "infinite",
				"totalCost": "infinite"
			},
			"external": {
				"Set_price_min_Gwei(uint256)": "6597",
				"addressOfOwner(address)": "infinite",
				"allRegistered()": "1139",
				"approve(address,uint256)": "infinite",
				"balanceOf(address)": "1422",
				"getApproved(uint256)": "2246",
				"isApprovedForAll(address,address)": "infinite",
				"isRegistered(address)": "1399",
				"jsonTokenURI(uint256)": "infinite",
				"myAccountByName(string)": "infinite",
				"myArtisticName(address)": "infinite",
				"name()": "infinite",
				"nftsFreeMint()": "1227",
				"owner()": "1137",
				"ownerOf(uint256)": "1410",
				"ownerRegister(address,string)": "infinite",
				"pauseMint()": "21980",
				"pauseRegister()": "22047",
				"removeApproved(uint256)": "infinite",
				"renounceOwnership()": "23641",
				"safeMint(string,string,string,uint256,uint256)": "infinite",
				"safeTransferFrom(address,address,uint256)": "infinite",
				"safeTransferFrom(address,address,uint256,bytes)": "infinite",
				"see_NFT_canva(uint256)": "infinite",
				"see_NFT_str(uint256)": "infinite",
				"see_price_wei()": "1161",
				"selfRegister(string)": "infinite",
				"setApprovalForAll(address,bool)": "infinite",
				"setBaseExtention(string)": "infinite",
				"setBaseURI(string,string)": "infinite",
				"setFreeMint(address,uint256)": "24346",
				"setInactiveArtist(address,bool)": "23207",
				"startMint()": "22010",
				"startRegister()": "21943",
				"stateMint()": "1174",
				"stateRegister()": "1096",
				"supportsInterface(bytes4)": "593",
				"symbol()": "infinite",
				"tokenByIndex(uint256)": "2915",
				"tokenOfOwnerByIndex(address,uint256)": "2485",
				"tokenURI(uint256)": "infinite",
				"totalSupply()": "1096",
				"transferFrom(address,address,uint256)": "infinite",
				"transferOwnership(address)": "23856"
			},
			"internal": {
				"_baseURI()": "infinite",
				"_beforeTokenTransfer(address,address,uint256)": "infinite",
				"_burn(uint256)": "infinite",
				"char(bytes1)": "185",
				"toAsciiString(address)": "infinite",
				"toBytes32String(bytes32)": "infinite"
			}
		},
		"methodIdentifiers": {
			"Set_price_min_Gwei(uint256)": "1648f834",
			"addressOfOwner(address)": "6e4d1267",
			"allRegistered()": "615d21a1",
			"approve(address,uint256)": "095ea7b3",
			"balanceOf(address)": "70a08231",
			"getApproved(uint256)": "081812fc",
			"isApprovedForAll(address,address)": "e985e9c5",
			"isRegistered(address)": "c3c5a547",
			"jsonTokenURI(uint256)": "60225e79",
			"myAccountByName(string)": "c610e7a6",
			"myArtisticName(address)": "3b1a4fe2",
			"name()": "06fdde03",
			"nftsFreeMint()": "4ceae247",
			"owner()": "8da5cb5b",
			"ownerOf(uint256)": "6352211e",
			"ownerRegister(address,string)": "359539b0",
			"pauseMint()": "cd85cdb5",
			"pauseRegister()": "65c20a96",
			"removeApproved(uint256)": "c1a12ce7",
			"renounceOwnership()": "715018a6",
			"safeMint(string,string,string,uint256,uint256)": "cc0d2546",
			"safeTransferFrom(address,address,uint256)": "42842e0e",
			"safeTransferFrom(address,address,uint256,bytes)": "b88d4fde",
			"see_NFT_canva(uint256)": "ce2762d3",
			"see_NFT_str(uint256)": "66be290f",
			"see_price_wei()": "a7fdeeb5",
			"selfRegister(string)": "1365e5d1",
			"setApprovalForAll(address,bool)": "a22cb465",
			"setBaseExtention(string)": "4987b3bc",
			"setBaseURI(string,string)": "6790a9de",
			"setFreeMint(address,uint256)": "ad64e945",
			"setInactiveArtist(address,bool)": "37679e34",
			"startMint()": "2be09561",
			"startRegister()": "afa00bba",
			"stateMint()": "4a7bd404",
			"stateRegister()": "87014f57",
			"supportsInterface(bytes4)": "01ffc9a7",
			"symbol()": "95d89b41",
			"tokenByIndex(uint256)": "4f6ccce7",
			"tokenOfOwnerByIndex(address,uint256)": "2f745c59",
			"tokenURI(uint256)": "c87b56dd",
			"totalSupply()": "18160ddd",
			"transferFrom(address,address,uint256)": "23b872dd",
			"transferOwnership(address)": "f2fde38b"
		}
	},
	"abi": [
		{
			"inputs": [
				{
					"internalType": "string",
					"name": "_name",
					"type": "string"
				},
				{
					"internalType": "string",
					"name": "_symbol",
					"type": "string"
				}
			],
			"stateMutability": "nonpayable",
			"type": "constructor"
		},
		{
			"anonymous": false,
			"inputs": [
				{
					"indexed": true,
					"internalType": "address",
					"name": "owner",
					"type": "address"
				},
				{
					"indexed": true,
					"internalType": "address",
					"name": "approved",
					"type": "address"
				},
				{
					"indexed": true,
					"internalType": "uint256",
					"name": "tokenId",
					"type": "uint256"
				}
			],
			"name": "Approval",
			"type": "event"
		},
		{
			"anonymous": false,
			"inputs": [
				{
					"indexed": true,
					"internalType": "address",
					"name": "owner",
					"type": "address"
				},
				{
					"indexed": true,
					"internalType": "address",
					"name": "operator",
					"type": "address"
				},
				{
					"indexed": false,
					"internalType": "bool",
					"name": "approved",
					"type": "bool"
				}
			],
			"name": "ApprovalForAll",
			"type": "event"
		},
		{
			"anonymous": false,
			"inputs": [
				{
					"indexed": false,
					"internalType": "string",
					"name": "hash_str",
					"type": "string"
				},
				{
					"indexed": false,
					"internalType": "uint256",
					"name": "tokenId",
					"type": "uint256"
				},
				{
					"indexed": false,
					"internalType": "uint256",
					"name": "time",
					"type": "uint256"
				},
				{
					"indexed": false,
					"internalType": "address",
					"name": "ctr",
					"type": "address"
				}
			],
			"name": "NFT_mint",
			"type": "event"
		},
		{
			"anonymous": false,
			"inputs": [
				{
					"indexed": true,
					"internalType": "address",
					"name": "previousOwner",
					"type": "address"
				},
				{
					"indexed": true,
					"internalType": "address",
					"name": "newOwner",
					"type": "address"
				}
			],
			"name": "OwnershipTransferred",
			"type": "event"
		},
		{
			"anonymous": false,
			"inputs": [
				{
					"indexed": true,
					"internalType": "address",
					"name": "from",
					"type": "address"
				},
				{
					"indexed": true,
					"internalType": "address",
					"name": "to",
					"type": "address"
				},
				{
					"indexed": true,
					"internalType": "uint256",
					"name": "tokenId",
					"type": "uint256"
				}
			],
			"name": "Transfer",
			"type": "event"
		},
		{
			"anonymous": false,
			"inputs": [
				{
					"indexed": false,
					"internalType": "address",
					"name": "removedAddres",
					"type": "address"
				},
				{
					"indexed": false,
					"internalType": "uint256",
					"name": "tokenId",
					"type": "uint256"
				}
			],
			"name": "removeApprove",
			"type": "event"
		},
		{
			"inputs": [
				{
					"internalType": "uint256",
					"name": "_minting_price_Gwei",
					"type": "uint256"
				}
			],
			"name": "Set_price_min_Gwei",
			"outputs": [],
			"stateMutability": "nonpayable",
			"type": "function"
		},
		{
			"inputs": [
				{
					"internalType": "address",
					"name": "_address",
					"type": "address"
				}
			],
			"name": "addressOfOwner",
			"outputs": [
				{
					"internalType": "uint256[]",
					"name": "",
					"type": "uint256[]"
				}
			],
			"stateMutability": "view",
			"type": "function"
		},
		{
			"inputs": [],
			"name": "allRegistered",
			"outputs": [
				{
					"internalType": "uint256",
					"name": "_allRegistered",
					"type": "uint256"
				}
			],
			"stateMutability": "view",
			"type": "function"
		},
		{
			"inputs": [
				{
					"internalType": "address",
					"name": "to",
					"type": "address"
				},
				{
					"internalType": "uint256",
					"name": "tokenId",
					"type": "uint256"
				}
			],
			"name": "approve",
			"outputs": [],
			"stateMutability": "nonpayable",
			"type": "function"
		},
		{
			"inputs": [
				{
					"internalType": "address",
					"name": "owner",
					"type": "address"
				}
			],
			"name": "balanceOf",
			"outputs": [
				{
					"internalType": "uint256",
					"name": "",
					"type": "uint256"
				}
			],
			"stateMutability": "view",
			"type": "function"
		},
		{
			"inputs": [
				{
					"internalType": "uint256",
					"name": "tokenId",
					"type": "uint256"
				}
			],
			"name": "getApproved",
			"outputs": [
				{
					"internalType": "address",
					"name": "",
					"type": "address"
				}
			],
			"stateMutability": "view",
			"type": "function"
		},
		{
			"inputs": [
				{
					"internalType": "address",
					"name": "owner",
					"type": "address"
				},
				{
					"internalType": "address",
					"name": "operator",
					"type": "address"
				}
			],
			"name": "isApprovedForAll",
			"outputs": [
				{
					"internalType": "bool",
					"name": "",
					"type": "bool"
				}
			],
			"stateMutability": "view",
			"type": "function"
		},
		{
			"inputs": [
				{
					"internalType": "address",
					"name": "_account",
					"type": "address"
				}
			],
			"name": "isRegistered",
			"outputs": [
				{
					"internalType": "bool",
					"name": "register_",
					"type": "bool"
				}
			],
			"stateMutability": "view",
			"type": "function"
		},
		{
			"inputs": [
				{
					"internalType": "uint256",
					"name": "_tokenId",
					"type": "uint256"
				}
			],
			"name": "jsonTokenURI",
			"outputs": [
				{
					"internalType": "string",
					"name": "",
					"type": "string"
				}
			],
			"stateMutability": "view",
			"type": "function"
		},
		{
			"inputs": [
				{
					"internalType": "string",
					"name": "_artisticName",
					"type": "string"
				}
			],
			"name": "myAccountByName",
			"outputs": [
				{
					"internalType": "address",
					"name": "account",
					"type": "address"
				}
			],
			"stateMutability": "view",
			"type": "function"
		},
		{
			"inputs": [
				{
					"internalType": "address",
					"name": "_artistAddress",
					"type": "address"
				}
			],
			"name": "myArtisticName",
			"outputs": [
				{
					"internalType": "string",
					"name": "artisticName",
					"type": "string"
				}
			],
			"stateMutability": "view",
			"type": "function"
		},
		{
			"inputs": [],
			"name": "name",
			"outputs": [
				{
					"internalType": "string",
					"name": "",
					"type": "string"
				}
			],
			"stateMutability": "view",
			"type": "function"
		},
		{
			"inputs": [],
			"name": "nftsFreeMint",
			"outputs": [
				{
					"internalType": "uint256",
					"name": "nftsFree",
					"type": "uint256"
				}
			],
			"stateMutability": "view",
			"type": "function"
		},
		{
			"inputs": [],
			"name": "owner",
			"outputs": [
				{
					"internalType": "address",
					"name": "",
					"type": "address"
				}
			],
			"stateMutability": "view",
			"type": "function"
		},
		{
			"inputs": [
				{
					"internalType": "uint256",
					"name": "tokenId",
					"type": "uint256"
				}
			],
			"name": "ownerOf",
			"outputs": [
				{
					"internalType": "address",
					"name": "",
					"type": "address"
				}
			],
			"stateMutability": "view",
			"type": "function"
		},
		{
			"inputs": [
				{
					"internalType": "address",
					"name": "_artistAddress",
					"type": "address"
				},
				{
					"internalType": "string",
					"name": "_artisticName",
					"type": "string"
				}
			],
			"name": "ownerRegister",
			"outputs": [],
			"stateMutability": "nonpayable",
			"type": "function"
		},
		{
			"inputs": [],
			"name": "pauseMint",
			"outputs": [],
			"stateMutability": "nonpayable",
			"type": "function"
		},
		{
			"inputs": [],
			"name": "pauseRegister",
			"outputs": [],
			"stateMutability": "nonpayable",
			"type": "function"
		},
		{
			"inputs": [
				{
					"internalType": "uint256",
					"name": "_tokenId",
					"type": "uint256"
				}
			],
			"name": "removeApproved",
			"outputs": [],
			"stateMutability": "nonpayable",
			"type": "function"
		},
		{
			"inputs": [],
			"name": "renounceOwnership",
			"outputs": [],
			"stateMutability": "nonpayable",
			"type": "function"
		},
		{
			"inputs": [
				{
					"internalType": "string",
					"name": "_NFT_pixels",
					"type": "string"
				},
				{
					"internalType": "string",
					"name": "_name",
					"type": "string"
				},
				{
					"internalType": "string",
					"name": "_description",
					"type": "string"
				},
				{
					"internalType": "uint256",
					"name": "_resolution",
					"type": "uint256"
				},
				{
					"internalType": "uint256",
					"name": "_colorsAmount",
					"type": "uint256"
				}
			],
			"name": "safeMint",
			"outputs": [],
			"stateMutability": "payable",
			"type": "function"
		},
		{
			"inputs": [
				{
					"internalType": "address",
					"name": "from",
					"type": "address"
				},
				{
					"internalType": "address",
					"name": "to",
					"type": "address"
				},
				{
					"internalType": "uint256",
					"name": "tokenId",
					"type": "uint256"
				}
			],
			"name": "safeTransferFrom",
			"outputs": [],
			"stateMutability": "nonpayable",
			"type": "function"
		},
		{
			"inputs": [
				{
					"internalType": "address",
					"name": "from",
					"type": "address"
				},
				{
					"internalType": "address",
					"name": "to",
					"type": "address"
				},
				{
					"internalType": "uint256",
					"name": "tokenId",
					"type": "uint256"
				},
				{
					"internalType": "bytes",
					"name": "_data",
					"type": "bytes"
				}
			],
			"name": "safeTransferFrom",
			"outputs": [],
			"stateMutability": "nonpayable",
			"type": "function"
		},
		{
			"inputs": [
				{
					"internalType": "uint256",
					"name": "_tokenId",
					"type": "uint256"
				}
			],
			"name": "see_NFT_canva",
			"outputs": [
				{
					"internalType": "string",
					"name": "",
					"type": "string"
				}
			],
			"stateMutability": "view",
			"type": "function"
		},
		{
			"inputs": [
				{
					"internalType": "uint256",
					"name": "_tokenId",
					"type": "uint256"
				}
			],
			"name": "see_NFT_str",
			"outputs": [
				{
					"internalType": "string",
					"name": "",
					"type": "string"
				}
			],
			"stateMutability": "view",
			"type": "function"
		},
		{
			"inputs": [],
			"name": "see_price_wei",
			"outputs": [
				{
					"internalType": "uint256",
					"name": "_minting_price_wei",
					"type": "uint256"
				}
			],
			"stateMutability": "view",
			"type": "function"
		},
		{
			"inputs": [
				{
					"internalType": "string",
					"name": "_artisticName",
					"type": "string"
				}
			],
			"name": "selfRegister",
			"outputs": [],
			"stateMutability": "nonpayable",
			"type": "function"
		},
		{
			"inputs": [
				{
					"internalType": "address",
					"name": "operator",
					"type": "address"
				},
				{
					"internalType": "bool",
					"name": "approved",
					"type": "bool"
				}
			],
			"name": "setApprovalForAll",
			"outputs": [],
			"stateMutability": "nonpayable",
			"type": "function"
		},
		{
			"inputs": [
				{
					"internalType": "string",
					"name": "_newBaseExtension",
					"type": "string"
				}
			],
			"name": "setBaseExtention",
			"outputs": [],
			"stateMutability": "nonpayable",
			"type": "function"
		},
		{
			"inputs": [
				{
					"internalType": "string",
					"name": "_new_baseURI",
					"type": "string"
				},
				{
					"internalType": "string",
					"name": "_imageBaseURI",
					"type": "string"
				}
			],
			"name": "setBaseURI",
			"outputs": [],
			"stateMutability": "nonpayable",
			"type": "function"
		},
		{
			"inputs": [
				{
					"internalType": "address",
					"name": "_artistAddress",
					"type": "address"
				},
				{
					"internalType": "uint256",
					"name": "_nftsFree",
					"type": "uint256"
				}
			],
			"name": "setFreeMint",
			"outputs": [],
			"stateMutability": "nonpayable",
			"type": "function"
		},
		{
			"inputs": [
				{
					"internalType": "address",
					"name": "_artistAddress",
					"type": "address"
				},
				{
					"internalType": "bool",
					"name": "_stdo",
					"type": "bool"
				}
			],
			"name": "setInactiveArtist",
			"outputs": [],
			"stateMutability": "nonpayable",
			"type": "function"
		},
		{
			"inputs": [],
			"name": "startMint",
			"outputs": [],
			"stateMutability": "nonpayable",
			"type": "function"
		},
		{
			"inputs": [],
			"name": "startRegister",
			"outputs": [],
			"stateMutability": "nonpayable",
			"type": "function"
		},
		{
			"inputs": [],
			"name": "stateMint",
			"outputs": [
				{
					"internalType": "bool",
					"name": "switchMint_",
					"type": "bool"
				}
			],
			"stateMutability": "view",
			"type": "function"
		},
		{
			"inputs": [],
			"name": "stateRegister",
			"outputs": [
				{
					"internalType": "bool",
					"name": "switchRegister_",
					"type": "bool"
				}
			],
			"stateMutability": "view",
			"type": "function"
		},
		{
			"inputs": [
				{
					"internalType": "bytes4",
					"name": "interfaceId",
					"type": "bytes4"
				}
			],
			"name": "supportsInterface",
			"outputs": [
				{
					"internalType": "bool",
					"name": "",
					"type": "bool"
				}
			],
			"stateMutability": "view",
			"type": "function"
		},
		{
			"inputs": [],
			"name": "symbol",
			"outputs": [
				{
					"internalType": "string",
					"name": "",
					"type": "string"
				}
			],
			"stateMutability": "view",
			"type": "function"
		},
		{
			"inputs": [
				{
					"internalType": "uint256",
					"name": "index",
					"type": "uint256"
				}
			],
			"name": "tokenByIndex",
			"outputs": [
				{
					"internalType": "uint256",
					"name": "",
					"type": "uint256"
				}
			],
			"stateMutability": "view",
			"type": "function"
		},
		{
			"inputs": [
				{
					"internalType": "address",
					"name": "owner",
					"type": "address"
				},
				{
					"internalType": "uint256",
					"name": "index",
					"type": "uint256"
				}
			],
			"name": "tokenOfOwnerByIndex",
			"outputs": [
				{
					"internalType": "uint256",
					"name": "",
					"type": "uint256"
				}
			],
			"stateMutability": "view",
			"type": "function"
		},
		{
			"inputs": [
				{
					"internalType": "uint256",
					"name": "_tokenId",
					"type": "uint256"
				}
			],
			"name": "tokenURI",
			"outputs": [
				{
					"internalType": "string",
					"name": "",
					"type": "string"
				}
			],
			"stateMutability": "view",
			"type": "function"
		},
		{
			"inputs": [],
			"name": "totalSupply",
			"outputs": [
				{
					"internalType": "uint256",
					"name": "",
					"type": "uint256"
				}
			],
			"stateMutability": "view",
			"type": "function"
		},
		{
			"inputs": [
				{
					"internalType": "address",
					"name": "from",
					"type": "address"
				},
				{
					"internalType": "address",
					"name": "to",
					"type": "address"
				},
				{
					"internalType": "uint256",
					"name": "tokenId",
					"type": "uint256"
				}
			],
			"name": "transferFrom",
			"outputs": [],
			"stateMutability": "nonpayable",
			"type": "function"
		},
		{
			"inputs": [
				{
					"internalType": "address",
					"name": "newOwner",
					"type": "address"
				}
			],
			"name": "transferOwnership",
			"outputs": [],
			"stateMutability": "nonpayable",
			"type": "function"
		}
	]
}